S0120000656C656B74726F6D65722E73726563D8
S214000000F07F0010C90A0000B90A0000B90A000013
S214000010B90A0000B90A0000B90A00000000000092
S214000020000000000000000000000000ED310000AD
S214000030B90A00000000000069320000F532000036
S214000040B90A0000B90A0000B90A0000B90A00009F
S214000050B90A000051C70000B90A0000B90A00003A
S214000060B90A0000B90A0000B90A0000B90A00007F
S214000070B90A0000B90A0000B90A0000B90A00006F
S214000080B90A0000BD0A0000B90A0000B90A00005B
S214000090B90A0000B90A0000B90A0000B90A00004F
S2140000A0B1100000B90A0000B90A0000B90A000041
S2140000B0254A0000B90A0000B90A0000B90A000083
S2140000C0B90A0000B90A0000B90A000010B540F2EB
S2140000D03864C1F20004237863B940F20000C0F22D
S2140000E0000028B14BF69810C0F20100AFF3008074
S2140000F00121217010BD00BF08B540F20003C0F218
S21400010000034BB14BF6981040F23C61C0F2010080
S214000110C1F20001AFF3008040F23060C1F200008F
S214000120016829B140F20003C0F2000303B198470A
S21400013008BD00BF4CF20002C4F20002137D13F0AB
S214000140400FFBD04CF20003C4F200031870704757
S21400015010B50446007828B1FFF7ECFF14F8010F3D
S2140001600028F9D110BD00BF40F20403C1F200031D
S214000170186870474CF20003C4F20F03D3F8C4208B
S21400018042F00202C3F8C420D3F8A82122F00C02E1
S21400019042F00402C3F8A82144F20003C4F20003AC
S2140001A04FF002025A604FF000021A6742F2AB624A
S2140001B0DA604FF001025A60704700BF10B50C4677
S2140001C04FF4605010F042F846F20470C0F201009E
S2140001D021460CF089FCFEE708B540F25463C1F2F4
S2140001E000031A6802F101021A6041F287339A424C
S2140001F076D940F25463C1F200034FF000021A6051
S21400020003F0C8F9012809D040F20403C1F2000344
S21400021046F21872C0F201021A6061E003F006FDB1
S214000220012809D040F20403C1F2000346F25472DA
S214000230C0F201021A6053E003F070F8012809D0FA
S21400024040F20403C1F2000346F28C72C0F20102CF
S2140002501A6045E003F0C4FE012809D040F204030A
S214000260C1F2000346F2C872C0F201021A6037E01B
S21400027004F072FA012809D040F20403C1F2000328
S21400028046F60002C0F201021A6029E003F000FC04
S214000290012809D040F20403C1F2000346F63802F2
S2140002A0C0F201021A601BE004F0C6F8012809D06B
S2140002B040F20403C1F2000346F67002C0F20102E7
S2140002C01A600DE004F016F901281FBF40F204037F
S2140002D0C1F2000346F6A802C0F2010218BF1A6077
S2140002E008BD00BF10B58EB04CF20003C4F20F0379
S2140002F04FF00001C3F8C4104FF40042C3F8C42006
S2140003004CF20002C4F202029162D3F8883013F075
S214000310007F0FD04CF20003C4F20F034FF001022F
S214000320C3F8802002F1A902C3F88C204FF05502D2
S214000330C3F88C204CF20003C4F20F034FF0000207
S214000340C3F8802002F1AA02C3F88C204FF05502B1
S214000350C3F88C20D3F8A02142F02002C3F8A021D5
S2140003604CF20003C4F20F03D3F8A02112F0400FA2
S214000370FAD04CF20003C4F20F034FF00100C3F8AA
S2140003800C0140F23102C0F20202C3F884204FF0A2
S214000390AA01C3F88C104FF05502C3F88C20C3F89E
S2140003A08000C3F88C10C3F88C204FF00302C3F80B
S2140003B0042144F23A021A604CF20003C4F20F031E
S2140003C0D3F8882012F0806FFAD04CF20003C4F203
S2140003D00F034FF00302C3F8802002F1A702C3F810
S2140003E08C204FF05502C3F88C204CF20003C4F268
S2140003F00F03D3F8882012F0007FFAD04CF20003E7
S214000400C4F20F03D3F8A83013F4007F0FD04CF2D9
S2140004100003C4F20F034FF00102C3F8A02002F15C
S214000420A902C3F8AC204FF05502C3F8AC204CF23A
S2140004300003C4F20F034FF00002C3F8A0204FF0F1
S214000440AA01C3F8AC1002F15502C3F8AC204FF075
S2140004502300C3F8A400C3F8AC10C3F8AC204FF0D8
S2140004600100C3F8A000C3F8AC10C3F8AC204CF2EF
S2140004700003C4F20F03D3F8A82012F4806FFAD05A
S2140004804CF20003C4F20F034FF00302C3F8A0209F
S21400049002F1A702C3F8AC204FF05502C3F8AC2017
S2140004A04CF20003C4F20F03D3F8A82012F4007F26
S2140004B0FAD04CF20003C4F20F0345F25552C0F2D4
S2140004C05552C3F8A82100F087FA45F63413C1F256
S2140004D000034FF000021A700EA94FF0360341F8E1
S2140004E0083D41F6F173C1F6FF73084698479DF83C
S2140004F03730252B01BF45F63413C1F20003012225
S2140005001A700FF0C5FE46F2E46EC0F2010E0DF151
S214000510100CBEE80F00ACE80F009EE80F008CE859
S2140005200F0004A80BF032F84FF400600FF08EFEB8
S2140005304FF0020002F020FF03F074FD4FF00100C0
S21400054004F042F94FF0020003F0BCFA4FF000004E
S21400055003F07EFF4FF0000003F046F803F080FB48
S21400056004F010F84FF0040300934FF000040194D9
S214000570029403944FF64970C0F2000046F6DC0180
S214000580C0F201014FF05002234602F063FC0094D3
S2140005900194029403944CF25970C0F2000046F69F
S2140005A0E001C0F2010140F2DB12234602F052FCE9
S2140005B0009401940294039440F63D70C0F201004A
S2140005C046F6EC01C0F201014FF0AA02234602F003
S2140005D041FC4FF00303009301940294039446F603
S2140005E05520C0F2000046F6F401C0F201014FF4B7
S2140005F09B72234602F02EFC02F022FDFEE700BFAF
S21400060038B54FF47A754FF40054284602F022FBB2
S21400061020460FF02FFEF8E738B504464FF00100ED
S21400062000F000FA2278EAB140F2A863C1F20003B3
S2140006301D68FF2D16DC45F63811C1F2000129446D
S2140006402B4640F2A860C1F20000C5F100052C441C
S2140006500A7003F101030360E25C1AB101F10101C3
S214000660FF2BF5DD38BD00BF28B1026811700268A7
S21400067002F10102026070472DE9F84505460F4673
S214000680B2F1000A14DD0A785AB14FF0000202F106
S2140006900102B95C0029FAD19245D8BF4FF0000A92
S2140006A001DDC2EB0A0A13F0020F18BF302601D193
S2140006B04FF0200613F0010F0FD1BAF1000F0CDD3A
S2140006C0544628463146FFF7CFFF04F1FF34002C8E
S2140006D0F7DCD0464FF0000A01E04FF0000839780A
S2140006E059B14446C8EB07072846FFF7BDFF04F19B
S2140006F00104395D0029F7D1A046BAF1000F09DDE3
S214000700544628463146FFF7AFFF04F1FF34002C6D
S214000710F7DCD0444046BDE8F88500BF2DE9F0413F
S21400072084B006460A9FDDF82C80084671B94FF063
S21400073030038DF804304FF000038DF80530304656
S21400074001A93A464346FFF797FF4BE00A2A14BF33
S2140007504FF0000C4FF0010C002B0CBF00230CF0E8
S214000760010323B10029BCBF4842012501DB4FF03D
S21400077000054FF000038DF80F3010B90DF10F048F
S21400078014E00DF10F0411460C9BA3F13A0CB0FBDC
S214000790F2F302FB1303092BC8BF634403F13003D3
S2140007A004F8013DB0FBF1F00028F0D19DB167B12F
S2140007B018F0020F09D030464FF02D01FFF754FF16
S2140007C007F1FF374FF0010505E04FF02D0304F861
S2140007D0013D4FF00005304621463A464346FFF7B6
S2140007E04BFF284404B0BDE8F08100BF4FF0000086
S2140007F0704700BF2DE9F04F87B080460C460B7857
S214000800002B00F0AB8016464FF00007BA464FF0BC
S214000810010B46F62019C0F20109252B40F0928004
S21400082014F8013F002B00F09B80252B00F08A80F7
S2140008302D2B12BF534601345B462278302A05D151
S21400084043F0020314F8012F302AF9D02178A1F1E1
S2140008503002D2B2092A88BF52460DD8524602EB61
S214000860820201EB4202A2F1300214F8011FA1F14C
S2140008703000C0B20928F2D973290AD1354655F896
S214000880041B4046002908BF4946FFF7F5FE07440B
S2140008905FE064290FD106F10405316800920193E8
S2140008A04FF06103029340464FF00A025B46FFF7A3
S2140008B035FF07444DE078290FD106F1040531686D
S2140008C0009201934FF06103029340464FF01002EE
S2140008D05346FFF723FF07443BE058290FD106F1A4
S2140008E004053168009201934FF04103029340469D
S2140008F04FF010025346FFF711FF074429E0752911
S2140009000FD106F104053168009201934FF06103A0
S214000910029340464FF00A025346FFF7FFFE074495
S21400092017E0632918BF354613D106F10405316870
S2140009308DF814108DF815A0404605A9FFF79CFE0B
S214000940074406E040462178FFF78EFE07F10107D0
S214000950354614F8013F1BB12E465EE74FF0000700
S214000960B8F1000F04D0D8F800304FF000021A702B
S214000970384607B0BDE8F08F0CB400B585B00190DE
S21400098006AA52F8041B039201A8FFF733FF05B02E
S2140009905DF804EB02B070470EB400B584B0019069
S2140009A005AA52F8041B039201A8FFF723FF04B020
S2140009B05DF804EB03B070470FB400B583B004AA2B
S2140009C052F8041B01924FF00000FFF713FF03B02C
S2140009D05DF804EB04B070474CF22003C2F2090342
S2140009E04FF04C521A60DA61704700BF032817D8E0
S2140009F059B146F62813C0F2010353F820204CF2F2
S214000A002003C2F20903DA610AE046F62813C0F2B0
S214000A10010353F820204CF22003C2F209039A6126
S214000A20704700BF032817D84CF22003C2F2090310
S214000A305A6946F62813C0F2010353F820301342D1
S214000A401DBF4CF22002C2F20902D3614CF2200212
S214000A5004BFC2F209029361704700BF03288FBF2C
S214000A6000204CF22003C2F209035A699FBF46F6E3
S214000A702813C0F2010353F8203002EA030070473F
S214000A804FF0FF30704700BF4FF00000704700BFC8
S214000A904FF00000704700BF4FF00000704700BFE7
S214000AA04FF00000704700BF4FF00000704700BFD7
S214000AB04FF00000704700BFFEE700BF08B54FF4D8
S214000AC080500FF0D7FB08BD08B540F20002C1F217
S214000AD0000240F22863C1F200039A4217D24FF098
S214000AE0000340F20002C1F200024BF69C10C0F276
S214000AF0010040F22861C1F2000153F800C043F83B
S214000B0002C003F1040303EB020C8C45F5D3064840
S214000B1006494FF000028842B8BF40F8042BFADBC3
S214000B20FFF7E0FBFEE7000038060010807E0010AE
S214000B3010B44CF20003C4F20F03D3F88830C3F3AA
S214000B400163032B7ED14CF20003C4F20F03D3F8EB
S214000B500C3103F00303032B00F2C180DFE803F03F
S214000B6002284E024CF20003C4F20F03D3F888109A
S214000B70D3F88840D3F8040140F20802C1F200021C
S214000B804FEA41414FEA514141F20023C0F27A0355
S214000B9001FB0333C4F3074C0CF1010CB3FBFCF36D
S214000BA000F0FF0000F10100B3FBF0F3136096E0E5
S214000BB04CF20003C4F20F03D3F88810D3F8884031
S214000BC0D3F8040140F20802C1F200024FEA4141A4
S214000BD04FEA514143F20063C0F26E1301FB033348
S214000BE0C4F3074C0CF1010CB3FBFCF300F0FF0060
S214000BF000F10100B3FBF0F3136070E04CF2000369
S214000C00C4F20F03D3F88820D3F88840D3F8040141
S214000C1040F20803C1F200034FEA42424FEA524252
S214000C204FF47A4102FB0112C4F3074C0CF1010C9D
S214000C30B2FBFCF200F0FF0000F10100B2FBF0F2A4
S214000C401A604CE04CF20003C4F20F03D3F80C31E8
S214000C5003F00303032B42D8DFE803F002182E024A
S214000C604CF20003C4F20F03D3F8041140F2080359
S214000C70C1F2000301F0FF0101F1010140F600128C
S214000C80C0F23D02B2FBF1F21A6028E04CF200031B
S214000C90C4F20F03D3F8041140F20803C1F20003B4
S214000CA001F0FF0101F1010141F60032C0F2B70286
S214000CB0B2FBF1F21A6012E04CF20003C4F20F032A
S214000CC0D3F8042140F20803C1F2000302F0FF0249
S214000CD002F101024FF4FA41B1FBF2F21A6010BCC5
S214000CE0704700BF4CF20003C4F20F034FF020021F
S214000CF0C3F8A0211A46D2F8A03113F0400FFAD05C
S214000D004CF20003C4F20F034FF00302C3F80421B1
S214000D104FF00002C3F8A821C3F8AC214FF0010041
S214000D20C3F80C0140F26302C0F20502C3F8842047
S214000D304FF0AA01C3F88C104FF05502C3F88C2070
S214000D40C3F88000C3F88C10C3F88C201A46D2F87B
S214000D50883013F0806FFAD04CF20003C4F20F0311
S214000D604FF00302C3F880204FF0AA02C3F88C208D
S214000D704FF05502C3F88C201A46D2F8883013F08C
S214000D80407FFAD04CF20003C4F20F034FF0230268
S214000D90C3F8A4204FF0AA01C3F8AC104FF05502D8
S214000DA0C3F8AC204FF00100C3F8A000C3F8AC10A5
S214000DB0C3F8AC201A46D2F8A83013F4806FFAD0E5
S214000DC04CF20003C4F20F034FF00302C3F8A02056
S214000DD04FF0AA02C3F8AC204FF05502C3F8AC207F
S214000DE01A46D2F8A83013F4407FFAD04CF200032B
S214000DF0C4F20F0348F2DE72C0F22842C3F8C420E1
S214000E004FF00002C3F8C82143F23A021A60704756
S214000E10EFF309800046704780F30988704700BFEB
S214000E20EFF308800046704780F30888704700BFDD
S214000E30EFF31280704700BF80F31188704700BF41
S214000E40EFF31080704700BF80F31088704700BF34
S214000E50EFF31380704700BF80F31388704700BF1E
S214000E60EFF31480704700BF80F31488704700BF0C
S214000E7000BA704740BA7047C0BA704790FAA0F000
S214000E80704700BFD0E84F0FC0B27047D0E85F0F82
S214000E9080B2704750E8000F704700BFC1E8400FAF
S214000EA0704700BFC1E8500F704700BF41E8000020
S214000EB0704700BFEFF3108062B67047704700BF00
S214000EC010B54FF014004FF0010101F091F840F218
S214000ED05864C1F2000420604FF014004FF0010186
S214000EE001F086F86060236803B118B94FF000007F
S214000EF001F02EFF00F03CFC46F63810C0F2010070
S214000F0000F068FC4FF0010041F26101C0F2000100
S214000F10194A00F027F94FF081004FF0000100F069
S214000F204DFA4FF0820040F6F171C0F2000100F079
S214000F3045FA4FF0050040F69971C0F2000100F046
S214000F403DFA40F67D70C0F2000000F069FA4FF0FE
S214000F50200000F087FA4EF20013CEF200034FF0A6
S214000F60300283F818234FF080721A604FF00100A9
S214000F7000F06EFA10BD00BF6006001008B540F223
S214000F805863C1F20003586800F08CFD18B14FF0AA
S214000F90200000F067FA08BD2DE9F04583B04FF059
S214000FA00003019311494FF0400200F0BBFA061E01
S214000FB015DD4FF0000440F25865C1F2000505F15A
S214000FC010070DF10408A246286804EB0701424604
S214000FD0534600F029FF04F10104A642F4DC019B0D
S214000FE00BB102F01DF903B0BDE8F08568060010ED
S214000FF02DE9F04182B080464FF00003019340F2A5
S2140010005863C1F20003586800F04CFD10B900F0B8
S21400101029FA20E04FF0000440F25866C1F20006BC
S21400102006F1100501AF706804EB05013A4600F0C2
S214001030B1FD012804D104F10104402CF3D101E0F4
S214001040002C04DD40460549224600F02DFA019B9F
S2140010500BB102F0E5F802B0BDE8F08168060010BA
S21400106010B50C464378212B16D0222B08BF012042
S2140010701CD0202B18BF002018D140F20C00C1F263
S214001080000011684FF0070211F05EFD4FF00703F5
S21400109023604FF0010009E040F20C03C1F20003A8
S2140010A013604FF007030B604FF0010010BD00BF48
S2140010B008B500F095FA08BD00B583B040F2586355
S2140010C0C1F2000318680DF107014FF0FF324FF030
S2140010D0000300F0C9FD9DF8070003B000BD00BF87
S2140010E008B5FFF7E9FFC0B208BD00BF10B582B073
S2140010F0044602A901F8010D40F25863C1F200034C
S21400110058684FF014024FF0000300F0B9FE0128B3
S2140011100CBF20464FF0FF3002B010BD08B5FFF7F9
S214001120CFFE40F25863C1F200031B6D4FF0000281
S2140011300BB11346FCE7FEE708B5FFF7D7FF08BD7F
S21400114008B540F2AC63C1F2000390F800C0CCF3DF
S214001150411C53F82C3013B94FF0000000E09847BC
S21400116008BD00BF40F2AC63C1F2000343F8201094
S21400117003EB80031A61704708B54FF080004FF00C
S214001180010100F081F908BD38B540F2AC64C1F247
S2140011900004256A402DA8BF40254FF08000616AF4
S2140011A02A4600F081F9636A2B446362236AC5EB22
S2140011B00305256238BD00BF38B50C46002840F050
S2140011C0848011F0040F3ED040F2AC65C1F20005F9
S2140011D005F128014FF0080200F0A4F995F8282040
S2140011E0C2F3411305EB83031B696B62EB8D2B6225
S2140011F02B630BB1D2096CD040F2AC62C1F2000294
S21400120002F1280002F1300102F12402FFF798FFF4
S21400121018B92046FFF7B0FF5BE040F2AC63C1F2BE
S2140012200003DA8D1B6B9A42C3BF40F2AC62C1F278
S2140012300002136240F2AC63DCBFC1F200031A6224
S214001240FFF7A2FF45E040F2AC63C1F200031A6A62
S214001250002A33DD40F2AC63C1F200034FF0000019
S214001260596A00F05FF9002803DA2046FFF784FF8A
S2140012702FE040F2AC63C1F200035A6A02445A629D
S2140012801A6AC0EB0200186218BB1A4693F8283098
S214001290C3F3411302EB83031B69536202F1280078
S2140012A002F1300102F12402FFF74AFF18B9204686
S2140012B0FFF762FF0DE0FFF767FF0AE04FF0000060
S2140012C00146024600F02EF903E0802801D1FFF720
S2140012D05BFF38BD4CF20002C5F20002D2F80032C5
S2140012E000EA03038342F9D14CF20003C5F200037F
S2140012F0C3F80802704700BF08B54CF20003C5F2F9
S21400130000034FF03002C3F808224FEA004040F4D2
S214001310A060C3F810024FF01000FFF7DBFF08BD17
S21400132010B50C46FFF7E8FF4FEA044444F4807417
S2140013304CF20003C5F20003C3F810424FF0100051
S214001340FFF7C8FF10BD00BF10B50446FFF7D4FF77
S2140013504FEA044444F400734CF20004C5F200045F
S214001360C4F810324FF02000FFF7B4FFD4F8140290
S214001370C0B210BD10B500F00F044FEAD01040EA1E
S21400138044044CF20003C5F20003D3F844024FF0C5
S214001390010202FA04F242EA0002C3F84422C3F849
S2140013A04842C3F84C124FF48070FFF793FF44F0A6
S2140013B040004FF00001FFF7B3FF10BD00F00F0232
S2140013C04FEAD01040F2E063C1F2000340EA420068
S2140013D043F822104CF20003C5F20003D3F834227F
S2140013E04FF0010101FA00F040EA0200C3F83402AF
S2140013F0D3F8042242F00402C3F80422704700BF68
S21400140040F2E063C1F2000318644CF20003C5F238
S2140014100003D3F8042242F00802C3F804227047FF
S21400142040F2E063C1F2000358644CF20003C5F2D8
S2140014300003D3F8042242F00102C3F804227047E6
S21400144008B540F080014FF0D000FFF769FF08BDF7
S21400145008B5011E18BF01214FF0FE00FFF760FF20
S21400146008BD00BF08B501464FF0F300FFF758FF70
S21400147008BD00BF08B500F00F034FEAD01040EAE1
S2140014804300FFF761FF08BD08B500F00F034FEA01
S214001490D01040EA430040F04000003918BF012158
S2140014A0FFF73EFF08BD00BF10B5144600F00F0E54
S2140014B04FEA8E0242F002024CF20003C5F200032D
S2140014C0C3F82822C3F82442D3F8283213F0020FB8
S2140014D01BD04CF20003C5F2000391F803C08A78D3
S2140014E04FEA024242EA0C6291F800C042EA0C025D
S2140014F091F801C042EA0C22C3F81C2201F1040153
S214001500D3F8282212F0020FE7D14FEAD01040EAB3
S2140015104E00FFF7F1FE4FF0FA00FFF7EDFE204613
S21400152010BD00BFF8B500F00F0C4FEA8C0444F075
S21400153001044CF20003C5F20003C3F828424CF243
S2140015400003C5F20003D3F8204214F4006FFAD06B
S21400155014F4806F08BF4FF0FF3434D04FEA845441
S2140015604FEA9454ECB14FF000052B464CF20007BE
S214001570C5F2000713F0030F08BFD7F818529342BE
S214001580ACBF0026012600290CBF002606F0010687
S21400159006B1CD5403F10103A34202D04FEA15254C
S2140015A0E8E74CF20003C5F200034FF00002C3F870
S2140015B028224FEAD01040EA4C00FFF79DFE4FF07D
S2140015C0F200FFF799FE2046F8BD00BF08B5011EE1
S2140015D018BF01214FF0D800FFF7A2FE08BD00BFDC
S2140015E02DE9F0414CF20003C5F20003D3F80042A7
S2140015F014F0010F12D04CF20003C5F200034FF0B6
S2140016000102C3F8082240F2E063C1F200035D6CF9
S21400161025B14FF0F500FFF797FEA84714F0080F26
S21400162017D04CF20003C5F200034FF00802C3F8CF
S21400163008224FF0FE00FFF787FE10F01A0F08D0C2
S21400164040F2E063C1F200031B6C13B100F015001A
S214001650984714F0040F33D04CF20003C5F2000391
S2140016604FF00402C3F808224FF000044FF00106C2
S2140016701D464FF0200840F2E067C1F2000706FA68
S21400168004F3D5F83022134216D0C5F83832404657
S214001690FFF720FED5F8141204EBD4734FEA630369
S2140016A057F8233043B1C4F3430040EAC41000F0B7
S2140016B08F0001F01F01984704F10104202CDED1B1
S2140016C0BDE8F08108B54CF20003C4F202031A69C3
S2140016D022F440221A611A6942F480221A61DA68FA
S2140016E022F0405222F03002DA60DA6842F000520D
S2140016F042F01002DA605A6822F070525A605A6855
S21400170042F0A0525A604CF20003C4F20F03D3F822
S214001710C42042F00042C3F8C4204CF20003C5F2D5
S21400172000034FF01202C3F8F42F1A46D2F8F83F1F
S21400173003F01203122BF9D14CF20003C5F200039A
S2140017404FF00000C3F804024FF0FF32C3F808223F
S214001750C3F82C02C3F83402C3F83822C3F8400298
S214001760FFF780FE4FF0010008BD00BF704700BFC6
S21400177010B5FFF7A7FF41F26D70C0F20000FFF74B
S2140017803FFE41F2B914C0F200044FF000002146BB
S214001790FFF714FE4FF080002146FFF70FFE4FF0D4
S2140017A000004FF04001FFF7E5FD4FF080004FF0DE
S2140017B04001FFF7DFFD4FF0000041F64501C0F2A3
S2140017C0000140F22872C1F20002FFF7CBFC4FF096
S2140017D0010010BD40F23073C1F20003186070477C
S2140017E070B44FEA1024C6B240F23071C1F2000164
S2140017F009680878D8B14FF0000591F801C0A445F3
S21400180011D1AE420DD11960022C01BFC8788B7879
S21400181043EA002313600FBF01200B7813600120FA
S21400182007E005F10105014408780028E5D14FF0EE
S214001830000070BC704700BF40F23073C1F2000376
S214001840586070472DE9F04104460E46154640F2B2
S2140018503073C1F200035B6823B1984710B14FF0B4
S2140018600100CBE0237803F01F03012B77D0022B77
S21400187000F0978013B14FF00000BFE02A6863784D
S214001880092B06D8DFE803F008050505051218053C
S2140018901F294FF00000B1E04FF0000313705370A3
S2140018A04FF0020333604FF00100A7E0A078FFF787
S2140018B0C7FD4FF00100A1E06088A18832462B46A4
S2140018C0FFF78EFF9AE040F23073C1F200031B7AF6
S2140018D013704FF00100306090E094F80280B8F189
S2140018E0000F04D14FF00000FFF770FE2EE040F22C
S2140018F03073C1F200031D682B781BB34FF0FF0650
S21400190037466B78042B08BFEE7816D0052B03D02D
S214001910022B08BF6F7910E0D6F1010338BF002311
S214001920B84514BF002303F0010333B169792B795E
S214001930A87843EA0121FFF71DFD2B781D442B787C
S214001940002BDED14FF00100FFF740FE40F230736F
S214001950C1F2000362881A724FF001004EE02A6856
S214001960637823B10A2B0CD00B2B17D110E04FF065
S2140019700003137053704FF0020333604FF0010002
S2140019803CE04FF0000313704FF00100306035E08C
S21400199063881BB933604FF001002FE04FF0000062
S2140019A02CE02D686378012B12D013B1032B23D1C2
S2140019B018E02079FFF75EFDC0F3400028704FF076
S2140019C000036B704FF0020333604FF0010015E028
S2140019D063888BB920794FF00001FFF755FD4FF073
S2140019E001000BE063883BB920794FF00101FFF757
S2140019F04BFD4FF0010001E04FF00000BDE8F08124
S214001A0000F1080343604FF0FF328260C360036159
S214001A104FF00003036070474FF000030361704708
S214001A2043685A684A6042688A605A68916059609A
S214001A3041600861036803F101030360704700BF5B
S214001A4010B40C68B4F1FF3F08BF03690AD000F178
S214001A5008035A681268944204D35B685A6812688E
S214001A609442FAD25A684A6091608B605960086165
S214001A70036803F10103036010BC70474368826883
S214001A809A608268536003695A68824204BF82681B
S214001A905A604FF0000202611A6802F1FF321A60C3
S214001AA0704700BF806B7047806BD0F1010038BF75
S214001AB000207047826BC36B9A4214BF002001203F
S214001AC0704700BF10B445F63823C1F200031B6808
S214001AD043B14FF0010345F63824C1F2000454F830
S214001AE033204AB945F63822C1F2000242F83310D4
S214001AF002EBC303586003E003F101030A2BEED1A7
S214001B0010BC704710B5044645F63823C1F20003F2
S214001B105B68984208BF00230AD04FF0010345F6E1
S214001B203821C1F2000101EBC3025268944208D189
S214001B3045F63822C1F200024FF0000142F8331099
S214001B4003E003F101030A2BEDD1206801F0ACFAA3
S214001B50204601F0A9FA10BD10B5044601F068FB56
S214001B60A46B01F073FB204610BD00BF08B503460A
S214001B7002686AB1C0681A6C0244DA605868824229
S214001B8024BF1A68DA600846D9681A6C10F0DCFFC1
S214001B9008BD00BF38B5044615464FF0280080F350
S214001BA01188A36BDBB12046FFF7E0FFA36B03F1C0
S214001BB0FF33A363636CB3F1FF3F1EBF013363645F
S214001BC001230CD1236943B104F1100000F010FB8F
S214001BD018B14FF001032B6001E04FF001034FF006
S214001BE0000080F31188184638BD00BF38B504469B
S214001BF001F01EFBA36C002B12DD636A83B104F1B7
S214001C00240501E0636A5BB1284600F0F1FA08B1EA
S214001C1000F054FAA36C03F1FF33A364002BF1DC4D
S214001C204FF0FF33A36401F011FB01F001FB636C7E
S214001C30002B12DD236983B104F1100501E023694E
S214001C405BB1284600F0D4FA08B100F037FA636CAE
S214001C5003F1FF336364002BF1DC4FF0FF33636462
S214001C6001F0F4FA38BD00BF2DE9F04F87B0044606
S214001C7001910392029300F1240A4FF0000604AF8C
S214001C804FF0010BB1460DF10C0801F0D1FAA36B31
S214001C9043B3E56820460199FFF768FF029B9BB9AE
S214001CA0A36B03F1FF33A363236813B900F02CFA88
S214001CB0606023698BB104F1100000F099FA0128E6
S214001CC00BD101F0ADFA08E0E560636A2BB150462F
S214001CD000F08EFA08B101F0A3FA01F0B7FA4FF05F
S214001CE001004EE0039B23B901F0B0FA4FF000006C
S214001CF047E01EB9384600F0D7F95E4601F0A6FA6E
S214001D0000F0C2F901F094FA636CB3F1FF3F08BF2C
S214001D10C4F84490A36CB3F1FF3F08BFC4F84890E2
S214001D2001F094FA3846414600F0E4FA10BB01F0A0
S214001D307FFAA56B01F08AFAB5B9236833B901F0CA
S214001D4077FA606800F00EFA01F080FA50460399C0
S214001D5000F054FB2046FFF749FF00F059FD00282D
S214001D6093D101F05DFA90E72046FFF73FFF00F0C1
S214001D704FFD8AE72046FFF739FF00F049FD4FF098
S214001D80000007B0BDE8F08F70B504460E46456803
S214001D9000F0BAF9854206D1E36803F10103E36077
S214001DA04FF001000BE020464FF0000132460B4694
S214001DB0FFF75AFF012802BFE3680133E36070BDF6
S214001DC010B50446036C4BB90368002B26D1406857
S214001DD000F0A0F94FF0000363601FE06AB9806866
S214001DE01A4610F0B1FEA268236C1344A360626822
S214001DF0934213D32368A36010E0C0681A4610F01D
S214001E00A3FE236CE268C3EB0203E36022689342FE
S214001E103FBF236C6268C3EB0203E360A36B03F16E
S214001E200103A36310BD00BF38B5044615464FF046
S214001E30280080F31188A06BE26B904228BF002335
S214001E4018D220461A46FFF7BBFFA36CB3F1FF3F3C
S214001E501EBF0133A36401230CD1636A43B104F1AE
S214001E60240000F0C5F918B14FF001032B6001E023
S214001E704FF001034FF0000080F31188184638BD7C
S214001E802DE9F04F87B0044601910392029300F1CA
S214001E90100B4FF000070DF11008B9460DF10C0AB3
S214001EA001F0C6F9A26BE36B9A4213D22046019961
S214001EB0029AFFF785FF636A3BB104F1240000F045
S214001EC097F9012801D101F0ABF901F0BFF94FF005
S214001ED0010048E0039B23B901F0B8F94FF0000079
S214001EE041E027B9404600F0DFF84FF0010701F067
S214001EF0ADF900F0C9F801F09BF9636CB3F1FF3F50
S214001F0008BFC4F84490A36CB3F1FF3F08BFC4F801
S214001F10489001F09BF94046514600F0EBF9D8B9DD
S214001F2001F086F9A66BE56B01F090F9AE420DD193
S214001F305846039900F062FA2046FFF757FE00F075
S214001F4067FC0028ACD101F06BF9A9E72046FFF743
S214001F504DFE00F05DFCA3E72046FFF747FE00F0CD
S214001F6057FC4FF0000007B0BDE8F08F38B50446C8
S214001F70456800F0C9F8854218BF002010D1E36814
S214001F8003F1FF33E36013B14FF0010008E0204691
S214001F904FF000010A460B46FFF772FF4FF00100B4
S214001FA038BD00BF38B54FF04C0001F09BF8044632
S214001FB0E0B14FF00005456005608560C56085634B
S214001FC04FF00103C36305644FF0FF33436483643B
S214001FD000F11000FFF714FD04F12400FFF710FDD8
S214001FE0204629462A462B46FFF74AFF204638BD9C
S214001FF0F8B50D46064610B94FF000042CE04FF039
S2140020004C0001F06FF8044630B306FB05F707F105
S214002010010001F067F82060C8B1074467604FF020
S2140020200003A363A06006F1FF3305FB0300E06036
S214002030E66325644FF0FF336364A36404F1100085
S214002040FFF7DEFC04F12400FFF7DAFC04E020468C
S21400205001F02AF84FF000042046F8BD40F23C7329
S214002060C1F2000342699A4208D1806A054B984241
S21400207004D0D0F1010038BF002001E04FF000008E
S214002080704700BF5007001040F23C73C1F20003D7
S2140020909A6A02F101029A62704700BF40F23C73EE
S2140020A0C1F20003D86A704740F23C73C1F20003E5
S2140020B01A6B02605B6B4360704700BF40F23C7374
S2140020C0C1F200034FF001029A6370470378A52B14
S2140020D018BF002308D14FF0000303F101039BB2A1
S2140020E010F8012FA52AF8D04FEA9300704700BFDA
S2140020F008B5034620B940F23C73C1F20003DB6B1F
S214002100186BFFF7E3FF08BD40F23C73C1F2000313
S214002110D86B704738B5044608B3C26A436C9A4217
S2140021201DD000F104052846FFF7A8FC606CE062AD
S214002130C0F10503A36140F23C73C1F200031B6CBF
S214002140984282BF40F23C73C1F20003186400EB71
S2140021508000034B03EB80002946FFF761FC38BD87
S2140021608007001038B5044640F23C73C1F2000305
S214002170DB6BC26ADB6A9A4236D240F23C73C1F22B
S2140021800003DA6BD26AC2F10502826103F14403EE
S214002190C26A02EB820203EB8202436993421CD1BD
S2140021A000F104052846FFF769FC40F23C72C1F2D4
S2140021B00002D36BDB6AE362126C934282BF40F28A
S2140021C03C72C1F20002136403EB8303074A02EB7E
S2140021D083002946FFF724FC06E040F23C73C1F278
S2140021E00003DB6BDB6AC36238BD00BF80070010EC
S2140021F038B5036813B94FF0000401E0C368DC6823
S21400220004F118052846FFF739FC40F23C73C1F28A
S21400221000039B6AD3B904F104052846FFF72EFC99
S214002220E06A40F23C73C1F200031B6C984282BF26
S21400223040F23C73C1F20003186400EB80000B4BC5
S21400224003EB80002946FFF7EBFB03E0084829462E
S214002250FFF7E6FB40F23C73C1F20003DB6BE06A7B
S214002260DB6A984234BF0020012038BD800700108A
S214002270500700102DE9F0410446FFF7EFFE012855
S21400228018BF00272ED140F23C73C1F200039B6AB0
S2140022900BBBE76A40F23C75C1F20005EB6BD3F866
S2140022A02C8004F104063046FFF7E8FBE06A2B6C4E
S2140022B0984282BF40F23C732B461864474534BFB1
S2140022C00027012700EB8000084B03EB8000314617
S2140022D0FFF7A6FB06E0064804F11801FFF7A0FB8F
S2140022E04FF000073846BDE8F08100BF80070010B9
S2140022F05007001038B504460D4600F099FF2A68CE
S214002300B2F1FF3F08BF00242AD040F23C73C1F26E
S21400231000031B6B2168994207D040F23C73C1F260
S21400232000035B6B6168994218D940F23C73C1F2B6
S2140023300003596B6368C3EB01018A420ED940F271
S2140023403C71C1F20001496BC1EB03031A442A60D9
S2140023502046FFF7A9FE4FF0000401E04FF001040D
S21400236000F074FF204638BD10B500F061FF40F263
S2140023703C74C1F200044FF00003C4F8A83000F02B
S21400238065FFD4F8AC00D4F8B030C3EB000010BD45
S21400239038B504460D4600F04BFF40F23C73C1F2E0
S2140023A00003C3F8AC40C3F8B040A5F108052C44C0
S2140023B0C3F8B4404FF00102C3F8A82000F046FF6F
S2140023C038BD00BF10B500F033FF40F23C73C1F2D9
S2140023D000035C6B00F03AFF204610BD10B50446C3
S2140023E000F026FF24B940F23C73C1F20003DC6B18
S2140023F0E46A00F02BFF204610BD00BF38B50D463E
S21400240040F23C74C1F20004E16B01F11801FFF7E1
S21400241017FBE06B00F10400FFF730FBB5F1FF3F60
S21400242006D12046E16B01F10401FFF7F9FA21E03D
S21400243040F23C73C1F200035A6B1544DA6B5560E8
S2140024405B6B9D420BD240F23C73C1F20003D3F8A3
S214002450B800D96B01F10401FFF7F2FA0AE040F286
S2140024603C73C1F20003D3F8BC00D96B01F1040140
S214002470FFF7E6FA38BD00BF08B540F23C73C1F27C
S21400248000039B6A3BB140F23C73C1F200034FF07D
S21400249001029A63BAE044F20003C4F200039A68A9
S2140024A040F23C73C1F20003D96B886C02EB000C5F
S2140024B0D3F8C000C0EB0C008864C3F8C020DA6B09
S2140024C0DB6B12681B6B9A4209D840F23C73C1F270
S2140024D00003D86BD96B01F13401FDF76FFE40F2B3
S2140024E03C73C1F20003DB6B186B46F6C811C0F2F2
S2140024F001014FF0140210F0F5FA48B140F23C73B7
S214002500C1F20003D86BD96B01F13401FDF756FE1A
S21400251040F23C73C1F200031A6C03F1440302EB71
S214002520820203EB82031B688BB940F23C73C1F254
S214002530000303F144011A6C02F1FF321A641A6CAC
S21400254002EB820201EB82021268002AF3D040F20C
S2140025503C72C1F20002116C02F1440201EB8101EF
S21400256002EB81035A6852685A6003F108018A42F6
S21400257004BF52685A605B68DA6840F23C73C1F286
S2140025800003DA63D3F8A830002B3FD040F23C7348
S214002590C1F20003DA6B40F21403C1F20003126CBE
S2140025A01B689A4232D040F23C73C1F20003D3F863
S2140025B0AC2002F10802D3F8B4309A421ED240F2A0
S2140025C03C73C1F20003DA6B116C40F21402C1F2E4
S2140025D000021160D3F8AC20586B1060D3F8AC2022
S2140025E002F10402C3F8AC20D3F8AC201160D3F893
S2140025F0AC2002F10402C3F8AC2007E040F23C73C2
S214002600C1F200034FF00002C3F8A82008BD00BFC7
S214002610F8B540F23C73C1F200039B6A002B47D129
S21400262040F23C73C1F200035A6B02F101025A6396
S2140026305B6B63BB40F23C73C1F20003D3F8BC2073
S214002640D3F8B810C3F8BC10C3F8B8201A6B02F160
S21400265001021A631BE06B6B62689A4234D804F17D
S21400266004063046FFF70AFAA36A1BB104F1180005
S214002670FFF704FAE06A2B6C984288BF286400EBE8
S214002680800007EB80003146FFF7CAF905E040F20C
S2140026903C75C1F2000505F14407D5F8BC301B684F
S2140026A093B1D5F8BC30DB68DC68002CD3D10BE0E6
S2140026B040F23C73C1F20003D3F8C42002F10102D9
S2140026C0C3F8C420FDF788FD40F23C73C1F2000356
S2140026D0D3F8C4300BB9FDF77FFDF8BD2DE9F04FF8
S2140026E085B081460C4616464B685B684B6001F128
S2140026F00802934204BF5B684B604B68DF6801F1D9
S2140027000808DFF888A046F6FC1BC0F2010B46F668
S214002710EC13C0F20103029346F6DC13C0F2010389
S214002720039363685B686360434504BF5B686360EC
S2140027306368DD6826B3AB6C33B95046039905F180
S2140027403402FEF729F917E0AA6C4FF0640303FB86
S21400275002F2B2FBF6F242B1AB6C0092504602991E
S21400276005F13402FEF718F906E0AB6C5046594600
S21400277005F13402FEF710F94846514610F016FBF4
S214002780BD42CED105B0BDE8F08F00BF04080010F2
S2140027902DE9F04F85B082460D4690464B685B6843
S2140027A04B6001F10802934204BF5B684B604B68C4
S2140027B0D3F80C9001F1080B40F23C76C1F200060B
S2140027C006F1FC0646F60C27C0F201076B685B684C
S2140027D06B605B4504BF5B686B606B68DC68206B96
S2140027E0FFF774FCE26A236C009201900293304675
S2140027F0394604F134024346FEF7CEF850463146D9
S21400280010F0D4FA4C45E1D105B0BDE8F08F00BF1A
S2140028102DE9F04100F00CFD40F23C73C1F20003DC
S2140028209A6A02F1FF329A629B6A002B64D140F2E8
S2140028303C73C1F20003DB6A002B5DD04FF000074B
S21400284040F23C75C1F2000505F144081AE004F1B7
S2140028501800FFF713F904F104063046FFF70EF9E7
S214002860E06A2B6C984288BF286400EB800008EB77
S21400287080003146FFF7D4F8EB6BE26ADB6A9A42D7
S21400288028BF01276B691BB12B6ADC68002CDED1E0
S21400289040F23C73C1F20003D3F8C430BBB140F23F
S2140028A03C73C1F20003D3F8C430CBB140F23C74A1
S2140028B0C1F20004FFF7ACFED4F8C43003F1FF33D6
S2140028C0C4F8C430D4F8C430002BF3D108E0012F8C
S2140028D006D040F23C73C1F200039B6B012B0BD178
S2140028E040F23C73C1F200034FF000029A6300F01E
S2140028F097FC4FF0010401E04FF0000400F0A6FC46
S2140029002046BDE8F08100BFF8B5064644F2000355
S214002910C4F200039F68FFF7B7FB4FF00003337065
S214002920304646F60821C0F2010110F03FFA40F2A8
S2140029303C73C1F20003D3F8305105F1010505EBF5
S214002940850403EB840404F1300405F1FF352146C9
S21400295023681BB130463A46FFF7C0FEA4F11404C4
S214002960002DF2D140F23C73C1F20003D3F8BC3024
S2140029701B684BB140F23C73C1F20003D3F8BC10A5
S21400298030463A46FFF7AAFE40F23C73C1F2000317
S214002990D3F8B8301B684BB140F23C73C1F2000369
S2140029A0D3F8B81030463A46FFF798FE40F23C732C
S2140029B0C1F20003D3F8343123B130460A493A460F
S2140029C0FFF78CFE40F23C73C1F200031B683BB17C
S2140029D0304640F23C71C1F200013A46FFF77EFEF7
S2140029E0FFF716FFF8BD00BF70080010F8B50646E2
S2140029F0FFF74AFB4FF000033370304646F60821D7
S214002A00C0F2010110F0D2F940F23C73C1F20003AB
S214002A10D3F8305105F1010505EB850403EB84047A
S214002A2004F130044FF0520705F1FF3521462368C4
S214002A301BB130463A46FFF7ABFEA4F11404002D56
S214002A40F2D140F23C73C1F20003D3F8BC301B68ED
S214002A5053B140F23C73C1F20003D3F8BC103046C9
S214002A604FF04202FFF794FE40F23C73C1F20003BF
S214002A70D3F8B8301B6853B140F23C73C1F2000380
S214002A80D3F8B81030464FF04202FFF781FE40F20E
S214002A903C73C1F20003D3F834312BB130460B49F6
S214002AA04FF04402FFF774FE40F23C73C1F200039D
S214002AB01B6843B1304640F23C71C1F200014FF052
S214002AC05302FFF765FEFFF7A3FEF8BD700800107F
S214002AD070B50446002835D040F23C73C1F20003BE
S214002AE0DB6B98422ED000F0A3FB2046FFF7B6FA29
S214002AF0012825D104F104063046FEF7BFFFE36A3D
S214002B0040F23C72C1F20002126C934282BF40F265
S214002B103C72C1F20002136440F23C75C1F200053B
S214002B2005F1440203EB830302EB83003146FEF714
S214002B3077FFEB6BE26ADB6A9A4201D300F070FB28
S214002B4000F084FB70BD00BF70B5044600F070FB5B
S214002B5040F23C73C1F20003DB6B9C4208BF0024CA
S214002B6000D02CB940F23C73C1F20003DD6B00E0EC
S214002B70254605F104063046FEF780FFAB6A1BB11A
S214002B8005F11800FEF77AFF40F23C70C1F2000033
S214002B903146FEF745FF00F059FB0CB900F040FB4C
S214002BA070BD00BF70B50546042934BF0E46042626
S214002BB000F03EFB40F23C73C1F20003DB6B9D422B
S214002BC008BF002500D02DB940F23C73C1F20003C7
S214002BD0DC6B00E02C46636CB34235D003D2003D7C
S214002BE018BF012503E0D5F1010538BF0025E26ACC
S214002BF0934208BFE6626664C6F10506A66103EB6B
S214002C008303134A02EB830362699A4219D104F1E3
S214002C1004063046FEF732FFE36A40F23C72C1F229
S214002C200002126C934282BF40F23C72C1F2000274
S214002C30136403EB8303064A02EB83003146FEF778
S214002C40EFFE0DB100F0ECFA00F000FB70BD00BF27
S214002C508007001038B5054638B3FFF715FA40F27E
S214002C603C74C1F20004636B1D44E06B00F1040089
S214002C70FEF704FFE36B5D60636B9D4207D2D4F8FA
S214002C80B800E16B01F10401FEF7DAFE0AE040F25B
S214002C903C73C1F20003D3F8BC00D96B01F1040108
S214002CA0FEF7CEFEFFF7B4FD08B900F0B9FA38BD5E
S214002CB038B505460C46FFF7E7F92B681C4440F28A
S214002CC03C72C1F20002526B93420AD9A3423BD92E
S214002CD040F23C73C1F200035B6B2C609C422BD924
S214002CE009E0A3422ED840F23C73C1F200035B6BAE
S214002CF09C4227D828E040F23C75C1F20005E86BFC
S214002D0000F10400FEF7BAFEEB6B5C606B6B9C4256
S214002D1007D2D5F8B800E96B01F10401FEF790FE82
S214002D200AE040F23C73C1F20003D3F8BC00D96B52
S214002D3001F10401FEF784FEFFF76AFD30B900F0EA
S214002D406FFA03E02C60D6E72C60F5E738BD00BFCD
S214002D5070B5054600F06CFA40F23C73C1F2000311
S214002D60DB6B9D4208BF002500D02DB940F23C73B6
S214002D70C1F20003DC6B00E02C4604F1040630468A
S214002D80FEF77CFEA36A1BB104F11800FEF776FE80
S214002D9040F23C74C1F2000404F59A703146FEF726
S214002DA03FFED4F8483103F10103C4F84831D4F8A3
S214002DB04C3103F10103C4F84C3100F047FAD4F863
S214002DC0503113B10DB900F02BFA70BD08B54FF0B5
S214002DD0280080F3118840F23C73C1F200034FF0E4
S214002DE00002C3F8502100F019FA08BD70B540F291
S214002DF03C74C1F200044FF00006D4F84831002BB2
S214002E00FBD0FFF741F9D4F83451FFF701FD002D50
S214002E10F3D000F00DFAD4F834310BB9354602E0A1
S214002E20D4F84031DD6805F10400FEF727FEE36ABA
S214002E3003F1FF33E362D4F8483103F1FF33C4F8FB
S214002E40483100F003FA286B00F02EF9284600F00F
S214002E502BF9D2E72DE9F84F81460F4614469A46DD
S214002E60DDF828B00C9D4FF04C0000F03BF906460C
S214002E7010B94FF0FF30DCE0002D40F0DC804FEA68
S214002E80840000F02FF90546306328B9304600F07C
S214002E900BF94FF0FF30CCE028464FF0A5014FEA83
S214002EA084020FF019FF04F1FF38336B03EB880838
S214002EB028F0070806F1340039464FF00C0210F0EF
S214002EC0CBF94FF0000586F83F50BBF1040F34BF36
S214002ED05C460424F462746406F104073846FEF780
S214002EE09BFD06F11800FEF797FD3661C4F1050458
S214002EF0B4617662B56440464946524600F064F9CD
S214002F00306000F095F940F23C73C1F20003DA6AD3
S214002F1002F10102DA62DB6A012B2DD140F23C7528
S214002F20C1F20005EE6305F1440405F1A80520464C
S214002F30FEF766FD04F11404AC42F8D140F23C758D
S214002F40C1F2000505F5AA784046FEF759FD05F5DD
S214002F50B4742046FEF754FD05F11400FEF750FD4C
S214002F6005F59A70FEF74CFD2846FEF749FDC5F8B4
S214002F70BC80C5F8B84013E040F23C73C1F20003D1
S214002F80D3F8503163B940F23C73C1F20003DB6BF7
S214002F90DB6A9B4522BF40F23C73C1F20003DE634E
S214002FA0F26A40F23C73C1F20003D3F830319A4221
S214002FB082BF40F23C73C1F20003C3F8302140F2F6
S214002FC03C73C1F20003D3F84C213264D3F84C2191
S214002FD002F10102C3F84C21F26A1B6C9A4282BFCE
S214002FE040F23C73C1F200031A64F06A00EB800002
S214002FF0124B03EB80003946FEF712FD00F026F96F
S2140030000B9B03B11E6040F23C73C1F20003D3F881
S214003010503163B140F23C73C1F20003DB6BDB6AF4
S2140030209B4504D900F0FCF84FF0010001E04FF09A
S2140030300100BDE8F88F05632EE700BF800700108B
S21400304000B585B04FF000030093019302930393FD
S21400305042F6ED50C0F2000046F62021C0F2010113
S2140030604FF05002FFF7F6FE012812D14FF028006D
S21400307080F3118840F23C73C1F200034FF0010266
S214003080C3F850214FF000025A63FDF773F800F0C2
S21400309009F905B000BD00BF40F6B803C1F2000351
S2140030A018687047704700BF38B50446B8B1A0F13D
S2140030B01004FEF7E9FF6568094B1A6818461346C0
S2140030C051688D42F9D82260046040F6B803C1F218
S2140030D00003196862680A441A60FFF799FB38BD56
S2140030E0BC080010F8B50446FEF7CEFF40F6B8035D
S2140030F0C1F20003DB68DBB940F6B803C1F2000397
S21400310003F1100058604FF000059D6044F69842A9
S214003110C1F200024FF49441C2F83416C2F8305699
S214003120416002F5C662026019604FF00102DA6083
S214003130002C3FD004F1100414F0070F1CBF24F03D
S2140031400704083404F1FF3244F6FE139A4231D8DD
S21400315040F6B801C1F2000151F8043F5A689442A3
S21400316004D91A6812B119461346F7E7144A93426F
S21400317020D00F681A680A605A68C4EB0202202A38
S2140031800DD903EB040672605C6075680D4B1A6817
S2140031901846134651688D42F9D83260066007F12A
S2140031A0100540F6B803C1F200031A68C4EB020427
S2140031B01C6001E04FF00005FFF72AFB2846F8BD2B
S2140031C0C8520010BC080010A0F104004FF0807335
S2140031D040F80439034643F804194FF0000119601B
S2140031E040F8182CA0F13800704700BF064B19684D
S2140031F00868B0E8F00F80F309884FF0000080F30D
S21400320011884EF00D0E70477807001002480068CF
S214003210006880F3088800DF08ED00E0704700BF14
S2140032204EF60453CEF200034FF080521A607047F9
S2140032304FF0280080F3118840F21803C1F2000313
S2140032401A6802F101021A60704700BF40F21803C4
S214003250C1F200031A6802F1FF321A601AB94FF081
S214003260000080F311887047EFF309800C4B1A6852
S21400327020E9F00F10602DE908404FF0280080F399
S2140032801188FFF7F9F84FF0000080F31188BDE8C9
S214003290084019680868B0E8F00F80F3098870479E
S2140032A07807001010B54EF62053CEF200031A68C9
S2140032B042F478021A601A6842F078421A604EF2B7
S2140032C01403CEF2000348F2B722C0F201021A60DD
S2140032D04EF21003CEF200034FF007021A6040F2DF
S2140032E01803C1F200034FF000041C60FFF78EFFC6
S2140032F0204610BD08B54EF60453CEF200034FF03C
S21400330080521A604FF0280080F31188FFF780F98A
S2140033104FF0000080F3118808BD00BF70B44FF076
S214003320000213464FF0010045F2D021C1F2000121
S21400333001F1080401F1180C31F81350A65E2DB205
S214003340AE4208BF002031F81350A55201EB4305EA
S2140033502D8A3CF902602DB2AE4208BF002001EB78
S21400336043052D8A2CF8025003F1010302F10202F4
S214003370032BE1D170BC70472DE9F04F85B0834632
S2140033804FF00C00FFF7AEFE06464FF001004FF080
S2140033900201FEF72DFE30604FF47A79C6F80490ED
S2140033A045F2D025C1F20005B5604FF00C00FFF7DE
S2140033B099FE0746336803604FF00004446005F149
S2140033C01003836043F2455AC0F2000ACDF800B0FD
S2140033D0019402940394504646F62C21C0F2010153
S2140033E04FF050023346FFF735FD43F2F948C0F27E
S2140033F000080094019402940394404646F6342153
S214003400C0F201014FF050023B46FFF723FD4FF09C
S2140034100C00FFF767FE06464FF001004FF0020172
S214003420FEF7E6FD3060746005F11203B3604FF0FE
S2140034300C00FFF757FE074633680360C0F8049099
S21400344005F10203836000940194029403945046AD
S21400345046F63C21C0F201014FF050023346FFF71A
S214003460F9FCCDF800B0019402940394404646F669
S2140034704421C0F201014FF050023B46FFF7EAFC40
S2140034804FF00C00FFF72EFE06464FF005004FF0FB
S2140034900201FEF7ADFD3060C6F8049005F1140396
S2140034A0B3604FF00C00FFF71DFE0746336803605D
S2140034B0C0F8049005F10405856000940194029418
S2140034C00394404646F64C21C0F201014FF05002EC
S2140034D03346FFF7BFFC00940194029403945046D1
S2140034E046F65421C0F201014FF050023B46FFF76A
S2140034F0B1FC05B0BDE8F08F2DE9F04182B04FF089
S214003500000602AD25F8026D044637464FF0010866
S2140035102068294662683B46FEF7B2FC012818BFC1
S2140035204646F5D1B3B22BB9A3681A8802F1010258
S21400353092B21A80BDF8063003F10103ADF80630EA
S214003540E6E700BF2DE9F04583B004464FF00008DB
S21400355047460DF1060546464FF0010A2068294603
S21400356062683346FEF780FB0128F7D1BDF80630C7
S2140035709F421CBF1F46D046F0D11FFA88F32BB9D6
S214003580A3681A8802F1010292B21A8007F10107B5
S214003590BFB2E3E745F2F023C1F200031A685B68A6
S2140035A0934201BF45F2F023C1F2000301229A6064
S2140035B045F2F023C1F20003DA681B69934201BFAB
S2140035C045F2F023C1F2000301229A6045F2F0238F
S2140035D0C1F200031A685A60DA681A619868D0F176
S2140035E0010038BF0020704770B584B004464FF025
S2140035F005004FF00401FEF7FBFC054646F65C218D
S214003600C0F20101FEF75EFA00944FF00004019448
S2140036100294039443F2CD70C0F2000046F66C218B
S214003620C0F201014FF050022B46FFF713FCFEF7E5
S214003630B9FC064646F67421C0F20101FEF742FACE
S214003640009401940294039443F23170C0F2000097
S21400365046F68421C0F201014FF050023346FFF7D0
S214003660F9FB4FF00203009345F2F025C1F2000586
S21400367005F1140301930294039443F2C560C0F26B
S214003680000046F68C21C0F201014FF0500223469E
S214003690FFF7E0FB4FF00303009305F118050195D3
S2140036A00294039443F2E560C0F2000046F69421CB
S2140036B0C0F201014FF050023346FFF7CBFB04B0D7
S2140036C070BD00BF38B54FF0000545F2F024C1F2DA
S2140036D000042846FFF738FAE36903F10103E361C3
S2140036E0F7E700BF2DE9F04106464FF000044FF023
S2140036F0FF3745F2F025C1F200054FF001082046DD
S214003700FFF722FA304621463A462346FEF7ACFA41
S214003710012818BFC5F808803046214622462346B1
S214003720FEF7AEFB012818BFC5F80880E7E700BF24
S214003730F8B507464FF0000545F2F024C1F2000444
S2140037404FF00106384629462A462B46FEF78CFAE5
S214003750012818BFA660E5612846FEF73FFE00B1C7
S214003760A660A069FFF7B4F92846FEF737FE0328DF
S21400377018BFA66028463146FFF714FA2846FEF71B
S2140037802DFE032818BFA6606069FFF7A1F9E3695C
S21400379003B1A660384629462A462B46FEF770FB3C
S2140037A0012818BFA660E369012B18BFA66028464B
S2140037B0FEF714FE012818BFA66028462946FFF724
S2140037C0F1F9E36803F10103E360BBE72DE9F04F8D
S2140037D083B0044645F2F025C1F200050DF1040859
S2140037E06F464FF00A094FF00B0B204629464FF064
S2140037F000024FF00103FEF743FB2046FEF7ACF94C
S21400380001281CBF0123AB60204641464FF0000252
S2140038101346FEF729FA01281CBF0123AB602A686D
S214003820019B9A421CBF0123AB602046FEF794F929
S21400383010B14FF00103AB60204629464FF000025E
S2140038401346FEF71DFB2046FEF786F901281CBF2F
S2140038500123AB60204641464FF000021346FEF7B8
S21400386003FA01281CBF0123AB602046FEF774F95B
S21400387010B14FF00103AB602A68019B9A4207BF64
S214003880022301930123AB601CBF022301934FF078
S21400389000062046414632463346FEF7F1FA019BC3
S2140038A003F101030193042BF3D92046FEF754F9E4
S2140038B003281CBF0123AB604FF00106019620468B
S2140038C041464FF000023346FEF7DAFA4FF00002A8
S2140038D00192204641463346FEF7D2FA2046FEF7CE
S2140038E03BF905281CBF3346AB60204641464FF0E7
S2140038F000024FF00103FEF7C3FA10B14FF00103C8
S214003900AB60204641464FF000021346FEF7B8FA79
S214003910002800F0B5804FF00103AB604FF00003C5
S21400392001934FF0000A4FF00106204639465246F2
S2140039303346FEF799F9012818BFAE60009B019A3E
S2140039409A4218BFAE606FEA0303009320463946DA
S21400395052465346FEF788F9012818BFAE60009B12
S214003960019A9A4218BFAE60019B03F101030193CE
S214003970042BDAD92046FEF7EFF810B14FF001031A
S214003980AB60CDF80490204641464FF00002134647
S214003990FEF776FA01281CBF0123AB60CDF804B011
S2140039A0204641464FF000021346FEF769FA01280A
S2140039B01CBF0123AB602046FEF7CEF8022807BFE7
S2140039C0092301930123AB601CBF092301934FF029
S2140039D0000A4FF001062046414652463346FEF79F
S2140039E04FFA012818BFAE60019B03F1FF33019325
S2140039F0062BF0D82046FEF7AFF805281CBF01239B
S214003A00AB60204641464FF000024FF00103FEF740
S214003A1037FA10B14FF00103AB60204641464FF035
S214003A2000021346FEF72CFA00282DD04FF00103B3
S214003A30AB604FF0070301934FF0000A4FF001060A
S214003A402046394652465346FEF70EF9012818BF5F
S214003A50AE60009B019A9A4218BFAE60019B03F1CC
S214003A60010301930B2BEBD92046FEF775F810B136
S214003A704FF00103AB602B6803F101032B60B4E643
S214003A804FF0000301934CE74FF007030193D3E791
S214003A9045F21033C1F200031B6813B94FF0000063
S214003AA007E045F21033C1F200035868003818BF2B
S214003AB0012045F21033C1F200034FF000021A60F5
S214003AC05A60704770B584B006464FF00A004FF053
S214003AD00201FEF78DFA45F21034C1F2000444F8F4
S214003AE0080F46F69C21C0F20101FDF7EBFF009699
S214003AF04FF0000501950295039543F6B530C0F2E8
S214003B00000046F6AC21C0F201014FF050022346F9
S214003B10FFF7A0F9009601950295039543F63D3010
S214003B20C0F2000046F6B421C0F201014FF0500288
S214003B302346FFF78FF904B070BD00BF2DE9F04FA4
S214003B4083B080464FF0000402AF27F8024DA2462D
S214003B50254645F2103BC1F2000B4FF001094FF02D
S214003B60C8061FE0D8F8000039462A462B46FEF75E
S214003B7087F9012818BFCA4612D1BAF1000F09D139
S214003B80FFF756FBDBF8043003F10103CBF80430F3
S214003B90FFF75CFBBDF8063003F10103ADF8063015
S214003BA004F10104022CDDDD3046FFF753F82C4605
S214003BB0F8E700BF2DE9F04F85B004464FF0000B44
S214003BC0D94606460DF10E07D84645F21032C1F228
S214003BD0000201924FF0B4051EE0306839464246B6
S214003BE04346FEF741F8012816D1BDF80EA0CA4597
S214003BF018BF4FF0010B0BD1BBF1000F08D1FFF738
S214003C0017FB019A136803F101031360FFF71EFB0D
S214003C100AF1010A1FFA8AF92068FDF79DFF0028BD
S214003C20DBD12846FFF716F8F6E700BF45F21C334F
S214003C30C1F200031A685B68934201BF45F21C3369
S214003C40C1F2000301229A6045F21C33C1F2000360
S214003C501A685A609868D0F1010038BF0020704793
S214003C6030B585B04FF005004FF00401FEF7C0F9FF
S214003C70054646F6BC21C0F20101FDF723FF4FF0D2
S214003C800004009401940294039443F6E160C0F2A9
S214003C90000046F6D021C0F201014FF050022B463C
S214003CA0FFF7D8F84FF00103009345F68C23C1F2D6
S214003CB0000301930294039443F68160C0F200006F
S214003CC046F6D821C0F201014FF050022B46FFF70E
S214003CD0C1F84FF00203009345F68823C1F20003B3
S214003CE001930294039443F60160C0F2000046F686
S214003CF0E021C0F201014FF050022B46FFF7AAF870
S214003D004FF00303009345F69023C1F2000301939E
S214003D100294039443F63550C0F2000046F6E821BC
S214003D20C0F201014FF050022B46FFF793F805B0A2
S214003D3030BD00BF2DE9F04F85B006460DF10C08EA
S214003D404FF0FF3A4FF0010445F21C35C1F2000572
S214003D5043F24439C1F222194FF0000744F2675B80
S214003D60C0F2231B4AF6BB22CAF6BB22019230469B
S214003D70414652462346FDF777FF012818BFAC6040
S214003D80039B4B4518BFAC603046FDF7E5FE0128A7
S214003D9018BFAC600397304641463A463B46FDF7AF
S214003DA063FF012818BFAC60039B4B4518BFAC608F
S214003DB03046414652462346FDF756FF012818BFB7
S214003DC0AC60039B5B4518BFAC603046FDF7C4FE95
S214003DD0012818BFAC603846FEF7B6FE30464146AE
S214003DE052462346FDF740FF012818BFAC60039BF0
S214003DF0019A934218BFAC603846FEF7A5FEB6E7B8
S214003E002DE9F04F83B006460DF104084FF0FF3A57
S214003E104FF0010445F21C35C1F2000544F2675923
S214003E20C0F223194FF000074AF6BB2BCAF6BB2B8D
S214003E303046414652462346FDF716FF012818BF76
S214003E40AC60019B4B4518BFAC603046FDF784FE66
S214003E50012818BFAC603846FEF776FE304641466D
S214003E6052463B46FDF700FF012818BFAC60019B99
S214003E705B4518BFAC603846FEF766FED8E700BF65
S214003E802DE9F04782B006460DF104084FF0FF3AE0
S214003E904FF0010545F21C34C1F2000444F26757A6
S214003EA0C0F223174FF000093046414652462B46D3
S214003EB0FDF7DAFE012818BFA560019BBB4218BFBC
S214003EC0A5603046FDF748FE012818BFA5602368A8
S214003ED003F1010323604846FEF736FEE4E700BF21
S214003EE02DE9F04F85B0044643F24439C1F2221959
S214003EF003AE45F21C37C1F200074FF0010544F24D
S214003F00675BC0F2231B45F68C23C1F200030093C7
S214003F1045F68828C1F2000845F6902AC1F2000A44
S214003F204AF6BB23CAF6BB230193CDF80C90204675
S214003F3031464FF000021346FDF7A2FF012818BFD6
S214003F40BD602046FDF708FE00B1BD60CDF80CB0A0
S214003F50204631464FF000021346FDF791FF012838
S214003F6018BFBD604FF000030393204631461A4643
S214003F70FDF77AFE012818BFBD604FF00A00FEF775
S214003F8069FE009B1868FEF7A3FDD8F80000FEF750
S214003F909FFDDAF80000FEF79BFD019B0393204689
S214003FA031464FF000022B46FDF76AFF012818BF86
S214003FB0BD60204631464FF000022B46FDF754FE0A
S214003FC000B1BD60D8F80000FEF782FDDAF8000008
S214003FD0FEF77EFD4FF00A00FEF73CFEA5E700BFA9
S214003FE045F22833C1F2000318685A689968DB68FE
S214003FF0994208BF002202D0821A18BF012245F259
S2140040002833C1F20003186945F22833C1F20003D1
S2140040109968D96019685960012814BF10460020B5
S214004020704700BF30B585B04FF005004FF0040173
S214004030FDF7DEFF45F22835C1F20005686146F659
S214004040F021C0F20101FDF73DFD4FF003030093A0
S2140040504FF0000401940294039444F24910C0F215
S214004060000046F60431C0F201014FF0500223462C
S214004070FEF7F0FE4FF00203009305F118050195D8
S2140040800294039444F2A500C0F2000046F60C31F8
S214004090C0F201014FF050022346FEF7DBFE05B0EA
S2140040A030BD00BF2DE9F04782B04FF0000645F264
S2140040B02834C1F200044FF055070DF1040A4FF002
S2140040C0AF094FF001083046FEF73EFDFEF77AF9DD
S2140040D005460196E761606951464A463346FDF754
S2140040E0CFFE08B1C4F81080FEF76CF9C5EB0000EF
S2140040F0AE2898BFC4F81080BE2888BFC4F81080C9
S214004100E7613046FEF720FDFEF75CF90546E761FD
S214004110606951464A463346FDF7A6FD08B1C4F825
S2140041201080FEF74FF9C5EB0000AE2898BFC4F824
S2140041301080BE2888BFC4F81080E761A36803F12A
S2140041400103A360BFE700BF2DE9F04F83B04FF037
S21400415000064FF00A0B45F22834C1F20004E84688
S2140041600DF1040A019637464FF001090BFA07F7DE
S214004170FEF728F90546606941463A463346FDF79C
S21400418073FD08B1C4F81090FEF71CF9C5EB0000EB
S214004190874288BFC4F8109007F10F07B84288BF5F
S2140041A0C4F81090019F07F101070197042FDDDD89
S2140041B001964FF001056069514632463346FDF7D9
S2140041C05FFE012818BF2561019B03F101030193DF
S2140041D0042BF0DD019637464FF001090BFA07F77E
S2140041E0FEF7F0F80546606951463A463346FDF755
S2140041F047FE08B1C4F81090FEF7E4F8C5EB0000DF
S214004200874288BFC4F8109007F10F07B84288BFEE
S214004210C4F81090019F07F101070197042FDDDD18
S214004220E661A069FEF754FCE369552B07D04FF012
S21400423014052846FEF70EFDE369552BF9D14FF01D
S2140042401400FEF707FDE66101964FF001054FF0FA
S21400425005074FF002096069414632463346FDF7CE
S21400426003FD012818BF2561606951463246334672
S214004270FDF706FE012818BF2561E369552B08BF28
S2140042802561A0693946FEF78DFCE369552B08BF0A
S2140042902561A0694946FEF785FC019B03F10103F1
S2140042A00193042BD7DDE369552B07D04FF0140597
S2140042B02846FEF7CFFCE369552BF9D14FF01400E2
S2140042C0FEF7C8FCE66101964FF0010560694146BD
S2140042D032463346FDF7C8FC012818BF2561019B0E
S2140042E003F101030193042BF0DDA069FEF7F0FB58
S2140042F0E369552B07D04FF014052846FEF7AAFCB5
S214004300E369552BF9D14FF01400FEF7A3FCE661E4
S21400431001964FF001054FF005074FF0020960695E
S214004320514632463346FDF7ABFD012818BF2561DE
S2140043306069414632463346FDF796FC012818BFB1
S2140043402561E369552B08BF2561A0693946FEF74C
S21400435029FCE369552B08BF2561A0694946FEF78D
S21400436021FC019B03F101030193042BD7DDE369D4
S214004370552B07D04FF014052846FEF76BFCE36973
S214004380552BF9D14FF01400FEF764FC236803F1B7
S21400439001032360E6E600BF2DE9F04585B08046C0
S2140043A04FF0000544F2E136C0F2000646F6143738
S2140043B0C0F201072C464FF0500ACDF80080019459
S2140043C0029403943046394652462346FEF742FD91
S2140043D005F10105032DF0D105B0BDE8F08500BF5D
S2140043E070B582B0FEF724FF45F24833C1F20003F1
S2140043F01D681A6802F101021A60FEF727FF05F130
S214004400010340F24D1606FB03F64FEA5606FDF78B
S214004410D9FF02AC44F8040D20463146FEF748FCAE
S2140044202846FCF7FFFA20463146FEF741FC2846B0
S214004430FCF7F8FAF0E700BF45F24C33C1F2000390
S21400444018684FF000021A60801A18BF01207047E3
S21400445000B585B000904FF00003019302930393DC
S21400446044F28540C0F2000046F61C31C0F201015D
S2140044704FF0500245F24C33C1F20003FEF7EAFC5F
S21400448005B000BD2DE9F04782B081464FF0000828
S2140044904FF07B0A49F24745C0F2030542F29346C5
S2140044A0C9F2492647F21B77CFF6FE774FF0010494
S2140044B0CDF804A0019B2B440193019BA3EB83033F
S2140044C00193019B86FB03121A444FEAE373C3EB86
S2140044D0A2030193019BBB4218BFA046E8D1B8F1E6
S2140044E0000FE5D1FEF7A4FEC9F80040FEF7AEFEC9
S2140044F0DEE700BF45F25033C1F200031A685B687E
S214004500934201BF45F25033C1F2000301229A6084
S2140045101FBF45F25033C1F200031A685A6045F2D5
S2140045205033C1F20003DA681B69934201BF45F2BB
S2140045305033C1F2000301229A601FBF45F2503388
S214004540C1F20003DA681A6145F25033C1F2000383
S2140045505A699B69934201BF45F25033C1F200038A
S21400456001229A601FBF45F25033C1F200035A6918
S2140045709A6145F25033C1F200039868013818BFBB
S2140045800120704730B585B0FDF70CFD45F250347C
S214004590C1F20004E06146F62431C0F20101FDF7E5
S2140045A091FAE369002B3DD04FF0020300932546B5
S2140045B004F1200301934FF000040294039444F2A4
S2140045C0D560C0F2000046F63431C0F201014FF06B
S2140045D050022346FEF73EFC4FF00103009305F120
S2140045E0240501950294039444F27560C0F200001D
S2140045F046F63C31C0F201014FF050022346FEF76A
S21400460029FC009401940294039444F22960C0F2B9
S214004610000046F64431C0F201014FF05002234636
S214004620FEF718FC05B030BD70B545F25034C1F247
S21400463000044FF000054FF00106E0692946FDF73B
S214004640A3FB0128F9D1A36A012B18BFA660F4D1F9
S214004650636903F101036361606AFEF739FA206A51
S214004660FEF736FAE069FDF781FC012818BFA66060
S214004670E3E700BFF8B545F25034C1F200044FF04E
S214004680FF364FF001054FF00007E0693146FDF7B1
S2140046907BFB012818BFA5600FD1E36A012B18BF6A
S2140046A0A5600AD1E069FDF761FC012818BFA56086
S2140046B0A5623846FEF748FAA762E268236802F168
S2140046C001029A4218BFA560E36803F10103E360A4
S2140046D0DBE700BF2DE9F84545F25034C1F200048F
S2140046E04FF001074FF0000A4FF002084FF0140693
S2140046F0E069FDF73BFC012808BFA7605546E06966
S2140047004146FDF741FB012818BFA7603046FEF77B
S214004710A1FA05F101050A2DF1D155463046FEF7FE
S21400472099FAE069FDF722FC012818BFA76005F199
S21400473001050A2DF2D1E069FDF718FC012808BF33
S214004740A760236803F101032360E7625046FEF783
S214004750FBF9C4F82CA0CBE745F28033C1F2000386
S2140047601A88B3F9081012B28A1A18BF01221988DB
S21400477019815888B3F90A1003B2994208BF00227B
S21400478045F28033C1F20003598859819888B3F9FD
S2140047900C1003B2994208BF002245F28033C1F2E2
S2140047A0000399889981D988B3F90E0009B245F2B9
S2140047B08033C1F20003B3F806C0A3F80EC08842E7
S2140047C014BF1046002070472DE9F04184B08046A3
S2140047D04FF00C00FEF786FC044600283BD04FF056
S2140047E001004FF00001FDF703FC2060002832D0E6
S2140047F04FF000010A460B46FDF742FB236853B311
S2140048004FF00400FEF76EFC60604FF0FF0303609D
S2140048104FF00006A66044F60915C0F200050096A3
S214004820019602960396284646F64C31C0F20101E0
S2140048304FF050022346FEF70DFB009601960296B7
S2140048400396284646F65431C0F201014FF0500256
S2140048502346FEF7FFFA4FF00C00FEF743FC054632
S21400486000283FD04FF001004FF00001FDF7C0FBDD
S2140048702860002836D04FF000010A460B46FDF7A8
S214004880FFFA2B6873B34FF00400FEF72BFC68604A
S21400489040F6FF7303604FF06403AB6044F60917FD
S2140048A0C0F20007CDF800804FF000060196029691
S2140048B00396384646F65C31C0F201014FF05002CE
S2140048C02B46FEF7C7FACDF80080019602960396AF
S2140048D0384646F66431C0F201014FF050022B46CE
S2140048E0FEF7B8FA206846F66C31C0F20101FDF713
S2140048F0E9F8286846F67C31C0F20101FDF7E2F8D7
S21400490004B0BDE8F08100BF2DE9F04F83B0064645
S214004910FEF78EFC45F28033C1F20003B3F810A018
S2140049201FFA8AFA1A8A02F1010292B21A82FEF776
S2140049308DFC7568B3681BB140F6FF73019302E007
S2140049404FF0FF0301934FF0000427460FFA8AFA50
S21400495045F28039C1F200094FF0010B3068394644
S214004960B2683B46FDF780F9012834D12A68019BDE
S2140049709A4218BF0124019B3B462B602A689A4244
S21400498018BF012403F10103019A9A42F5D21FFAD7
S21400499084F8306839463A463B46FDF771FA08B95E
S2140049A05C4610E0B8F1000F0DD1BAF1030FCFBF8F
S2140049B01FFA88F439F81A3001339BB2DCBF29F8A5
S2140049C01A301FFA88F4B36803EB83034FEA4300F8
S2140049D0FEF740F9C2E7B368002BBFD1FEF720FC14
S2140049E0BCE700BF4CF24803C2F20703984208BF78
S2140049F0002207D04CF24863C2F207034FF00102D0
S214004A00834207D145F29433C1F200034FF0000110
S214004A10995405E002F1010203F5C063062AEFD1BE
S214004A20704700BF10B582B04FF0000301934FF0FF
S214004A30A043D3F8E04FC3F8E84F14F0080F0AD0AD
S214004A4045F2C433C1F2000318684FF0000101AA12
S214004A500B46FDF7E9F914F0800F2CD045F294339D
S214004A60C1F20003DA88E2B14CF23003C2F2070367
S214004A7019684CF23803C2F20703196042F040424C
S214004A804CF23C03C2F207031A604FF000024FF0EC
S214004A90A043C3F8282145F29433C1F20003DA801C
S214004AA009E04CF23004C2F207042068FFF79AFFD0
S214004AB04FF000032360019B0BB1FEF7B1FB02B081
S214004AC010BD00BF2DE9F0474FF000073D4645F208
S214004AD09434C1F20004B9464FF001064CF248087F
S214004AE0C2F207084FF0030A14E03346E25C2AB924
S214004AF0E65403EB430308EB432503E003F101030D
S214004B00062BF3D15DB907F101071E2F07D05046DB
S214004B10FEF7A0F82378002BE7D14B46E8E72846B7
S214004B20BDE8F087F8B54FF0A043D3F81421D3F8CA
S214004B3018319A4208BF002034D045F69425C1F2B9
S214004B4000052868FFF74EFF4FF0A046D6F818215C
S214004B504FF60303C0F2004313444FEAC3031F6833
S214004B60D6F818314FF60004C0F2004423444FEA4A
S214004B70C3031B682B60D6F81851FFF7A3FF2C441D
S214004B804FEAC4042060D6F8183103F10103022B63
S214004B90C8BF00234FEA47574FEA5757A7F103000D
S214004BA0C6F81831F8BD00BFF8B507464FF0000448
S214004BB04CF23005C2F207054FF003060EE0304611
S214004BC0FEF748F804F101041F2C07D14CF230031D
S214004BD0C2F207031868FFF705FF02E02B68002BF8
S214004BE0EDD145F29433C1F20003DF8045F69424FC
S214004BF0C1F2000422684CF23003C2F207031A60C6
S214004C0047F040474CF23403C2F207031F604FF0F0
S214004C1001024FF0A043C3F82821FFF753FF20609E
S214004C20F8BD00BF70B545F63413C1F200031B781B
S214004C30012B04D100F07EFA4FF001001BE040F497
S214004C4080704FF0A0439862D9625B6B13F0010F3F
S214004C5008BF002410D10AE06B6B13F0010F06D0DA
S214004C603046FDF7F7FF04F101040A2CF4D1092CB5
S214004C70CCBF0020012070BD4FF00200FDF7EAFF18
S214004C804FF001044FF0A0454FF00206E4E700BFE6
S214004C90F8B50F4645F63413C1F200031B78012B16
S214004CA003D100F009FA80B221E040F480704FF0A2
S214004CB0A04398624FF001025A625B6B13F0010F3B
S214004CC01DD10BE06B6B13F0010F07D03046FDF7DC
S214004CD0C1FF04F101040A2CF4D109E04FF00002F0
S214004CE04FF0A0435A624FF0A043186B80B2F8BD55
S214004CF04FF000034FF0A04253623B60F3E74FF0E3
S214004D000200FDF7A7FF4FF001044FF0A0454FF05B
S214004D100206D7E72DE9F04182B04FF00103019378
S214004D204FF4C0500BF092FA4CF20003C4F20203A8
S214004D3040F20512C5F215029A6045F63413C1F228
S214004D4000031B7853B94CF20003C4F20203DA687E
S214004D5022F00F0242F00502DA600FE04CF2000388
S214004D60C4F202031A6922F470221A614CF240035C
S214004D70C2F209031A6842F480721A604CF2000309
S214004D80C4F20F03D3F8C42042F08042C3F8C42014
S214004D904FF00200FDF75EFF4FF400600BF060FA84
S214004DA04FF0A0444FF44F4323604FF07803C4F80D
S214004DB000314FF00200FDF74DFF4FF00205256071
S214004DC04FF0300363604FF4C063636143F20F73C8
S214004DD023614FF01203E3604FF480500BF040FA6B
S214004DE048F214032362236A23F4004323624FF439
S214004DF01073C4F800314FF40063A3612846FDF732
S214004E0029FF4FF00005A56128464FF40041FFF743
S214004E1009FF28464FF40041FFF704FF4FF00A054C
S214004E204FF000062846FDF715FF30466946FFF7A7
S214004E302FFF10F4084FF5D101AC4FF002002146C9
S214004E40FFF726FF05464FF003002146FFF720FF39
S214004E504FF6F073C0F2000300EA030343EA054589
S214004E604CF2F002C0F2070295421CBF00230193E9
S214004E7040F0F0804FF0A0434FF0DE021A644AF68E
S214004E80C0525A644FF45E429A644CF20003C2F277
S214004E9007034CF24801C2F207014FF0000240F24D
S214004EA0FF54C8F20004104645F2943CC1F2000CD0
S214004EB04FF0010E19605C609861D8610CF802E052
S214004EC002F1010201F5C06103F10803032AF1D1E2
S214004ED04FF0A0434CF20002C2F20702C3F80821CA
S214004EE04CF21802C2F20702C3F80C214FF002027D
S214004EF0C3F810214FF00000C3F818014CF230013F
S214004F00C2F2070108604CF23402C2F207021060D7
S214004F104CF24002C2F2070210604CF23804C2F2B1
S214004F20070420604CF23C04C2F2070420604CF2F6
S214004F304404C2F207042060C3F81C11C3F8202101
S214004F404FF00102C3F82421C3F828014FF02302D2
S214004F50C3F800224FF44051FFF764FEC0B14FF093
S214004F600A00FDF777FE4FF000046D464FF001068D
S214004F704FF4FA7730466946FFF78AFE10F0200FA6
S214004F8006D13846FDF766FE04F101040A2CF1D17D
S214004F90019B012B5ED14FF0000402AE46F8084D8F
S214004FA04FF001074FF4FA7838466946FFF770FE6F
S214004FB0054610F0010F03D04FF0010300930BE0FD
S214004FC04046FDF747FE04F101040A2CECD1009B95
S214004FD0012B18BF01933DD115F0040F02BF12211B
S214004FE04FF0A04291600ED04FF0A042516841F0C1
S214004FF001015160D2F8001141F48061C2F800113D
S2140050004FF01501916015F0020F1DBF00214FF003
S214005010A04291614FF4807104BF4FF0A0429161AD
S2140050200193012B16D1FFF74DFD45F69423C1F2EF
S214005030000318604FF0A04343F2FF02C3F8E82FC6
S214005040D3F8002142F00302C3F800211A6842F0A8
S21400505001021A60019802B0BDE8F081704700BFF7
S21400506010B40B46B9B1C1F1200200FA02F04CF2BE
S2140050704002C2F209024FF400744FF48071002817
S214005080B4BF9461D4619161D16113F1FF3302D052
S2140050904FEA4000F3E710BC704700BF4CF24003F5
S2140050A0C2F209031A6822F400721A604FF4807282
S2140050B09A61DA61704700BF10B504464CF24003AF
S2140050C0C2F209031A6842F400721A604FF0FF3009
S2140050D04FF02001FFF7C4FF4FF006004FF0040129
S2140050E0FFF7BEFF4FF001004FF00501FFF7B8FFD6
S2140050F020464FF00501FFF7B3FFFFF7CFFF4FF055
S21400510000031C464CF24002C2F209024FF48071C2
S2140051104FEA44049161D161506910F4007F18BFD2
S21400512044F0010403F10103102BF1D1FFF7B6FFA1
S214005130204610BD38B505460C464CF24003C2F278
S21400514009031A6842F400721A604FF0FF304FF0FD
S2140051502001FFF785FF4FF005004FF00401FFF731
S2140051607FFF4FF001004FF00501FFF779FF28465B
S2140051704FF00501FFF774FF4FF002000146FFF7FE
S2140051806FFF20464FF01001FFF76AFFFFF786FF1C
S21400519038BD00BF4FF0000303854FF00200704794
S2140051A0F8B5064640F21C03C1F200031B68ABB11B
S2140051B040F21C04C1F2000427461D6828460DF084
S2140051C0C5FF0246284631460DF0F0FF10B92368A9
S2140051D0586807E054F8043F002BEDD145F29510CF
S2140051E0C0F20000F8BD00BF2DE9F0410646884633
S2140051F0174645F6B024C1F20004206846F68461DE
S214005200C0F201013246FBF7C7FB256828460DF0C1
S2140052109DFF05EB000138460CF084FC2568284607
S2140052200DF094FF284446F69461C0F20101424610
S2140052303346FBF7B1FB20680DF088FFC0B2BDE82F
S214005240F08100BF30B585B0044602A803A901AAC4
S2140052500BF046F8238DCB2B00F0A2800DD8C42B84
S21400526042D004D8DBB1C22B40F0428128E0C52BE7
S21400527057D0C92B40F03C817EE0D22B00F0E7806F
S21400528006D8CC2B00F0A980D02B40F03181CBE0A3
S214005290D32B00F0F880D62B40F02A8119E1029B30
S2140052A045F6B022C1F20002106846F6B461C0F2BC
S2140052B001019A7A1B89FBF76FFB4FF0C203238527
S2140052C045F6B023C1F200031D6828460DF03EFFE8
S2140052D0024604F12800294601F048FB002800F0A9
S2140052E00D814FF0C403238545F6B023C1F20003B9
S2140052F01D6846F6E060C0F2010046F6E861C0F2BE
S2140053000101029B1A68FFF76FFF024604F12800AE
S214005310294601F02BFB002800F0F0804FF0C50373
S214005320238545F6B023C1F200031D6846F6EC60FF
S214005330C0F2010046F6F861C0F20101029B5A680D
S214005340FFF752FF024604F12800294601F00EFB43
S214005350002800F0D380039B45F6B022C1F200027D
S214005360106846F6FC61C0F201019A7A1B89FBF7C9
S21400537013FB4FF0C903238545F6B023C1F20003A3
S2140053801D6828460DF0E2FE024604F12800294674
S21400539001F0ECFA002800F0B1804FF0CB03238533
S2140053A045F6B023C1F200031D6846F6E060C0F281
S2140053B0010046F6E861C0F20101039B1A68FFF798
S2140053C013FF024604F12800294601F0CFFA002810
S2140053D000F094804FF0CC03238545F6B023C1F24D
S2140053E000031D6846F6EC60C0F2010046F6F86160
S2140053F0C0F20101039B5A68FFF7F6FE024604F16D
S2140054002800294601F0B2FA002877D045F6B023E6
S214005410C1F20003186846F63471C0F20101FBF7CA
S214005420BBFA4FF0D003238545F6B023C1F2000344
S2140054301D6828460DF08AFE024604F1280029461B
S21400544001F094FA002859D04FF0D203238545F690
S214005450B023C1F200031D6846F6E060C0F201000A
S21400546046F6E861C0F20101019B1A68FFF7BCFE30
S214005470024604F12800294601F078FA00283DD0BB
S2140054804FF0D303238545F6B023C1F200031D6811
S21400549046F6EC60C0F2010046F6F861C0F2010183
S2140054A0019B5A68FFF7A0FE024604F12800294631
S2140054B001F05CFA10B345F6B023C1F20003186899
S2140054C046F64871C0F20101FBF766FA4FF0D603C4
S2140054D0238545F6B023C1F200031D6828460DF06B
S2140054E035FE024604F12800294601F03FFA28B1AD
S2140054F04FF0000323854FF0020001E04FF000005C
S21400550005B030BDF8B503460F46164645F6B0243E
S214005510C1F20004206846F65471C0F201011A4632
S214005520FBF73AFA256828460DF010FE05EB000159
S21400553030460CF0F7FA256828460DF007FE28449A
S21400554046F67871C0F201013A46FBF725FA206864
S2140055500DF0FCFDC0B2F8BD30B585B0044602A81B
S21400556003A901AA0AF0BCFE238D982B00F09980AF
S2140055700AD8922B2BD001D8C3B14CE1942B3AD049
S214005580952B40F048815AE09F2B00F0F08006D81B
S2140055909A2B00F09A809B2B40F03D81B9E0A12B1E
S2140055A000F0F880A22B40F0368115E1029B45F60C
S2140055B0B022C1F20002106846F68871C0F20101FE
S2140055C09A7A1B89FBF7E8F94FF09203238545F694
S2140055D0B023C1F200031D6828460DF0B7FD024651
S2140055E004F12800294601F0C1F9002800F01981CD
S2140055F04FF09403238545F6B023C1F200031D68DF
S214005600029B186840F20001C4F270210DF020F9E8
S214005610024646F6CC70C0F2010046F6E861C0F2DB
S2140056200101FFF76FFF024604F12800294601F04A
S2140056309DF9002800F0F5804FF09503238545F688
S214005640B023C1F200031D68029B586840F20001B7
S214005650C4F270210DF0FCF8024646F6D870C0F28F
S214005660010046F6F861C0F20101FFF74BFF024663
S21400567004F12800294601F079F9002800F0D180CD
S214005680039B45F6B022C1F20002106846F6E871A8
S214005690C0F201019A7A1B89FBF77EF94FF0980356
S2140056A0238545F6B023C1F200031D6828460DF099
S2140056B04DFD024604F12800294601F057F900285E
S2140056C000F0AF804FF09A03238545F6B023C1F271
S2140056D000031D68039B186840F20001C4F27021A5
S2140056E00DF0B6F8024646F6CC70C0F2010046F65B
S2140056F0E861C0F20101FFF705FF024604F1280049
S214005700294601F033F9002800F08B804FF09B0308
S214005710238545F6B023C1F200031D68039B586835
S21400572040F20001C4F270210DF092F8024646F6EF
S214005730D870C0F2010046F6F861C0F20101FFF72A
S214005740E1FE024604F12800294601F00FF9002880
S21400575067D045F6B023C1F20003186847F2280167
S214005760C0F20101FBF718F94FF09F03238545F6B9
S214005770B023C1F200031D6828460DF0E7FC024680
S21400578004F12800294601F0F1F8002849D04FF02E
S214005790A103238545F6B023C1F200031D68019BD3
S2140057A0186840F20001C4F270210DF051F802466C
S2140057B046F6CC70C0F2010046F6E861C0F2010180
S2140057C0FFF7A0FE024604F12800294601F0CEF8B5
S2140057D038B34FF0A203238545F6B023C1F2000389
S2140057E01D68019B586840F20001C4F270210DF05C
S2140057F02FF8024646F6D870C0F2010046F6F86169
S214005800C0F20101FFF77EFE024604F12800294699
S21400581001F0ACF828B14FF0000323854FF00200EA
S21400582001E04FF0000005B030BD00BF30B589B0D4
S214005830044603AB009302AB019307A806A905AA8A
S21400584004AB0AF01DFA238DAF2B27D003D83BB14B
S214005850AE2B6FD107E0B02B3BD0B12B6AD152E014
S2140058604FF0AE03238545F6B023C1F200031D6852
S21400587046F6E060C0F2010047F25C01C0F20101AA
S214005880079AFFF7B1FC024604F12800294601F00A
S2140058906DF8002854D04FF0AF03238545F6B023AB
S2140058A0C1F200031D6847F26000C0F2010047F233
S2140058B06C01C0F20101059AFFF796FC024604F15E
S2140058C02800294601F052F8002839D04FF0B003DE
S2140058D0238545F6B023C1F200031D6846F6EC604A
S2140058E0C0F2010047F27001C0F20101069AFFF70C
S2140058F07BFC024604F12800294601F037F8F8B18F
S2140059004FF0B103238545F6B023C1F200031D68AE
S21400591047F27400C0F201004BF23461C0F201019C
S214005920049AFFF761FC024604F12800294601F0BC
S2140059301DF828B14FF0000323854FF0020001E068
S2140059404FF0000009B030BD30B589B0044603AB57
S214005950009302AB019307A806A905AA04AB0AF0B8
S2140059608FF9238D7E2B27D003D83BB17D2B6FD1AB
S21400597007E07F2B3BD0802B6AD152E04FF07D03AF
S214005980238545F6B023C1F200031D6847F27C006C
S214005990C0F2010047F25C01C0F20101079AFFF76E
S2140059A0B1FD024604F12800294600F0DFFF00287A
S2140059B054D04FF07E03238545F6B023C1F2000392
S2140059C01D6847F28800C0F2010047F26C01C0F281
S2140059D00101059AFFF796FD024604F128002946C4
S2140059E000F0C4FF002839D04FF07F03238545F62A
S2140059F0B023C1F200031D6847F29800C0F2010010
S214005A0047F27001C0F20101069AFFF77BFD0246DD
S214005A1004F12800294600F0A9FFF8B14FF08003F2
S214005A20238545F6B023C1F200031D6847F2A8009F
S214005A30C0F201004BF23461C0F20101049AFFF794
S214005A4061FD024604F12800294600F08FFF28B1C8
S214005A504FF0000323854FF0020001E04FF00000F6
S214005A6009B030BD2DE9F04F83B0834601A86946E2
S214005A700AF02CFCBBF82830F82B78D0B3F5847FDE
S214005A8000F0F880002B40F0048145F6B023C1F208
S214005A900003186847F2BC01C0F20101FAF77CFF68
S214005AA04FF0000645F6B024C1F2000447F2CC08D9
S214005AB0C0F2010847F2D00AC0F2010A47F2D40940
S214005AC0C0F20109256828460DF040FB28444146EF
S214005AD0FAF762FF019D3544A8680CF0ADFD01465B
S214005AE028680CF0B5FE0746256828460DF02EFB04
S214005AF005EB000138460CF015F8256828460DF031
S214005B0025FB28445146FAF747FF019D3544A8680F
S214005B100CF092FD014668680CF09AFE0746256870
S214005B2028460DF013FB05EB000138460BF0FAFF94
S214005B30256828460DF00AFB28444946FAF72CFF4C
S214005B4006F10C06542EBDD145F6B023C1F2000373
S214005B501C6820460DF0FAFA204447F2D801C0F23D
S214005B600101FAF719FF4FF0F803ABF8283045F6B5
S214005B70B023C1F200031C6820460DF0E7FA024687
S214005B800BF12800214600F0F1FE002800F0888086
S214005B9045F6B023C1F20003186847F2E001C0F2F0
S214005BA00101FAF7F9FE4FF0000645F6B024C1F2FF
S214005BB0000447F2CC08C0F2010847F2D00AC0F24F
S214005BC0010A47F2D409C0F20109256828460DF0FB
S214005BD0BDFA28444146FAF7DFFE009D3544A86822
S214005BE00CF02AFD014628680CF032FE07462568B0
S214005BF028460DF0ABFA05EB000138460BF092FF95
S214005C00256828460DF0A2FA28445146FAF7C4FE45
S214005C10009D3544A8680CF00FFD014668680CF03E
S214005C2017FE0746256828460DF090FA05EB00019A
S214005C3038460BF077FF256828460DF087FA28448B
S214005C404946FAF7A9FE06F10C06902EBDD145F698
S214005C50B023C1F200031C6820460DF077FA2044FA
S214005C6047F2E801C0F20101FAF796FE4FF484739A
S214005C70ABF8283045F6B023C1F200031C68204676
S214005C800DF064FA02460BF12800214600F06EFE85
S214005C9030B14FF00003ABF828304FF0020001E0BF
S214005CA04FF0000003B0BDE8F08F00BF70B447F2BD
S214005CB03C16C0F201064FF0000C75682A78BAB19F
S214005CC003780D2B14D00A2B12D09A4208BF6346D5
S214005CD007D015E0825C0D2A0AD00A2A08D0944222
S214005CE00ED103F10103DBB21A46EC5C002CF1D1B5
S214005CF0B3680B60F3684B604FF0010070BC7047F0
S214005D003668002ED9D14FF00000F7E7704700BF85
S214005D1008B54FF4A04001F0A7F808BD38B5044612
S214005D200D46038D40F20B12934200F0B280B3F59D
S214005D30867F13D2B3F5827F47D005D85BB3B3F521
S214005D40807F40F03A8129E040F20712934264D007
S214005D5040F20912934240F030817CE040F211128A
S214005D60934200F0EE80B3F5897F0AD240F20D121E
S214005D70934200F0AC8040F20F12934240F01D8137
S214005D80C2E040F21312934200F0F780B3F58B7F27
S214005D9040F0138103E14FF48073038528460DF02D
S214005DA0D5F9024604F12800294600F0DFFD002858
S214005DB000F0098104F182004FF02E010DF088FA00
S214005DC0054698B94FF48273238546F6D855C0F237
S214005DD0010528460DF0BAF9024604F128002946C6
S214005DE000F0C4FD002840F0E880ECE046F60460D1
S214005DF0C0F2010029464FF005020DF0D7F948B170
S214005E0046F60C60C0F2010029464FF006020DF07F
S214005E10CDF998B940F20713238546F6F445C0F24B
S214005E20010528460DF092F9024604F1280029469D
S214005E3000F09CFD002840F0C080C4E046F61C60E0
S214005E40C0F2010029464FF004020DF0AFF998B9F0
S214005E5040F20913238546F61055C0F20105284680
S214005E600DF074F9024604F12800294600F07EFD84
S214005E70002840F0A280A6E046F62460C0F20100AA
S214005E8029464FF004020DF091F998B940F20B1331
S214005E90238546F64855C0F2010528460DF056F90A
S214005EA0024604F12800294600F060FD002840F074
S214005EB0848088E046F62C60C0F2010029464FF048
S214005EC004020DF073F990B940F20D13238546F6DF
S214005ED06455C0F2010528460DF038F9024604F173
S214005EE02800294600F042FD002866D16BE046F601
S214005EF03460C0F2010029464FF004020DF056F956
S214005F0090B940F20F13238546F68055C0F201057E
S214005F1028460DF01BF9024604F12800294600F039
S214005F2025FD002849D14EE046F64C60C0F201003F
S214005F3029464FF005020DF039F988B940F21113E1
S214005F40238546F6A055C0F2010528460DF0FEF85A
S214005F50024604F12800294600F008FD68BB32E03E
S214005F6046F65460C0F2010029464FF004020DF0D8
S214005F701DF988B940F21313238546F6BC55C0F2C6
S214005F80010528460DF0E2F8024604F128002946ED
S214005F9000F0ECFC88B916E04FF48B73238546F6C8
S214005FA0D445C0F2010528460DF0D0F8024604F1AB
S214005FB02800294600F0DAFC28B14FF000032385BC
S214005FC04FF0020001E04FF0000038BD10B5044667
S214005FD0038D13B17B2B1CD102E04FF07B0323858E
S214005FE004F1280046F2AD51C0F20001224600F04E
S214005FF079FC98B1D4F89C30D4F8A020C2EB030307
S214006000C4F89C30D4F898100A44C4F89820002BA2
S214006010E3DC4FF0000323854FF0020010BD00BF05
S214006020F0B583B004468388B3F5A77F0DD001D8BA
S21400603043B18AE0B3F5AA7F28D0B3F5B77F40F026
S214006040848065E04FF4A773838004F104004FF06A
S214006050200100F01BFB00287AD004F1500046F621
S214006060AC31C0F201014FF004020DF09FF850B1C0
S21400607045F6AC23C1F200034FF010021A704FF041
S2140060800003A38064E04FF4AA73A38004F1040520
S21400609028464FF0200100F0F9FA002858D094F86E
S2140060A050302F2B0AD045F6AC23C1F200034FF038
S2140060B010021A704FF00003A38049E094F85130A4
S2140060C0202B0AD104F1820046F60041C0F20101FD
S2140060D04FF014020DF0C0F813E0284600F0BAFAAC
S2140060E020444FF0000380F84F3004F15005284656
S2140060F000F092FC04F1820029464FF014020DF0E5
S214006100ABF84FF0010384F896304FF4B773A380D2
S21400611004F1040528464FF00A0100F0B7FAB8B1BA
S21400612004F1500046F61841C0F201014FF0080293
S2140061300DF03CF80028E8D1284600F08BFA204401
S2140061404FF0000380F84E30DFE74FF00003A380E7
S21400615094F89630012B40F0D281B4F84C30B3F569
S2140061609A7F52D007D8B3F5957F35D0B3F5967F92
S21400617040D073B1BFE140F23F12934200F0448139
S214006180B3F5A17F00F0AC81B3F59E7F40F0B381FC
S2140061906DE004F1820604F1980730463946FFF7B1
S2140061A085FD70BB30464AF60C31C0F201014FF057
S2140061B004020CF0FBFF20B346F60C45C0F20105C6
S2140061C028463946FFF772FD304629460CF060FF38
S2140061D04FF49573A4F84C30204646F67841C0F24A
S2140061E00101FFF79BFD002800F089814FF49673AC
S2140061F0A4F84C302046FFF7E9FE002840F07481F2
S2140062007DE14FF49A73A4F84C30204646F62441BC
S214006210C0F20101FFF782FD002800F0708104F152
S214006220820528464FF02E010CF0E4FD06460028B5
S21400623000F0DB8046F60C61C0F201014FF006026A
S2140062400CF0B4FF58B1304646F64C61C0F201017E
S2140062504FF005020CF0AAFF002840F0C6804FF071
S2140062600003A4F84E304FF49E73A4F84C30B4F8F4
S2140062704E30CE2B2ED003D8002B00F0AC80AFE0F3
S214006280D12B2CD0EF2B40F0AB8081E0D4F89820B7
S2140062901178252949D15178212946D102F10302E6
S2140062A0C4F8A420D4F89C30A3F10303C4F8A830A3
S2140062B012F8013C3A2B1CBFD123A4F84E300ED165
S2140062C002F1010004F19801FFF7F0FC4FF0CE0355
S2140062D0A4F84E302046FFF779FE60B90FE1D4F8F7
S2140062E0A400FEF75DFF03462046D4F8A4109847A6
S2140062F0002800F00481D4F8A4004FF00A010CF046
S21400630079FD00F10100B4F8A430C3EB00039BB2A2
S214006310D4F8A820C3EB0203C4F8A830C4F8A4003D
S214006320C4F89800C4F89C3055E045F6B422C1F293
S21400633000021268528A9A42D4BFC4F8A020C4F859
S214006340A030D4F898000378252B06D100F1010080
S2140063504FF025010CF04EFD03E04FF025010CF048
S21400636049FD88B1D4F8983098420DD0C3EB0000B0
S214006370C4F8A00045F6B423C1F200031B685B8A8C
S2140063809842A8BFC4F8A0304FF0EF03A4F84E30F0
S214006390238D13B1AF2B0ED102E04FF0AF03238550
S2140063A004F12800D4F89810D4F8A02000F0DEFA03
S2140063B0002800F0A4804FF000032385D4F898202E
S2140063C0D4F8A0301A44C4F89820D4F89C20C3EB24
S2140063D00203C4F89C30D4F89C30002B3FF756AF2D
S2140063E04FF00003A4F84E307EE028464AF60C3103
S2140063F0C0F201014FF004020CF0D8FE00286BD169
S21400640040F23F13A4F84C30238D9A2B36D0A32BA2
S21400641050D0002B5CD145F29C33C1F200031B68C0
S21400642013B1384804F018FF364804F186014FF0DF
S214006430010204F029FF002839D145F29C33C1F24D
S21400644000034FF001021A6045F6B023C1F20003C4
S21400645045F6B422C1F200021268528A2948196829
S21400646040F292539A4228BF1A4601AB04F0F0FD60
S21400647088B9019B7BB14FF09A03238545F6B0237C
S214006480C1F2000304F128001968019A00F06EFAC0
S2140064900028D9D133E045F29C35C1F2000505F15C
S2140064A0040004F0D9FE4FF000032B6010E04FF01C
S2140064B0A30323854AF61435C0F2010528460CF0DE
S2140064C045FE024604F12800294600F04FFAB0B116
S2140064D04FF00003238507E04FF4A173A4F84C3077
S2140064E02046FFF773FD50B145F6AC23C1F200031A
S2140064F04FF010021A704FF00003A4F84C3003B0AF
S214006500F0BD00BFA053001070B545F6B423C1F22D
S21400651000031C6845F6AC23C1F200031B7813F099
S214006520300F41D113F0800F3ED104F11C0613F05A
S214006530400F1AD004F16C0504F1200029464FF0F4
S214006540310200F013F904F1440029464FF03102FD
S21400655000F00CF94FF00003A4F8683084F8B2306D
S21400656023773046FFF75CFD1EE0B6B113F0080F48
S21400657004BF002323770CD0237F03F10103DBB293
S2140065802377132B81BF45F6AC23C1F200032022EC
S2140065901A703046FFF744FD06E045F6AC23C1F21C
S2140065A000034FF020021A7070BD00BF10B50446FD
S2140065B0D0F89C2045F6B423C1F200031B685B8A22
S2140065C09342D4BFC0F8A030C0F8A02045F6B02350
S2140065D0C1F200031868D4F89810D4F8A0200CF084
S2140065E0B3FAB4F8A00010BD01608280704700BF07
S2140065F090F82030062B29D145F6AC23C1F20003D3
S2140066001B7813F0010F21D0028A45F6B423C1F29D
S21400661000031B685B8A9A420CD9C3EB0202028213
S21400662045F6B423C1F200031B685B8A4268134434
S214006630436005E043681A4442604FF0000303825B
S2140066404FF0010380F82030184601E04FF00000BC
S214006650704700BF828B038BC3EB020080B270478B
S214006660438A13B14FF001000FE090F82030022B60
S21400667003BF032380F82030002045F6AC231EBF5E
S214006680C1F200031878C0F34000704770B50446A6
S2140066900D4643881BB1B3F58E7F60D10AE000F14A
S2140066A01400E168A28BFFF79FFF638ABBB94FF423
S2140066B08E7363802046FFF7D3FF002854D04FF038
S2140066C0020384F8203045F6B023C1F200031B68AD
S2140066D0A36045F6A023C1F200031B88638204F181
S2140066E0140304F1080204F1120119E0106800789E
S2140066F01E683070166806F1010616601E6806F100
S21400670001061E60B1F800C00CF1FF3CA1F800C005
S214006710B3F804C00CF1FF3CA3F804C0854216D0C1
S214006720988810B108880028E0D1638A5BB9BCE776
S2140067301068007803F1FF330B80136803F1010340
S2140067401360854203D00B88002BF1D1ADE72046BD
S214006750FFF780FF18B984F82000608004E04FF04F
S214006760000363804FF0020070BD00BF38B50446DA
S2140067704FF0000580F820504582C160C26100F1EC
S214006780140092B2FFF730FF2580658038BD00BF49
S21400679010B50446438823B140F2371293426CD1B9
S2140067A00AE000F11400E168A28BFFF71DFF638A80
S2140067B0EBB940F2371363802046FFF751FF0028FD
S2140067C060D04AF62030C0F20100FAF7F5F84FF034
S2140067D0020384F8203045F6B023C1F200031B689C
S2140067E0A36045F6A023C1F200031B886382638A78
S2140067F0228B934214D26069A1681A460CF0A4F961
S214006800638A62691A446261218B628AC2EB010262
S2140068102283A2681344A3604FF000036382C6E796
S214006820934210D16069A1681A460CF08DF9628A0D
S2140068306369134463614FF000032383A1680A442D
S214006840A26063821FE06069A1680CF07DF9238B6B
S21400685062691A446261618A228BC2EB010262821B
S214006860A2681344A3604FF0000323830BE04FF0AD
S214006870000084F82000608004E04FF0000363808E
S2140068804FF0020010BD2046FFF7E4FE0028F4D1CA
S214006890EDE700BF10B5044690F82030062B09D16E
S2140068A045F6AC23C1F200031B7813F0040F08BFB3
S2140068B0002016D0238A45F6B422C1F200021268E0
S2140068C0518A8B4203D9606800F01CFC03E06068C4
S2140068D0194600F017FC4FF0060384F820304FF0FE
S2140068E0010010BDF8B504460E461746438813B19E
S2140068F0EF2B34D120E029B94FF0000343804FF04E
S214006900010031E010468847208245F6B023C1F2E8
S21400691000031B6863604FF0000384F8203045F6E0
S214006920AC23C1F200031B7813F0040F01D03846E5
S214006930B0474FF0EF0363802046FFF759FE054649
S2140069402046FFF7A7FF00EA050010F0FF0F08BF7C
S214006950002009D0238A002BE1D184F820304FF0A4
S214006960000363804FF00200F8BD00BF38B5044650
S214006970438813B1D02B24D110E02AB94FF000037E
S21400698043804FF0010021E0416002824FF0000397
S21400699080F8203010E04FF0D00363802046FFF7E9
S2140069A027FE05462046FFF775FF00EA050010F0B3
S2140069B0FF0F08BF002009D0238A002BEBD184F8F4
S2140069C020304FF0000363804FF0020038BD00BF58
S2140069D00268436813440360704700BF10B504465E
S2140069E000F04EF92368C3EB00006268904234BFA3
S2140069F00020012010BD00BF10B5044600F040F98D
S214006A00206010BD10B50446416000F039F92060E2
S214006A1010BD00BF704700BF08B54AF63431C0F25B
S214006A2001010CF0F9FD98B14AF63831C0F20101C7
S214006A300CF0F2FD30B14FF003004FF00001F9F713
S214006A40D5FF05E04FF003004FF00101F9F7CEFF48
S214006A5008BD00BF2DE9F04F89B005A84FF4FA71C4
S214006A60FFF7D0FF03A842F21071FFF7CBFF00F04C
S214006A708BF947F61C33C1F200034AF6C0021A80AF
S214006A8040F60111598047F61833C1F200034FF063
S214006A90FF3119804FF0FF01598047F6E823C1F215
S214006AA000031A8040F201125A80FFF731F94FF0C6
S214006AB001004FF00001FBF79BFA45F2C433C1F228
S214006AC00003186050B14FF000010A460B46FBF772
S214006AD0D7F903E02046FCF7BDF801E04FF0640468
S214006AE0FEF718F90128F5D1FCF7A2FB4FF0880253
S214006AF04FF0A043C3F8E42F4EF20013CEF200038B
S214006B004FF0280283F81C234FF080521A6045F29B
S214006B10D833C1F200034FF0000983F800906FF0FD
S214006B2021025A706FF05201997001F11301D97069
S214006B301A7183F80590FCF789FB45F6A025C1F28B
S214006B40000545F6942AC1F2000A0DF1140B45F231
S214006B50C433C1F20003019345F6B821C1F2000127
S214006B60009101F5FF5845F6B427C1F20007FDF77E
S214006B70D9FF80B22880002838D0DAF80030002B01
S214006B8034D01A7B5C7B42EA04244FF4006000F0A9
S214006B90CBF9844212D14FF00300F9F743FF01F01E
S214006BA0D7FC4FF0010000F0C3FA2B88002B4CD026
S214006BB001F0D8FD2888FDF7F7FF46E0DAF8003048
S214006BC01A7B5C7B42EA042440F6060000F0ACF92F
S214006BD084423AD14FF00200F9F724FF01F0F4FCAA
S214006BE02888002831D0FDF7DFFF2EE05846FFF753
S214006BF0F5FE08B3DAF80030F3B15846FFF7E8FEC2
S214006C00009C4FF002063C60304600F091FA2B885C
S214006C1023B101F0A7FD2888FDF7C6FF04F1CC04D8
S214006C204445F0D103A8FFF7D9FE70B103A8FFF7DB
S214006C30CFFE01F0CBFE08E0019A10684FF000018D
S214006C404FF4FA720B46FBF70FF8B9F1FF0F8ED030
S214006C50B9F1FE0F1CBF09F101095FFA89F986D167
S214006C604AF6C003ADF81C3040F20121ADF81E1004
S214006C7007A84FF4A04100F05DF94FF0FF0976E752
S214006C8008B5FBF79FFB08BD45F2C833C1F2000309
S214006C901880704710B445F6A823C1F20003C278E6
S214006CA00A44DA704FEA112C82786244D2B29A70A3
S214006CB044785C700078187094450FD904F101048C
S214006CC0E4B245F6A823C1F200035C7034B945F679
S214006CD0A823C1F2000300F10100187045F6A823AE
S214006CE0C1F20003DB7801F0FF018B421BDA45F6A8
S214006CF0A823C1F200039A7802F10102D2B29A7078
S214006D008AB945F6A823C1F200035A7802F10102B7
S214006D10D2B25A703AB945F6A823C1F200031A78DF
S214006D2002F101021A7010BC704700BF10B402F1E5
S214006D30FF3201EB0204A14218D20B4693F800C0C2
S214006D405A7802EB0C2292B2104480B2824284BF80
S214006D50013080B203F102039C42EFD86FEA0103D0
S214006D60234423F0010303F102031944A14208D18E
S214006D700B784FEA0323184480B2834284BF013065
S214006D8080B210BC704700BF4FF0000347F6982251
S214006D90C1F200024FF00001995203F10203502B9A
S214006DA0F8D145F6B823C1F2000303F5FF514FF0C2
S214006DB000025A7603F1CC038B42FAD145F2C8336F
S214006DC0C1F200034FF028029A704FF480629A8056
S214006DD0704700BF30B445F2C833C1F200034FF02D
S214006DE000029A7047F69823C1F200031B8883427C
S214006DF008BF144625D10DE00D46614603F1010398
S214006E001C46B2F802C084450DD145F2C833C1F223
S214006E1000039D7047F69823C1F200034FF000026E
S214006E2023F814201DE001F1010C5FFA8CFC02F13E
S214006E300202272BE0D145F2C833C1F20003997055
S214006E400FE045F2C833C1F200034FF001059D7014
S214006E5047F69822C1F200024FF002014FF00003FD
S214006E60CCE730BC704700BF30B445F2C833C1F23F
S214006E7000034FF000029A7047F69823C1F2000311
S214006E801B8813BB94460BE00D46614603F10103D5
S214006E909C4654885CB945F2C833C1F200039D7025
S214006EA047F69823C1F2000323F81C001DE001F109
S214006EB0010C5FFA8CFC02F10202272BE4D145F2AA
S214006EC0C833C1F2000399700FE045F2C833C1F22F
S214006ED000034FF001059D7047F69822C1F20002AC
S214006EE04FF002014FF00003D0E730BC704700BF00
S214006EF010B5014645F6B424C1F20004206800F13E
S214006F000800FFF7C7FE226845F6A823C1F2000373
S214006F10197811722268597851722268997891729C
S214006F202268DB78D37210BD4FEA102343EA0020B4
S214006F3080B270472DE9F84F81468B4645F2C8333C
S214006F40C1F200039E8847F6FF47DFF810814FF036
S214006F50010A06F10106B6B2BE4288BF4FF480565B
S214006F6044465546237833B13046FFF7DDFF34F804
S214006F70153C8342EDD005F10105EDB204F1CC04D9
S214006F80292DEFD145F2C833C1F200039E804FF0A1
S214006F9000029A7045F6B823C1F200035A7E0AB979
S214006FA01C4628E02C4B4FF00101A3F1CC054FF016
S214006FB000040FE01D465A7E01F10100C0B203F145
S214006FC0CC0332B945F2C833C1F2000399702C469F
S214006FD00FE00146072A05D11CB1A87EA27E90428A
S214006FE000D92C462829E5D145F2C833C1F2000362
S214006FF09970002C2CD04FF00203637645F2C8330C
S214007000C1F200031A7A22735A7A62739A7AA273CA
S214007010DB7AE37340F292536382A3824FF001025D
S21400702022824FF00003E376A2764FF00302227628
S214007030A3754FF01003E3753046FFF775FFA08089
S214007040A4F806B0B9F800302380B9F8023063809F
S2140070502046BDE8F88F00BF845B0010D15A0010B0
S21400706038B545F69424C1F20004216801F10E03F8
S214007070DD789B78A5F1140505EB0325ADB2284411
S21400708080B201F11A014FF00802FFF74FFE2168A7
S21400709001F122012A46FFF749FE10B94FF6FF70AC
S2140070A001E0FFF741FF38BD08B54FF01100FFF7CC
S2140070B0D7FF08BD08B54FF00600FFF7D1FF08BDA3
S2140070C008B545F69423C1F2000319684FF0000096
S2140070D001F10E014FF01402FFF728FE10B94FF62B
S2140070E0FF7001E0FFF720FF08BD00BF08B50346AC
S2140070F00A464FF000001946FFF718FEFFF714FF88
S21400710008BD00BF08B5034600290FDD8AB247F662
S2140071102031C1F200010A8045F6A421C1F2000127
S2140071200868834202D019460BF00EFD08BD00BF6A
S21400713070B545F6B423C1F200031C6845F69423E7
S214007140C1F200031A6802F1360245F6B023C1F216
S21400715000031A6045F6A423C1F200031A60032850
S21400716014D1637E03F00F03032B41F03981238A89
S214007170002B41F0358145F6AC23C1F200034FF0F9
S21400718008021A70FFF7C0F900F0F8BE022840F0B7
S214007190C08045F2C833C1F20003DA7A02F1010278
S2140071A0D2B2DA72DAB945F2C833C1F200039A7A7B
S2140071B002F10102D2B29A728AB945F2C833C1F21C
S2140071C000035A7A02F10102D2B25A723AB945F273
S2140071D0C833C1F200031A7A02F101021A7245F6A8
S2140071E0A023C1F200034FF000021A8047F62033B6
S2140071F0C1F200031A80637E052B14BF0022012211
S214007200072B08BF42F0010252B1A37E03F101032F
S214007210DBB2A376782B04BF0023637601F0E0B8D8
S214007220002B01F0DD80228A002A62D0A27E02F1C5
S214007230FF32D2B2A276002A41F0D280E27E082A3D
S21400724006D003F1FF33DBB2012B18D8052A16D17E
S2140072504FF00003637645F6AC23C1F200036FF0EF
S2140072607F021A70FFF750F945F69423C1F2000327
S2140072701B684FF0140283F82F2000F0BFBF042ACB
S2140072808FBF302303239340DBB2A376E37E03F164
S2140072900103E37647F6EC23C1F20003DA8C02F131
S2140072A00102DA84637E03F00F0303F1FF33072B3A
S2140072B001F29680DFE813F0AD0308001200E70540
S2140072C09408E7059408E70545F69423C1F2000301
S2140072D01B684FF0000283F82F20A3E345F6AC238B
S2140072E0C1F200034FF004021A70FFF70DF900F028
S2140072F0A5BE03F00F03032B41F0728045F6AC23C6
S214007300C1F200034FF008021A70FFF7FDF800F014
S21400731035BE47F6EC23C1F200035A8802F101029B
S2140073205A8045F69423C1F200031B6813F80E2F0B
S214007330452A13D047F6EC23C1F200031A8802F15F
S21400734001021A80DA8802F10102DA804AF6403039
S214007350C0F20100F9F760F901F042B89978DA78DE
S21400736002EB012045F6A023C1F200031B889842D9
S21400737010DC45F6A023C1F20003188045F69423DE
S214007380C1F200031B6803F10E039A7912F03F0F57
S21400739008D009E04AF66830C0F20100F9F73CF977
S2140073A001F01EB8DA799AB147F6EC23C1F2000371
S2140073B01A8802F101021A809A8902F101029A8162
S2140073C04AF69830C0F20100F9F726F901F008B83D
S2140073D047F61C32C1F2000212882AB947F61C3161
S2140073E0C1F200014988D1B1197C587C41EA0021DC
S2140073F08A420AD1997CD87C47F61C33C1F2000336
S2140074005A8841EA00239A4209D047F6EC23C1F293
S21400741000031A8802F101021A8000F0E1BFFFF7AC
S2140074204FFE4FF6FF73984213D047F6EC23C1F297
S21400743000031A8802F101021A80DA8902F10102B9
S214007440DA814AF6B030C0F20100F9F7E5F800F04C
S214007450C7BF45F69423C1F200031B68DB7D062BED
S21400746000F08C80012B13D047F6EC23C1F200030A
S2140074701A8802F101021A801A8A02F101021A829F
S2140074804AF6C430C0F20100F9F7C6F800F0A8BF0B
S21400749047F6EC23C1F200039A8A02F101029A82AF
S2140074A045F69423C1F200031B6803F10E031A7D10
S2140074B0082A13D047F6EC23C1F200035A8A02F1D9
S2140074C001025A821A8B02F101021A834AF6E03050
S2140074D0C0F20100F9F7A0F800F082BF4FF00002FA
S2140074E01A7545F69423C1F200031B6803F10E03D8
S2140074F09A7DD97D42EA01224FF6F6718A4281BF13
S214007500093292B29A75120A8FBFDA75083292B2B1
S2140075109A759CBF120ADA7545F69422C1F20002EB
S214007520136803F10E03197B587B41EA0021197496
S2140075304FEA11215974136803F10E03997BD87B27
S21400754041EA002199744FEA1121D974116847F66F
S2140075501C33C1F20003187888765878C87612680B
S21400756099781177DB78537747F6EC23C1F200035E
S214007570DA8A02F10102DA8200F022BF47F6EC2333
S214007580C1F200039A8B02F101029A83FFF792FD83
S2140075904FF6FF73984207D145F6B823C1F20003B1
S2140075A0A74A934214D946E047F6EC23C1F20003FB
S2140075B05A8B02F101025A831A8C02F101021A84D4
S2140075C04AF6F830C0F20100F9F726F800F008BFD6
S2140075D045F69423C1F200031A6802F10E0245F63E
S2140075E0B824C1F200049649637E03B3937D92F8F3
S2140075F017C0A08843EA0C23984218D1137D92F84E
S21400760015C0E08843EA0C23984210D1137B92F809
S2140076100DC0208843EA0C23984208D1937B92F849
S2140076200FC0608843EA0C23984200F0298204F1D8
S214007630CC048C42D8D945F69423C1F200031B68CB
S21400764003F10E0393F8212002F03F02022A29D10B
S2140076509A7DDB7D42EA032245F2C833C1F200037D
S2140076609A8147F69823C1F200031B88934240F0A4
S214007670C486E7E05888904200F0E48001F10101FA
S214007680C9B203F102032829F4D145F2C833C1F286
S2140076900003997047F6EC23C1F200035A8D02F1FD
S2140076A001025A8545F69423C1F200031B6893F83D
S2140076B02F3013F0040F40F0938647F6EC23C1F208
S2140076C000039A8C02F101029A8445F69423C1F2D3
S2140076D000031A684FF0140182F82F1045F6A02216
S2140076E0C1F200024FF0280111801A684FF05001D5
S2140076F082F82E10196801F10E0145F2C832C1F267
S2140077000002C87E9070C87FC8761968907881F8A5
S2140077102D00196801F10E01887E9070887F8876AA
S2140077201968907881F82C00196801F10E01487EDE
S2140077309070487F48761968907881F82B00196811
S21400774001F10E01087E9070087F0876196892781D
S21400775081F82A201A6802F10E02D37F03F1010392
S214007760DBB2D37723BB45F69423C1F200031A6835
S21400777002F10E02937F03F10103DBB29377BBB9EC
S21400778045F69423C1F200031A6802F10E02537FF5
S21400779003F10103DBB2537753B945F69423C1F2E4
S2140077A000031B6803F10E031A7F02F101021A7729
S2140077B045F2C832C1F2000245F69423C1F2000336
S2140077C0196891F8220091F823C040EA0C209081B5
S2140077D001F10E01887D91F817C040EA0C2008756B
S2140077E04FEA102048751968107B81F82400527BF8
S2140077F081F825201A6802F10E02117B507B41EABF
S214007800002111744FEA112151741A6802F10E0218
S214007810917BD07B41EA002191744FEA1121D1740B
S214007820196847F61C32C1F2000210788876507844
S214007830C8761B6891781977D2785A7700F05EBDC3
S214007840CC79001045F2C832C1F200024FF00003B6
S21400785093701C4645F6B822C1F200024FF0CC00E9
S21400786045F2C831C1F2000100FB03256D7E45B923
S21400787045F6B822C1F200024FF0CC0404FB032404
S21400788012E0072D0AD13CB100FB032595F81AE05B
S21400789094F81AC0E64501D900FB032403F101035E
S2140078A0DBB28B70282BDFD17CB947F6EC23C1F214
S2140078B000031A8D02F101021A854AF60C40C0F246
S2140078C00100F8F7A9FE00F08BBD45F6B423C1F21F
S2140078D000031C604FF00303A37623764FF00003EB
S2140078E0A3754FF00402E275E37645F69425C1F2DF
S2140078F000052B6893F8242093F8253042EA0323EA
S214007900A3802B6893F8222093F8233042EA0323BF
S214007910E3802B689A7EDB7E42EA032323802B6873
S2140079201A7F5B7F42EA032363804FF00100607694
S21400793045F2C833C1F200031A7A22735A7A627388
S2140079409A7AA273DB7AE37320822B6893F8293045
S214007950E3722B6893F82830A3722B6893F82730CD
S21400796063722B6893F826302372FFF7C1FA2B68F0
S21400797093F82E3003F0F003502B4ADD45F2C8335F
S214007980C1F200034FF000029A702A6802F10E0559
S21400799045F2C833C1F2000331E0114491F83610C5
S2140079A09973002935D0012902BF99780131997061
S2140079B025D002291BD1997801EB020090F83700F8
S2140079C0042814D101EB020393F8382093F83930D9
S2140079D043EA022245F2C833C1F200039A8140F21C
S2140079E092539A4238BF13466382A38211E0997875
S2140079F001EB020090F8370058B10144997099786D
S214007A0095F820004FEA1010A0F10500B1EB800FAA
S214007A10C3DB45F69423C1F200031B684FF0100247
S214007A2083F82F2045F69423C1F200031A6802F16A
S214007A300E0292F8211041F0020182F821101A6815
S214007A404FF0020182F836101A684FF0040182F8EF
S214007A5037101A684FF0050182F838101A686FF070
S214007A606D0182F8391045F6A022C1F200024FF0EF
S214007A702C0111801B684FF0600283F82E20CDE3A6
S214007A80254645F6B423C1F200031C6045F6AC2338
S214007A90C1F200034FF000021A7045F69423C1F2BB
S214007AA000031B6803F10E0393F8212012F0040F65
S214007AB013D04FF0000363764AF63040C0F2010060
S214007AC0F8F7AAFD45F6AC23C1F200034FF02002FA
S214007AD01A70FEF719FD00F083BC93F820204FEAD9
S214007AE0920202F03C0245F2C833C1F200039A70DB
S214007AF045F6A023C1F200031988A1F11401C2EBD8
S214007B00010292B21A80637E03F00F03022B0AD1A1
S214007B1045F69423C1F200031B6893F82F3003F058
S214007B203F03122B25D04AB945F69423C1F2000331
S214007B301B6893F82F3013F0030F1AD045F69423E2
S214007B40C1F200031B6803F10E03197E2A7A9142E4
S214007B5040F04B83597E6A7A914240F04683997E84
S214007B60AA7A914240F04183DA7EEB7A9A4240F05C
S214007B703C8345F69423C1F200031B6893F82F302C
S214007B8013F0100F59D0298A002956D005F10C00A1
S214007B90FFF780F845F69423C1F200031B6803F153
S214007BA00E0393F81CC045F6A822C1F20002127814
S214007BB0624542D1587F45F6A822C1F200025278AB
S214007BC082423AD1997F45F6A822C1F20002927805
S214007BD08A4232D1DA7F45F6A823C1F20003DB7869
S214007BE093422AD185F80CC06873A973EA73EB7EBA
S214007BF0BBB9AB7D297EAA7EC2EB0101A1EBD30106
S214007C00C9B20B44DAB2AA75EB7D49B2A3EB930373
S214007C100029B8BF49420B44DBB2EB7503EBD20335
S214007C202B7645F6AC23C1F200034FF001021A7022
S214007C302B7EAB764FF000022A826A7E02F00F039C
S214007C4003F1FF33072B00F2CB83DFE813F00800C5
S214007C503700E2004A029102BE02CE02340245F626
S214007C60AC23C1F200031B7813F0010F00F0B883B9
S214007C704FF003036B7645F6AC23C1F200034FF0DA
S214007C8040021A704FF000022A8245F6A023C1F285
S214007C900003188840B145F6AC23C1F200034FF04C
S214007CA042021A70FFF724F947F62033C1F20003A8
S214007CB04FF000011980FEF727FC5FE145F6AC2384
S214007CC0C1F200031B7813F0010F00F0908045F618
S214007CD09423C1F200031B6803F10E0393F82120DE
S214007CE002F03F02122A40F0828093F8203003F020
S214007CF0F003502B4EDD45F2C833C1F200034FF0BF
S214007D0000029A7045F69423C1F200031A6802F145
S214007D100E0645F2C833C1F2000331E0114491F873
S214007D2036109973002935D0012902BF99780131A0
S214007D30997025D002291BD1997801EB020090F8A2
S214007D403700042814D101EB020393F8382093F887
S214007D50393043EA022245F2C833C1F200039A8161
S214007D6040F292539A4238BF13466B82AB8211E0C0
S214007D70997801EB020090F8370058B101449970E9
S214007D80997896F820004FEA1010A0F10500B1EBA4
S214007D90800FC3DB4FF003036B7645F69423C1F2E6
S214007DA000031B6803F10E031A7E2A725A7E6A725B
S214007DB09A7EAA72DB7EEB724FF00100FFF798F80E
S214007DC045F6AC23C1F200034FF042021A704FF0A2
S214007DD000022A8245F6A023C1F200031A8047F665
S214007DE02033C1F200031A80FEF78EFBC6E045F68C
S214007DF0AC23C1F200034FF020021A70FEF784FB9A
S214007E0045F6B423C1F200031B684FF000025A7611
S214007E1048E445F69423C1F20003196801F10E0107
S214007E2091F8213013F0010F37D012F0100F34D133
S214007E302B8A002B40F0D48245F6A026C1F200061D
S214007E40308800F1010080B2FFF752F845F6AC2307
S214007E50C1F200031A7842F01002D2B21A703388C8
S214007E6033B145F6AC23C1F2000342F002021A70A9
S214007E70FEF74AFB4FF001022A824FF008036B76AA
S214007E804FF00003EB7645F69423C1F200031B681F
S214007E904FF0110283F82F20B0E113F0200F21D00D
S214007EA045F6B023C1F2000391F8260091F827109A
S214007EB041EA002118680144196045F69423C1F28E
S214007EC00003196801F10E0145F6A023C1F2000374
S214007ED091F826C091F82710188841EA0C21C1EBCA
S214007EE00001198045F6A023C1F200031B888BB160
S214007EF012F0100F0ED145F6AC23C1F200031A782B
S214007F0042F002021A7045F6A023C1F20003188858
S214007F10FEF7EEFF45F69423C1F200031B6803F15B
S214007F200E0393F8222093F8233003EB02239BB230
S214007F3045F2C832C1F200029381AA8A934200D861
S214007F4023B945F2C833C1F200039A8145F2C8331B
S214007F50C1F200039B896B8245F6AC23C1F2000395
S214007F601B7813F0030F00F03B8247F62033C1F274
S214007F7000034FF000011980FEF7C6FA45F6AC2361
S214007F80C1F200031B7813F0200F11D047F6203300
S214007F90C1F200034FF000021A80627645F6942381
S214007FA0C1F200031B684FF0140283F82F2025E16E
S214007FB013F0100F18D047F62033C1F200034FF02D
S214007FC0000211461A804FF0010222824FF004038D
S214007FD06376E17645F69423C1F200031B684FF002
S214007FE0110283F82F2009E147F62032C1F2000281
S214007FF0128802B313F0010F1CBF0023238201D1A5
S214008000228A9AB9628A47F62033C1F200031B8897
S214008010934282BF47F62033C1F200031A8047F628
S2140080202033C1F200031B88238204E047F6203386
S214008030C1F200031A804FF00003E37645F6B02342
S214008040C1F2000345F6A422C1F2000212681A60CB
S21400805047F62033C1F200031B8893B1238A83B10D
S21400806045F6A022C1F2000203F12803138045F66C
S2140080709423C1F200031B684FF0180283F82F20E8
S214008080C3E045F6AC23C1F200031B7813F0020FE1
S21400809000F0A68145F6A023C1F200034FF02801A8
S2140080A0198045F69423C1F200031B684FF01002B6
S2140080B083F82F20A9E045F6AC23C1F200031B7815
S2140080C013F0010F00F08C814FF000036B7645F63D
S2140080D0AC23C1F200034FF010021A70FEF714FA38
S2140080E07EE145F6A023C1F20003188808B1FEF72A
S2140080F0FFFE45F69423C1F200031B6893F82F3069
S21400810013F0010F1DD045F6AC23C1F200031B7817
S21400811013F0010F1FBF07236B760023AB7612BF49
S2140081202B8206236B764FF00100FEF7E1FE45F644
S214008130AC23C1F200034FF010021A70FEF7E4F908
S21400814053E045F6AC23C1F200031B7813F0010F91
S21400815006D04FF005036B764FF000022A823FE10F
S21400816045F6A023C1F200031B88002B3DD137E162
S21400817045F6A023C1F20003188808B1FEF7B8FE42
S21400818045F69423C1F200031B6893F82F3013F0D2
S214008190010F13D04FF007036B764FF00003AB765A
S2140081A04FF00100FEF7A4FE45F6AC23C1F2000333
S2140081B04FF010021A70FEF7A7F916E045F6A02356
S2140081C0C1F200031B8883B90AE145F6AC23C1F26D
S2140081D000031B7813F0010F00F002814FF0070335
S2140081E06B764FF00003AB76FAE045F69423C1F2C7
S2140081F000031B684FF0100283F82F2045F6A023DB
S214008200C1F200034FF02801198045F69423C1F20D
S21400821000031B684FF0500283F82E2045F6942387
S214008220C1F200031A68217A82F82A101A68617A65
S21400823082F82B101A68A17A82F82C101A68E17A54
S21400824082F82D101A68217B82F826101A68617B46
S21400825082F827101A68A17B82F828101A68E17B3A
S21400826082F829101A684FF00601D1751A6821792C
S21400827082F82210617982F823101A68A17982F8B0
S2140082802410E17982F82510196847F61C32C1F2ED
S2140082900002107888765078C87619689078087743
S2140082A0D2784A771A68217891776178D1771B68F7
S2140082B0A27883F82020E27883F82120637E13F0EA
S2140082C0100F0DD045F69423C1F200031B6803F18E
S2140082D00E034FF0000283F8232083F822200DE0DF
S2140082E045F69423C1F200031A684FF0050182F8A0
S2140082F030101B686FF06D0283F8312045F6942429
S214008300C1F2000423684FF040029A75226845F6D1
S214008310A023C1F2000319884FEA112111742268C4
S2140083201B885374236803F10E034FF0000583F88F
S214008330275083F82650236883F8325083F833504A
S214008340266806F10E06FEF7B5FE6FEA00039BB23E
S21400835086F824304FEA132386F8253023684FF03A
S21400836045029A732368DD73236803F10E03DD71FB
S2140083709D7145F2C833C1F200031A8802F101026A
S21400838092B21A8021684FEA12228A7422681B88E9
S214008390D37423681D765D76246804F10E04FEF718
S2140083A08FFE6FEA00039BB2A3724FEA1323E372B9
S2140083B047F6EC23C1F20003DA8B02F10102DA83FE
S2140083C047F6EC23C1F200039A8802F101029A8074
S2140083D045F6AC23C1F200034FF000021A7019E014
S2140083E045F6A023C1F200034FF000021A8045F6BE
S2140083F0AC23C1F200031A700CE045F2C833C1F298
S21400840000034FF00101997047F69823C1F200036C
S214008410FFF730B970BD00BFF8B503460E464FF003
S214008420000E45F2E031C1F2000101F804EB0A4605
S2140084304FF0010014461588D5B15788C7B1B3F878
S21400844000C0AC4514D1B3F802C0BC4510D145F20B
S214008450E035C1F2000585F800E002F1040031467F
S2140084604FF006020AF070FB95F86430A3726EE0D7
S21400847000F1010C5FFA8CFC02F10C02BCF1090F52
S21400848002D086466046D5E745F2E030C1F20000ED
S2140084904FF00002027094460C46088850B948888F
S2140084A040B945F2E031C1F200010A70BCF1080F94
S2140084B039D10DE00CF10102D2B201F10C01082A0B
S2140084C001D09446E8E745F2E031C1F200010A70B7
S2140084D045F2E031C1F2000191F86440254601F111
S2140084E004014FF0000217469646887AC0EB050C4A
S2140084F0F445C2BFC0EB04005FFA80FED7B202F1BB
S214008500010201F10C01082AEFD145F2E034C1F274
S214008510000484F865E084F8667004F8047B07EBD2
S214008520470704EB8704204619464FF004020AF07A
S2140085300BFB04F1040031464FF006020AF004FB80
S21400854045F2E033C1F2000393F86430A372F8BD3D
S21400855008B545F6A023C1F200031A88A2F10E0260
S2140085601A8045F69423C1F20003196847F61C33B7
S214008570C1F200038A7E91F81BC0188842EA0C22DA
S21400858047F61833C1F2000380EA02021B88134242
S21400859018D147F61C33C1F200030A7F91F81DC0BC
S2140085A0588842EA0C2247F61833C1F2000380EAE4
S2140085B002025B88134205D101F11A0001F106019F
S2140085C0FFF72AFF08BD00BF38B545F6A023C1F265
S2140085D000031B88292B07D845F6A023C1F2000309
S2140085E04FF000021A80BCE045F6A023C1F200035B
S2140085F04FF000021A8045F69423C1F20003196872
S2140086000B7D4A7D43EA0223B3F5807F04D0B3F5A1
S214008610007F40F0A68084E091F8260091F827C0FD
S21400862047F61C33C1F200031A8840EA0C239A422C
S21400863040F0978091F8280091F829C047F61C333F
S214008640C1F200035A8840EA0C239A4240F089801F
S21400865001F11C0001F11601FFF7DEFE45F6942439
S214008660C1F2000423684FF000021A754FF00202B0
S2140086705A75216801F1200001F116014FF006023B
S2140086800AF062FA206845F2D835C1F2000500F11A
S214008690160029464FF006020AF056FA206800F146
S2140086A0060029464FF006020AF04EFA21680846F0
S2140086B001F120014FF006020AF046FA23681A7FFD
S2140086C0597F42EA012283F826204FEA122283F8D5
S2140086D0272023689A7FD97F42EA012283F8282040
S2140086E04FEA122283F82920226847F61C33C1F28B
S2140086F0000319781177597851772268997891771D
S214008700DB78D37723684FF008021A734FF006021F
S2140087105A7345F6A023C1F200034FF02A021A80CE
S2140087201FE091F8260091F827C047F61C33C1F2E7
S21400873000031A8840EA0C239A4212D191F82800C6
S21400874091F829C047F61C33C1F200035A8840EA64
S2140087500C239A4205D101F11C0001F11601FFF726
S2140087605BFE38BD38B545F69423C1F200031868A1
S214008770837FC27F43EA02224FF6FF739A4212D1EA
S21400878090F8203090F8211043EA01214FF6FF734D
S214008790994208D14AF65841C0F201014FF006024C
S2140087A00AF0D2F9F2E047F61C33C1F2000319884A
S2140087B047F61833C1F2000382EA01011B880B4218
S2140087C013D147F61C33C1F2000390F8201090F83E
S2140087D021C0588841EA0C2147F61833C1F200033D
S2140087E080EA01015B880B420ED045F2E033C1F20D
S2140087F0000347F6E822C1F200021188A3F86810C9
S2140088005288A3F86A2012E045F2E033C1F2000372
S214008810A3F8682045F69422C1F20002126892F886
S214008820201092F8212041EA0222A3F86A2045F29D
S214008830E033C1F200034FF0000C83F800C0B3F839
S21400884068E0B3F86A4003F10403624619461888E4
S21400885070450CD15888A04209D145F2E033C1F2E8
S214008860000383F800C0082A40F085800DE002F17E
S2140088700102D2B203F10C03082A01D09446E5E7C0
S21400888045F2E033C1F200031A7045F69424C1F2B3
S214008890000420684FF0FF014FF006020AF01CFAB1
S2140088A0206800F120004FF000014FF006020AF0A9
S2140088B013FA206845F2D835C1F2000500F106002B
S2140088C029464FF006020AF03FF9206800F116002C
S2140088D029464FF006020AF037F9216845F2E033E0
S2140088E0C1F200034FF0000293F8680081F82600FA
S2140088F093F8690081F82700216893F86A0081F8E8
S214008900280093F86B3081F82930216847F61C332D
S214008910C1F2000318780877587848772168987865
S2140089208877DB78CB7723681A754FF00101597585
S21400893023689A73D97323684FF0080119745A7420
S21400894023684FF006029A7423684FF00400D87428
S214008950236819735A7345F6B023C1F200032268E0
S21400896002F136021A6045F6A023C1F200034FF06A
S2140089702A021A8028E045F69423C1F200031868FC
S21400898001F104014FF006020AF0DEF845F69424E1
S214008990C1F20004206800F1060045F2D831C1F2A9
S2140089A000014FF006020AF0CFF823684FF00802E5
S2140089B01A734FF000025A7345F6A023C1F2000363
S2140089C01A8802F10E021A8038BD00BFF8B545F2CB
S2140089D0E033C1F2000393F8642002F1010283F849
S2140089E064204FF0000018701C4603F1040506468C
S2140089F04FF0040700EB400005EB80004288038838
S214008A0042EA03039BB253B194F86420837AC3EB23
S214008A100203772B03DD31463A460AF05DF92078EB
S214008A2000F10100C0B220700728E3D9F8BD00BFEE
S214008A30F8B545F2E033C1F200034FF000001870BD
S214008A401C4603F1040506464FF0040700EB400001
S214008A5005EB800031463A460AF03EF9207800F1F0
S214008A600100C0B220700728F0D9F8BD13464AB1FD
S214008A704FF0000211F802C000F802C002F1010235
S214008A809342F7D1704700BF134632B14FF0000251
S214008A90815402F101029342FAD17047A1F102011A
S214008AA0C369A3F1020399422FBF00208278C36AEC
S214008AB002FB0130704700BF10B401F109040369DE
S214008AC0002B37D040690378202B18BF002203D133
S214008AD00BE0835C202B08D0052B08BFE52304F8A9
S214008AE0013B02F10102082AF3D1034613F8082FCE
S214008AF0202A06D04FF02E0204F8012B1B78202BDC
S214008B001DD1C37A0B72C27F837F4FEA034343EAC9
S214008B100263027F43EA0203427F43EA02230B60BA
S214008B20427E037E43EA02238B80C27D837D43EA36
S214008B300223CB804FF00003237010BC704704F86C
S214008B40013B437A202BDCD004F8013B837A202BB0
S214008B5018BF04F8013BD4E710B14FF00B0013E048
S214008B6045F24C43C1F200031B6813B14FF00002FC
S214008B701A7011B14FF000030B7045F24C43C1F26E
S214008B80000319604FF00000704700BF10B14FF0AF
S214008B900B0006E045F24C43C1F200034FF0000024
S214008BA0187170472DE9F04F8DB00E46154610B17E
S214008BB04FF00B0064E345F24C43C1F200031C681F
S214008BC014B94FF00C005BE34FF00000207002F089
S214008BD025FD10F0010F18BF032040F0518310F060
S214008BE0040F18BF0A2040F04B834FF000004FF0F0
S214008BF001010AAA02F0E6FC002840F03C830A9B2A
S214008C007F2B40F23883012E14BF4FF03F094FF000
S214008C100009C9EB03030A9305F1FF322A4200D18B
S214008C20FDB944F6D35CC1F2620CACFB030C4FEA10
S214008C30DC1CBCF5806F28BF00220BD24FF0000270
S214008C404AF66040C0F2010002F1010230F812104C
S214008C508C45F9D34AF66041C0F2010101EB4202AD
S214008C60158B6D0A08BF0125802D34BFA8464FF02E
S214008C708008B3FBF8F240F6F577BA4294BF0127B6
S214008C8002274FF6F5718A4288BF032701D8032FC3
S214008C900DD14FEA820A0AF5007A0AF1070A4FEA6E
S214008CA05A2A4FF0000101914FF0200B19E0012FD6
S214008CB001BF02EB420202F1010A4FEA5A0A0AF128
S214008CC0030A1CBF02F1020A4FEA4A0A0AF5FE7AB4
S214008CD00AF1030A4FEA5A2A4FF0200201924FF097
S214008CE0010B0BEB09000090019901EB0A05054406
S214008CF005EB08029342C0F0C1824FF000004FF02F
S214008D0003010BAA02F05EFC002840F0B4820B9B25
S214008D1003F1FF32B2F5004F80F0B0822A44C3F16F
S214008D20000302EA0303C5EB03050B95032F1FD1CF
S214008D30AB44009A2A4400920A9BCBEB0302CAEB90
S214008D4002020198C0EB0202B2FBF8F20292032F75
S214008D5014BF0021012103914FF6F572029890424C
S214008D608CBF002101F00101002940F087821BE042
S214008D70AA440A9BCBEB0302CAEB02020199C1EBA1
S214008D800202B2FBF8F2029240F6F57202989042A6
S214008D908CBF00220122022F14BF002202F0010223
S214008DA0002A00F0708269E2012E04BFF0210991CA
S214008DB06CD003EB090504F134004FF000014FF4CA
S214008DC00072FFF761FE04F5F9736FF07F0284F816
S214008DD0F2214FF001025A709A704FF00002DA70DA
S214008DE040F2FF32C0F2FB02954282BF4FF0FF32E4
S214008DF09A71DA7111D845F25B62C0F21552A2FB85
S214008E000502C2EB050502EB55024FEA5231D97155
S214008E104FEAD23242F03F029A716FF001025A7165
S214008E20032F04BF0C221A7106D00A9AB2F5803FAF
S214008E3034BF042206221A714FF03F021A724FF016
S214008E4000025A729A72DA720A991973BDF82810DB
S214008E504FEA11215973BDF82A1099739DF82B100B
S214008E60D9734FF0550183F840106FF0550183F821
S214008E704110104604F134014FF0010302F0AEFB3E
S214008E80002840F0F8814FF0F801099104F134050C
S214008E9028464FF000014FF40072FFF7F5FD6FF023
S214008EA0140384F834306FF00103224602F8353F8D
S214008EB006926FF06F03204600F8363F05904FF09D
S214008EC00003214601F8373F0491264606F83F3F47
S214008ED04FF002032B7385F80D8085F80EB0CBF3A8
S214008EE0072B85F80FB04FF001032B74039A002A66
S214008EF00CBF4FF4007B4FF0000B85F811B01FFA43
S214008F008BF34FEA1323AB740A9BB3F5803F06D26C
S214008F10EB74BDF828304FEA13232B750FE085F865
S214008F202030BDF828304FEA132385F82130BDF8ED
S214008F302A3085F822309DF82B3085F82330099B9F
S214008F406B754FF03F032B764FF000036B764FF0B8
S214008F50FF32AA76EB7685F81C906B774FEA1943BA
S214008F60AB774FEA1963EB7703F018FA0B90039987
S214008F70002948D085F84300BDF82C304FEA13236B
S214008F8085F84430BDF82E3085F845309DF82F30F2
S214008F9085F8463085F824A0CAF3072385F82530DF
S214008FA04FEA1A4385F826304FEA1A6385F82730C9
S214008FB04FF0020385F82C304FF0000385F82D3073
S214008FC085F82E3085F82F304FF0010285F83020D6
S214008FD085F8313002F1050285F8322085F8333005
S214008FE06FF07F0385F8403003F1A90385F842301F
S214008FF005F147004AF61051C0F2010102F10D02D8
S214009000FFF734FD26E085F82700BDF82C304FEA40
S214009010132385F82830BDF82E3085F829309DF8C2
S2140090202F3085F82A3085F816A0CAF30723EB758B
S2140090306FF07F0385F824304FF0290385F826303B
S21400904005F12B004AF62451C0F201014FF013023D
S214009050FFF70CFD05F5FF7208924FF055031370ED
S21400906005F5FE7307936FF05503079800F8033F66
S21400907007904FF0000029464A464FF0010302F0E1
S214009080ADFA002840F0F780039931B1294609F17E
S21400909006024FF0010302F0A1FA28464FF0000145
S2140090A04FF40072FFF7F0FC099A032F1BD0012F34
S2140090B04FF60073C0F2FF0318BF6FF0FF0343EADA
S2140090C002030B9384F83430BDF82C304FEA132398
S2140090D0069A1370BDF82E30059803709DF82F3051
S2140090E004990B7022E04FF60073C0F6FF7342EA55
S2140090F003030B9384F83430BDF82C304FEA132367
S214009100069A1370BDF82E30059803709DF82F3020
S21400911004990B704FF0FF332B716B71AB714FF0EE
S2140091200F02EA712B726B72AB7232704FF0000056
S2140091302946009A4FF0010302F050FA002840F04A
S2140091409A80009A02F1010628464FF000014FF47B
S2140091500072FFF799FC4FF001030B939A4512D962
S2140091604FF000079846384629463246434602F0F6
S21400917035FA00287FD106F101060B9B03F10103A7
S2140091800B939A45EFD8019B0398002808BF9B468F
S214009190CDF82CB04FF000074FF0010809E0384634
S2140091A029463246434602F019FA002863D106F1F2
S2140091B001060B9B03F1FF320B92002BEFD10399B4
S2140091C000294ED003F15503089A13706FF055032B
S2140091D00798037003F1A80384F8343006990B70DF
S2140091E003F10F03059A13704FF0410204980270C2
S2140091F04FF0720185F8E41185F8E51185F8E6214F
S21400920085F8E731029901F1FF3385F8E831C3F3B9
S214009210072385F8E93101F1FF334FEA134285F859
S214009220EA214FEA136385F8EB314FF0FF3385F8F8
S214009230EC3185F8ED3185F8EE3185F8EF314FF0F9
S2140092400000294609F1010203F1020302F0C6F903
S2140092504FF00000294609F107024FF0010302F023
S214009260BDF94FF000000146024602F0ABF90038A7
S21400927018BF012004E04FF0010001E04FF00E009F
S2140092800DB0BDE8F08F032F14BF00220122039219
S2140092908AE500BF08B568B102785AB1C2888A422A
S2140092A008D1407802F0B2F910F0010F14BF032085
S2140092B0002001E04FF0090008BD00BF10B50446CD
S2140092C00A46407804F134014FF0010302F092F9A7
S2140092D010B14FF0030041E094F8332294F8323294
S2140092E043EA022212B24AF65523CFF6FF739A4299
S2140092F018BF022032D194F86D3094F86C204FEAF3
S214009300024242EA036294F86A3042EA030294F8A0
S2140093106B3042EA032222F07F4244F24613C0F248
S21400932054039A4208BF002018D094F8893094F865
S21400933088004FEA004040EA036094F8863040EA2E
S214009340030094F8873040EA032020F07F4044F280
S2140093504613C0F25403C01A18BF012010BD00BF48
S214009360F8B5154602681378A3F13003092B07D821
S21400937092F801C0BCF13A0F04BF0232026004D07A
S21400938045F24C43C1F200031B7913B14FF00B00BA
S21400939093E145F24C43C1F200031C680C6014B91B
S2140093A04FF00C0089E123786BB1607802F02EF95B
S2140093B010F0010F07D1002D00F07A8110F0040F95
S2140093C040F0738174E14FF000002070607002F08E
S2140093D025F910F0010F18BF032040F06E811DB173
S2140093E010F0040F40F0618120464FF00001FFF7B7
S2140093F065FF012818BF002515D104F5F9731A7901
S214009400002A00F05881DD7A9A7A4FEA024242EA50
S21400941005651A7A45EA02025D7A42EA0525204683
S2140094202946FFF74BFF032808BF012000F04581BF
S214009430002840F0408194F8402094F83F3043EAFA
S21400944002231BB2B3F5007F40F0358194F84B2021
S21400945094F84A3053EA02220FD194F85B2094F82D
S2140094605A304FEA034343EA026294F8583042EA1D
S214009470030394F8592043EA0222226294F8443007
S214009480E37003F1FF31C9B2012900F2148194F8A8
S2140094904110A170002900F00E8101F1FF30084252
S2140094A040F0098194F846C094F8450040EA0C2044
S2140094B0208110F00F0F40F0FE8094F8486094F87A
S2140094C047C05CEA06270FD194F8576094F856C058
S2140094D04FEA0C4C4CEA066694F854C046EA0C0C6C
S2140094E094F855704CEA072794F8436094F842C005
S2140094F05CEA062C00F0DF8003FB02F20CEB101394
S21400950013449F42C0F0D780C3EB0707B7FBF1F1C7
S214009510002900F0D08040F6F576B14294BF0126CF
S21400952002264FF6F577B94200F2C88001F1020133
S214009530E1612B44E36205EB0C036362032E16D154
S214009540002840F0B88094F8632094F862304FEA20
S214009550034343EA026294F8603042EA030394F855
S214009560612043EA0223A3624FEA81010EE000284D
S21400957000F0A1801344A362022E0FBF490003230C
S2140095804B4301F0010118BF01EB530101F5FE73D7
S21400959003F10303226AB2EB532FC0F08C804FF026
S2140095A0FF33236103F10103E360032E6CD1637183
S2140095B094F8652094F8643043EA02222A446261F3
S2140095C0607804F134014FF0010302F013F800282C
S2140095D05AD194F8332294F8323243EA022212B275
S2140095E04AF65523CFF6FF739A424DD194F83720AA
S2140095F094F836304FEA034343EA026294F8343074
S21400960042EA030394F8352043EA022245F2522345
S214009610C4F261139A4237D194F81B2294F81A3296
S2140096204FEA034343EA026294F8183242EA03031D
S21400963094F8192243EA022247F27223C6F2411333
S2140096409A4221D194F8232294F822324FEA034317
S21400965043EA026294F8203242EA030394F8212295
S21400966043EA0223E36094F81F2294F81E324FEA7E
S214009670034343EA026294F81C3242EA030394F876
S2140096801D2243EA02232361267045F24C43C1F2B1
S2140096900003DA8802F1010292B2DA80E2804FF02B
S2140096A0000020632071A06107E04FF00A0004E08C
S2140096B04FF0000001E04FF00D00F8BD01F102018F
S2140096C0E1612B44E36205EB0C0363624FF0030693
S2140096D036E700BF2DE9F84504460E46056B8D4279
S2140096E034D003791BB300F13408407841462A464B
S2140096F04FF0010301F072FF28BB4FF00003237107
S214009700226A636A13449D4211D2E778012F0ED96C
S2140097104FF0010A236A1D44607841462A465346A4
S21400972001F05CFF07F1FF37FFB2012FF2D86EB1F0
S214009730607804F1340132464FF0010301F05AFF1D
S21400974008B9266304E04FF0010001E04FF0000086
S214009750BDE8F885F8B504464FF00001FFF7BAFFFC
S214009760054600285FD12378032B53D16379002B5D
S21400977050D04FF00006266304F1340738463146D1
S2140097804FF40072FFF780F94FF0550384F8323239
S2140097906FF0550384F833324FF0520384F83430B8
S2140097A084F835304FF0610384F836304FF04102CC
S2140097B084F837204FF0720184F8181284F81912D2
S2140097C084F81A2284F81B32236984F81C32C3F307
S2140097D0072284F81D224FEA134284F81E224FEA1D
S2140097E0136384F81F32E36884F82032C3F3072239
S2140097F084F821224FEA134284F822224FEA1363A8
S21400980084F823326078394662694FF0010301F02C
S214009810E5FE667160784FF000010A4601F0D2FE60
S214009820002818BF01252846F8BD00BF38B50446F5
S2140098300068A188FFF72EFD034600283FD1A279D5
S21400984012F0200F3BD02068E169FFF743FF034684
S214009850002834D1256A2B4613F80B2F42F020023D
S2140098601A70E3682B77A3894FEA13236B77E38993
S214009870AB77E37BEB772369AB76238A4FEA132338
S214009880EB76638A2B75638A4FEA13236B7502F0B7
S21400989085FDA875C0F30723EB754FEA10432B76BA
S2140098A04FEA10606876A37923F02003A37123683B
S2140098B04FF001021A712068FFF74CFF0346184666
S2140098C038BD00BFF8B504460D461646012940F2DD
S2140098D09480C369994280F090800378022B49D027
S2140098E0032B5DD0012B18BF022340F0828001EBD2
S2140098F05107416A01EB5721FFF7ECFE03460028AB
S21400990077D14FEAC7534FEAD35315F001051FBF6F
S2140099101A1992F83420F1B202F00F021ABF42EA86
S2140099200112D2B2F2B2234483F8342007F10107C1
S2140099304FF001032371616A204601EB5721FFF7C0
S214009940C9FE0346002854D14FEAC7574FEAD757F7
S21400995015B1C6F3071609E007EB040292F83420A7
S214009960C6F3032602F0F00242EA0606274487F80A
S21400997034603EE0416A01EB1521FFF7ABFE03467B
S214009980002836D14FEA05654FEAD55505EB0402A7
S21400999082F834601546C6F3072682F8356028E05C
S2140099A0416A01EBD511FFF795FE034608BB4FEA67
S2140099B045654FEAD55505F130002044024601467C
S2140099C011F806CF12F807CF4FEA0C6C10F8057F97
S2140099D025440CF0704C4CEA060685F83460C6F355
S2140099E0072C80F800C04FEA164008704FEA16664B
S2140099F016704FF00102227101E04FF00203184684
S214009A00F8BD00BFF8B504460D46012966D9C369FE
S214009A10994263D20378022B2DD0032B3FD0012B23
S214009A205FD101EB5106416A01EB5621FFF752FE6A
S214009A30002856D14FEAC6534FEAD353234493F82F
S214009A40347006F10106616A204601EB5621FFF7E5
S214009A5041FE002845D14FEAC6564FEAD656264460
S214009A6096F8340047EA002015F0010F12BF0009EF
S214009A700005000D37E0416A01EB1521FFF72AFECD
S214009A8078BB4FEA05654FEAD55505EB040393F816
S214009A9034302C4494F8350043EA002023E0416A31
S214009AA001EBD511FFF716FED8B94FEA45654FEA28
S214009AB0D55505EB040303F134039A78D8784FEABA
S214009AC0006040EA02405B7840EA03202C4494F8A9
S214009AD0343040EA030020F0704004E04FF001000C
S214009AE001E04FF0FF30F8BDF8B504460D46E180C2
S214009AF0816801294CD00368DA69914248D281B95D
S214009B001A78032A01D1996A59B94FF00003E36025
S214009B1023681A89AA423BD99B6A03EB1513236173
S214009B202BE09E784FEA0616B5421FD3C6F1000713
S214009B30BFB2C6EB0505ADB22068FFF763FF01466E
S214009B40B0F1FF3F02D14FF0010023E001281FD9FA
S214009B502368DB6998421BD205EB07039BB203EB35
S214009B60060292B2964201D81D46E5E7E1602068FB
S214009B70FEF794FF00EB15102061236803F1340311
S214009B8005F00F0503EB451565614FF0000001E099
S214009B904FF00200F8BD00BF2DE9F04105468846AB
S214009BA029B9C66886B1C3699E420DD20EE0FFF79A
S214009BB029FF0346012898BF012349D9EA69934241
S214009BC028BF464602D243E04FF0010634464FF027
S214009BD0020704F10104EB699C4202D3012E32D93C
S214009BE03C4628462146FFF70DFF034660B1012894
S214009BF014BF00220122B0F1FF3F08BF42F001026D
S214009C0032BBB442E5D11EE02646284621466FF018
S214009C107042FFF757FEC8B9B8F1000F05D02846C6
S214009C2041462246FFF74EFE80B9EE602B69B3F13F
S214009C30FF3F0FBF234603F1FF332B6101231CBFF9
S214009C406B71234604E04FF0000301E04FF0FF3352
S214009C501846BDE8F08100BF2DE9F04104460E46E7
S214009C6001292BD9C369994228D24FF000074FF03B
S214009C70010820463146FFF7C5FE054610B94FF0ED
S214009C8000031DE0012819D0B0F1FF3F02D14FF0CC
S214009C90010315E0204631463A46FFF713FE034619
S214009CA070B92269B2F1FF3F1EBF0132226184F80B
S214009CB00580E269AA4203D92E46DAE74FF002038E
S214009CC01846BDE8F08100BF38B504460068A18894
S214009CD0FFF7E0FA034600283FD1A27912F0800F82
S214009CE018BF022339D112F0020F08BF072334D061
S214009CF035E0E260A37943F02003A371A36843B97B
S214009D0020682169FFF7A8FF03464FF00002226192
S214009D101CE020686169FFF775FE0546012823D020
S214009D20B0F1FF3F14BF0023012383B92068C26946
S214009D30954212D261696FF07042FFF7C3FD034689
S214009D4028B920682946FFF787FF03462BB1A2797A
S214009D506FEA42626FEA5262A271184638BDA26884
S214009D60E1689142C5D8F8E74FF00203EFE700BF7D
S214009D702DE9F04104460E460068A188FFF78AFAEE
S214009D800746002840F0B780A37913F0800F18BF6D
S214009D90022740F0B080E568B54202D213F0020F09
S214009DA000D03546A2684FF00003A360002D00F0F7
S214009DB0A280206886784FEA462692B102F1FF32EA
S214009DC005F1FF31B1FBF6F1B2FBF6F3994208D389
S214009DD0C6F1000303EA0202A260C2EB0505616950
S214009DE01EE02169D9B9FFF7D7FE0146012808D140
S214009DF0A3796FEA43636FEA5363A3714FF00207D8
S214009E0079E0B0F1FF3F18BF206108D1A3796FEA6F
S214009E1043636FEA5363A3714FF001076BE0616120
S214009E20002953D0B54239D9C6F10008C6EB05055E
S214009E30A37913F0020F05D02068FFF7ADFE0146A8
S214009E4020B92AE02068FFF7DDFD0146B1F1FF3FAB
S214009E5008D1A3796FEA43636FEA5363A3714FF0A7
S214009E60010748E0012903D92368DB69994208D332
S214009E70A3796FEA43636FEA5363A3714FF0020757
S214009E8039E06161A3683344A36005EB080303EB84
S214009E900602B24202D91D46CAE73546A3682B44DD
S214009EA0A3604FEAC5534FEAD3537BB12068FEF751
S214009EB0F5FD40B9A3796FEA43636FEA5363A37174
S214009EC04FF0020717E000EB552301E04FF00003C8
S214009ED0A2684FEAC2524FEAD2521AB1A2699A4217
S214009EE018BFA361A368E268934281BFE360A379C9
S214009EF043F02003A3713846BDE8F08110B5044650
S214009F00C188FFF7F1FD034668B920682169FFF7AD
S214009F10E1FB034638B962696FF01A0111702268D6
S214009F204FF001011171184610BD00BF2DE9F04732
S214009F3004460D46C68806F10106B6B2002E7AD053
S214009F400369002B77D016F00F076AD103F10103DF
S214009F500361C16821B903681B89B34261D86AE00E
S214009F600068837803F1FF3313EA161359D1FFF71D
S214009F7049FD8046012861D9B0F1FF3F61D02068D5
S214009F80C369984546D3002D55D0E168FFF704FE17
S214009F90804610B94FF0070055E001284ED0B0F1CA
S214009FA0FF3F4ED020684FF00001FFF793FB0028DC
S214009FB047D1206800F134004FF000014FF40072E2
S214009FC0FEF762FD256828464146FEF767FD2863D2
S214009FD023689A7812B94FF0000517E04FF0000595
S214009FE04FF0010AA94683F804A020684946FFF707
S214009FF071FB30BB23681A6B02F101021A6305F18C
S21400A0000105EDB223689A78AA42ECD81A6BC5EB24
S21400A01002051D63C4F80C8020684146FEF73EFD2D
S21400A0202061E680236803F1340303EB471767617A
S21400A0304FF0000007E04FF0040004E04FF002008D
S21400A04001E04FF00100BDE8F08700BF2DE9F04FBA
S21400A05085B004460D460B785C2B14BF0022012207
S21400A0602F2B14BF134642F001032BB101F101055B
S21400A0704FF00003836002E003689B6983602B78DF
S21400A0801F2B09D820464FF00001FFF72DFD034691
S21400A0904FF00002626118E14FF0000B5F464AF68F
S21400A0A06043C0F2010302934AF63853C0F201033C
S21400A0B001934FF008030393A66930464FF0200142
S21400A0C04FF00B02FEF7E0FC2B782E2B05D0D8467F
S21400A0D0BC464FF0080AB9462BE04FF001034FF09C
S21400A0E02E0206EB030101F8012CEA5C03F10103E2
S21400A0F0022BD4BF002101212E2A18BF41F00101F6
S21400A1000029EED0B2F15C0118BF01212F2A0CBF46
S21400A110002101F0010119B1202A40F2DA80CFE0D7
S21400A1201D4406F10B06202A94BF242220223270FA
S21400A130D7E015F80C100CF1010C20298CBF002379
S21400A14001232F2914BF1A4643F00102002A48D1E2
S21400A1505C2900F0C480D045B4BF002301232E291B
S21400A16008BF43F001039BB12E3918BF0121BAF195
S21400A170080F18BF41F00101002940F0A1804FEA06
S21400A18089095FFA89F9DDF80C804FF00B0AD0E7F1
S21400A19011F0800F1EBF029BC91811F8501C08460C
S21400A1A0222900F08D80019B5A7822B103F1010329
S21400A1B09042F9D184E0A1F14103DBB2192B98BF9C
S21400A1C049F0020908D9A1F16103DBB2192B9EBF41
S21400A1D049F001092039C9B206F8081008F101084B
S21400A1E0A7E765441BB14A464FF0040301E04A4620
S21400A1F05B46B8F1000F63D03178E52904BF05212E
S21400A2003170BAF1080F04BF92005FFA82F909F0C4
S21400A2100302012A08BF43F0100309F00C09B9F144
S21400A220040F08BF43F00803F3725AE02068216960
S21400A230FFF750FA0346D8B961690A78002A5DD05C
S21400A24091F80B8018F0080F0BD1A6693A4603E088
S21400A25002F101020B2A4CD011F802C0B05C844512
S21400A260F6D020463946FFF761FE03460028DDD0CB
S21400A270A269D27A042B28D1134612F0200F0AD0F6
S21400A280C4F808B0C4F814B012F0040F3FF414AFCA
S21400A2904FF0000319E012F0040F18BF042312D089
S21400A2A013E018F0100F0ED04A7D0B7D43EA022211
S21400A2B0C87E8B7E43EA002343EA0243A360FBE6A4
S21400A2C04FF0060301E04FF00503184605B0BDE861
S21400A2D0F08F1D4406F10B064FF0240227E7654475
S21400A2E085E720465946FFF7FFFB034600289DD02A
S21400A2F0BEE7F27A12F0040FD3D0E6E7A369DA7A63
S21400A300BAE700BF10B58CB00CAB43F82C0D0C466A
S21400A310184605A94FF00102FFF722F8034618BBBE
S21400A32002AB0B9305A80199FFF790FE0346D8B938
S21400A3300B9BDB7A13F0200F18BF062314D116E010
S21400A340E2889A75E2884FEA1222DA75A2881A76AF
S21400A350A2884FEA12225A764FF00102059B1A7124
S21400A3600598FFF7F7F9034618460CB010BD0A9B90
S21400A370002BE5D14FF00603F6E700BF30B58DB0F1
S21400A3800CAB43F82C0D0C461546184605A94FF0A5
S21400A3900102FEF7E5FF034610BB02AB0B9305A8D0
S21400A3A00199FFF753FE0346D0B90B9BDB7A13F0F7
S21400A3B0200F18BF062313D115E005F0270513F864
S21400A3C00B2F22EA050205EA040542EA05051D7080
S21400A3D04FF00102059B1A710598FFF7BBF903467B
S21400A3E018460DB030BD0A9B002BE6D14FF0060391
S21400A3F0F6E700BF30B58DB00CAB43F82C0D0D461C
S21400A400184605A94FF00002FEF7AAFF044680B9D9
S21400A41002AB0B9305A80199FFF718FE044640B956
S21400A4200A9B13B94FF0060403E005A82946FEF779
S21400A43043FB20460DB030BD10B586B0044606A8D6
S21400A44040F8141D21464FF00002FEF789FF034630
S21400A45030BB03ABA36120460199FFF7F7FD034627
S21400A460D8B9636983B1DA7A12F0100F08BF0523F2
S21400A47016D0597D1A7D42EA0122D97E9B7E43EA98
S21400A480012343EA0243A3602368DB88A3802046B7
S21400A4904FF00001FFF728FB0346042B08BF0523F7
S21400A4A0184606B010BD00BF00B58DB00CAB43F823
S21400A4B02C0D184605A94FF00002FEF751FF034683
S21400A4C018BB02AB0B9305A80199FFF7BFFD034627
S21400A4D0C0B90A9A1AB90799059A916115E0D17A16
S21400A4E011F0100F08BF05230FD0507D117D41EAF3
S21400A4F00021D07E927E42EA002242EA0141059A7D
S21400A500916102E0042808BF052318460DB000BD7F
S21400A51070B504464FF00001FFF7E6FA054600283E
S21400A5202DD14FF0010620682169FFF7D3F80546C4
S21400A53028BB63691B78D3F1010238BF0022E52BE4
S21400A54014BF134642F00103DBB920463146FFF73D
S21400A550EDFC05460028E6D011E0666930464FF06F
S21400A56000014FF02002FEF78FFA3046A1694FF047
S21400A5700B02FEF77BFA23684FF001021A71284699
S21400A58070BD20682169FFF7A5F805460028F6D1BA
S21400A590E3E700BF30B59BB01AAB43F8640D0C463A
S21400A5A0184613A94FF00102FEF7DAFE034600280C
S21400A5B040F08D80139B0C9303AB199313A801995D
S21400A5C0FFF744FD0346002840F08180199BDB7AA4
S21400A5D013F0200F18BF062379D17BE006A801F1FF
S21400A5E00B014FF01502FEF741FA0CAD284613A9F1
S21400A5F04FF01C02FEF73AFA28462146FFF726FDE2
S21400A600034610B94FF0080361E004285FD10CA898
S21400A610FFF77EFF0346002859D1119C04F10D0078
S21400A6200DF11A014FF01302FEF720FA23469DF8AB
S21400A630182042F0200203F80B2F4FF00101139A66
S21400A64011710E9A1599914238D01B7813F0100F9D
S21400A65034D00C9DE07EA17E627D237D41EA002100
S21400A66043EA022341EA0301284689B2FEF716FAB6
S21400A6700146002834D02846FFF72CF80C9A0346EB
S21400A68028BB02F1540359782E2917D111780329D3
S21400A69005D1926A0E99914208BF002200D00E9A08
S21400A6A09A76C2F30721D9764FEA12421A754FEA14
S21400A6B012225A754FF001020C9B1A7113A8FFF76D
S21400A6C01DFC034618B91398FFF744F803461846CE
S21400A6D01BB030BD1899002980D14FF00403F6E76F
S21400A6E04FF00203F3E700BF38B504464FF004030B
S21400A6F04FF0000513E02068FEF7ECFF034690B924
S21400A70061690A78A2B1E52A03D0CA7A12F0080F66
S21400A7100CD020462946FFF709FC034618B92169E4
S21400A7200029E8D113B14FF000022261184638BD67
S21400A7304FF00403F7E700BF70B584B004460D463B
S21400A7400068A188FEF7A6FD0646F8B92DB9204692
S21400A7504FF00001FFF7C8F918E001ABA3612046EF
S21400A760FFF7C2FF042804BF0023236100D068B9A6
S21400A77020462946FEF7A0F920464FF00001FFF7D5
S21400A780D5FB042802BF00232361304604B070BD09
S21400A79030B595B014AB43F84C0D18460DA94FF0E4
S21400A7A00102FEF7DDFD0346002844D103AB1393F8
S21400A7B00DA80199FFF74AFC034600283BD1139BDE
S21400A7C0DB7A13F0200F18BF062334D136E0DA7A8E
S21400A7D012F0010F18BF07232DD13CE0012C98BFC3
S21400A7E0022328D906AD28460DA94FF01C02FEF715
S21400A7F03DF9089428464FF00201FFF775F9034625
S21400A800C8B906A8FFF770FF034630B1069A9269EA
S21400A810A24202D0042817D00DE04FF007030AE04A
S21400A8202CB10D982146FFF717FA034618B90D9874
S21400A830FEF790FF0346184615B030BD129B002B5E
S21400A840C5D14FF00603F6E70DA8FFF757FB034602
S21400A8500028E5D0EFE75C7D1A7D42EA0424D97E25
S21400A8609A7E42EA012242EA0444DB7A13F0100F91
S21400A870B4D1E9E72DE9F04F83B004468846164682
S21400A8801F464FF000033B600068A188FEF702FDFC
S21400A8900190002840F00281A37913F0800F1CBFBE
S21400A8A00222019240F0FA8013F0020F04BF072341
S21400A8B0019300F0F380E368DE4280F0E680002E2D
S21400A8C000F0E380A2684FEAC2534FEAD353002B4E
S21400A8D040F0A7802068857805F1FF3505EA522507
S21400A8E0EDB255BB42B923696BB94FF00001FFF7D3
S21400A8F053F90346206103E06169FFF74DF903460B
S21400A900002B00F0C280012B09D1A3796FEA4363C4
S21400A9106FEA5363A3714FF002020192BEE0B3F1F7
S21400A920FF3F09D1A3796FEA43636FEA5363A371CC
S21400A9304FF001030193B1E063612068026BA369E5
S21400A9409A420ED14FF00001FEF7C4FE48B1A3793B
S21400A9506FEA43636FEA5363A3714FF001020192FB
S21400A9609CE0D4F800A050466169FEF797F883464D
S21400A97048B9A3796FEA43636FEA5363A3714FF054
S21400A980020301938AE000EB050B5FEA56292FD0FD
S21400A9909AF8022009EB0503934288BFC5EB02092B
S21400A9A09AF8010041465A465FFA89F300F016FE0F
S21400A9B048B1A3796FEA43636FEA5363A3714FF01C
S21400A9C0010201926AE02068036BCBEB030BD945CA
S21400A9D00BD900F1340008EB4B214FF40072FEF760
S21400A9E045F823684FF000021A714FEA492542E005
S21400A9F0A268E3689A4212D350464FF00001FEF771
S21400AA0069FE48B1A3796FEA43636FEA5363A371A3
S21400AA104FF00103019341E02368C3F830B0C4F857
S21400AA2018B0A5682068A169FEF754FE48B1A3795E
S21400AA306FEA43636FEA5363A3714FF0010201921A
S21400AA402CE04FEAC5554FEAD555C5F50075AE4220
S21400AA5038BF3546206800F13400A3684FEAC35378
S21400AA604FEAD353184441462A46FDF7FFFF2368B2
S21400AA704FF001021A71A3682B44A3603B682B4475
S21400AA803B60761B01D0A8441CE7A368E2689342AB
S21400AA9088BFE360A37943F02003A371019803B055
S21400AAA0BDE8F08F00B583B002AB03F8080D08468A
S21400AAB069464FF0010201ABFFF7DCFE0198012862
S21400AAC00CBF01204FF0FF3003B000BD70B5054647
S21400AAD00E46007810B94FF000040FE04FF0000467
S21400AAE03146FFF7DFFFB0F1FF3F02D14FF0FF34F2
S21400AAF004E004F10104285D0028F1D1204670BD71
S21400AB000EB42DE9F04F86B080460FAB53F8046BB9
S21400AB1005933378002B00F0178106F101064FF0FD
S21400AB200000054683460DF1040A06E00544337826
S21400AB30002B00F0008106F10106252B0AD01846EE
S21400AB404146FFF7AFFFB0F1FF3F00F0F5804FF052
S21400AB500100F7E016F8013B302B12BFD94616F875
S21400AB60013B4FF00109A3F13002D2B2092A88BF97
S21400AB705F460DD85F4607EB870703EB4707A7F14D
S21400AB80300716F8013BA3F13002D2B2092AF2D9F7
S21400AB904C2B14BF002201226C2B08BF42F001028E
S21400ABA01AB149F0020916F8013B002B00F0C080EC
S21400ABB0A3F16102D2B2192A8EBF1846A3F1200073
S21400ABC0C0B2A0F14202162A28D8DFE802F02C18FC
S21400ABD021272727272727272727270C2727270F39
S21400ABE02721272724004FF0080C1EE0059B03F1C1
S21400ABF00402059218684146FFF768FF93E0059B3C
S21400AC0003F10402059218784146FFF74BFF8AE0ED
S21400AC104FF00A0C09E04FF0100C06E018464146CB
S21400AC20FFF740FF7FE04FF0020C19F0020F05D04F
S21400AC30059A02F10401059111680DE0442805D13A
S21400AC40059A02F104010591116805E0059A02F1E2
S21400AC500401059111680BE04FEAD172442814BF35
S21400AC60002002F0010018B1C1F1000149F004090A
S21400AC705C46B1FBFCF00CFB1012D2B20146092A6E
S21400AC8006D902F10702D2B2782B04BF2032D2B224
S21400AC9002F130020AF8042004F101040F2C8CBFE4
S21400ACA00022012200290CBF002202F00102002A25
S21400ACB0DFD119F0040F1FBF06A90A192D2102F8CB
S21400ACC0141C18BF0134BC4215D207F1FF3709F037
S21400ACD00109B9F1000F14BF302020204146FFF7CC
S21400ACE0E1FE05F10105BC4205D2B0F1FF3F02D0FE
S21400ACF007F1FF37EDE70AEB040704F1FF3417F816
S21400AD00010D4146FFF7CEFE05F10105B0F1FF3318
S21400AD1018BF0123002C0CBF002203F00102002AFA
S21400AD20EBD173B908E0B0F1FF3F7FF4FFAE03E06C
S21400AD30B0F1FF3F00D0284606B0BDE8F04F03B0A4
S21400AD40704758460544F2E64FF00005F3E700BFAB
S21400AD502DE9F04F95B014AC44F82C0D01F01EFB15
S21400AD60054620460DA94FF00102FEF7F9FA044603
S21400AD70002840F0CE800AAB13930DA80999FFF780
S21400AD8065F9034610B94FF0080309E0042807D117
S21400AD90139BDB7A13F0200F00F0BF804FF0060302
S21400ADA01C46B6E0BBF1010F08BF022400F09080FD
S21400ADB0BBF1FF3F08BF012400F08A80002C40F062
S21400ADC087800D984FF00001FEF784FC04460028AB
S21400ADD07ED10D9C20465946FDF760FE064604F1DE
S21400ADE0340738464FF000014FF40072FDF74CFE72
S21400ADF038464FF020014FF00B02FDF745FE4FF0AE
S21400AE002E0884F834804FF01003FB72EAB20892E2
S21400AE10BA75C5F307230793FB75C5F30742069279
S21400AE203A764FEA156505957D765FFA8BF30493BF
S21400AE30BB76CBF307220392FA764FEA1B43DAB2CD
S21400AE4002923A754FEA132301937B7504F154007E
S21400AE5039464FF02002FDF709FE87F821800F9B48
S21400AE600D9A1178032903D1926A9A4208BF0023EB
S21400AE7087F83A30C3F3072287F83B204FEA13439C
S21400AE8087F834304FEA132387F835300D9B9D78CA
S21400AE90002D4ED04FF0010A4FF000084FF4007915
S21400AEA00D9B1E6306F101060D9B83F804A00D980A
S21400AEB04146FEF70FFC044650B9384641464A461E
S21400AEC0FDF7E2FD05F1FF35EDB2002DE8D130E0EB
S21400AED00D985946FEF7C0FE1BE0129B4FF010027D
S21400AEE0DA72089A9A75079ADA75069A1A76059AA1
S21400AEF05A76049A9A76039ADA76029A1A75019A1C
S21400AF005A754FF001020D9B1A710D98FEF722FC40
S21400AF100446204615B0BDE8F08F0D984FF00001AE
S21400AF20FEF73AFE834600287FF43CAF4FF0070456
S21400AF3044E70DA8FFF7ECFA04460028CDD0C7E793
S21400AF402DE9F04F83B002AB43F8040D8946154651
S21400AF50184611464FF00002FEF702FA8046002817
S21400AF6070D12B681A69DC69A4F102018A4298BF85
S21400AF70C9F8002066D91F78012F1CD14FF00204B3
S21400AF804FF0000628682146FEF73CFDB0F1FF3F73
S21400AF9002D14FF0010349E0012802D14FF002032D
S21400AFA044E008B906F1010604F101042B68DA69E9
S21400AFB09442E7D34AE0D3F824A04FF000031A46A1
S21400AFC01E464FF4007B5AB928685146FEF782FBAE
S21400AFD0034658BB0AF1010A2B6803F134035A46AC
S21400AFE0022F0AD15878197851EA002108BF013695
S21400AFF003F10203A2F1020214E0D87899784FEA2E
S21400B000014141EA0061187841EA0001587841EAB6
S21400B010002121F0704109B906F1010603F104038D
S21400B020A2F1040214F1FF34CDD143462A6816611A
S21400B030032F11BF98462A680121517108BF984610
S21400B040C9F80060404603B0BDE8F08F1E61F7E720
S21400B0502DE9F04F83B00446884615461E464FF04D
S21400B060000333600068A188FEF714F901900028F9
S21400B07040F0C080A37913F0800F1CBF0223019319
S21400B08040F0B88013F0010F04BF0723019300F0CF
S21400B090B180E768A368C3EB0707BD4238BF2F46F9
S21400B0A0002F00F0A780A2684FEAC2534FEAD3539E
S21400B0B0002B6FD12068857805F1FF3505EA52250B
S21400B0C0EDB2FDB90AB9206902E06169FEF79AFCA3
S21400B0D0012809D8A3796FEA43636FEA5363A37123
S21400B0E04FF00203019385E0B0F1FF3F09D1A37949
S21400B0F06FEA43636FEA5363A3714FF00103019352
S21400B10078E06061D4F800A050466169FDF7C6FC9F
S21400B110834648B9A3796FEA43636FEA5363A37122
S21400B1204FF00203019365E000EB050B5FEA572939
S21400B13008BFC4F818B02DD09AF8022009EB050312
S21400B140934288BFC5EB02099AF8010041465A4669
S21400B1505FFA89F300F04EFA48B1A3796FEA4363C9
S21400B1606FEA5363A3714FF00103019342E0216835
S21400B1700B7963B10B6BCBEB030BD94507D908EB07
S21400B1804B2001F134014FF40072FDF76FFC4FEADB
S21400B190492525E0A5682068A169FEF79BFA48B115
S21400B1A0A3796FEA43636FEA5363A3714FF0010319
S21400B1B001931FE04FEAC5554FEAD555C5F5007512
S21400B1C0AF4238BF3D46216801F13401A3684FEA1B
S21400B1D0C3534FEAD353404619442A46FDF746FC6C
S21400B1E0A3682B44A36033682B4433607F1B01D0D5
S21400B1F0A84458E7019803B0BDE8F08F2DE9F04F5A
S21400B20083B00646904605464FF0000401F1FF372E
S21400B2100DF1040AE9464FF0010B11E04046514695
S21400B2205A466B46FFF714FF009B012B0AD19DF888
S21400B2300430335505F1010504F101040A2B01D051
S21400B240BC42EBDB4FF000032B709C4214BF304631
S21400B250184603B0BDE8F08F10B5044645F24C43DF
S21400B260C1F2000398684FF000010A460B46F6F755
S21400B27007FE2046FEF7DAFA034610B94FF0000242
S21400B2802260184610BD00BF2DE9F0458DB005467A
S21400B29001911446F7F7CCFF45F24C43C1F2000388
S21400B2A09B6833B9F6F77EFE45F24C43C1F20003C5
S21400B2B09860F7F7CBFF45F24C43C1F2000398685D
S21400B2C04FF000014FF0FF320B46F6F7CDFC4FF083
S21400B2D000032B6004F01F0701A805A904F01E0256
S21400B2E0FEF73EF802AB0B930646002840F0B98006
S21400B2F005A80199FEF7AAFE0A9C064610B9002C7E
S21400B30008BF062617F01C0F61D06EB1042E40F061
S21400B310998005A8FFF7FCF80A9C0646002840F02E
S21400B320918047F008070CE017F0040F18BF0826B6
S21400B33040F08880E37A13F0110F18BF072640F01C
S21400B340818017F0080F00F08E8001F027F8A073B8
S21400B350C0F30723E3734FEA104323744FEA1060E9
S21400B36060744FF00003E37223776377A377E37785
S21400B370204626462246214610F8158F16F814CF8A
S21400B3804CEA082812F81BAF11F81ACF4CEA0A2C20
S21400B390337003700B7013704FF00102059B1A7127
S21400B3A05CEA08485FD00598D0F830A04146FEF722
S21400B3B053FC0646002845D108F1FF32059BDA60AB
S21400B3C005985146FEF786F9064688B13AE0002E03
S21400B3D038D1E27A12F0100F18BF042632D117F0D7
S21400B3E0020F40D012F0010F18BF07262AD13AE00C
S21400B3F017F01E0F18BF47F02007059B1A6BEA616F
S21400B4002C62AF71617D227D42EA0121E07EA27E40
S21400B41042EA002242EA01422A61E17FA27F4FEA25
S21400B420024242EA0162217F42EA0102617F42EA69
S21400B4300122EA604FF00002AA60AA612B60DB8856
S21400B440AB800AE045F24C43C1F2000398684FF027
S21400B45000010A460B46F6F713FD30460DB0BDE870
S21400B460F0850A9C4EE74FF00006C1E710B444F2A0
S21400B4700003C4F2020359699C695A698A42FAD1E8
S21400B4809969A142F7D102F03F030360C2F3052396
S21400B4904360C2F304428260C1F303238361C1F3B5
S21400B4A00B41C16144F20003C4F2020393F82C205E
S21400B4B002F01F02C26093F8302002F00702026119
S21400B4C09A8E4FEAC2524FEAD252426193F85C001B
S21400B4D0C0F3001010BC704738B5054644F20004AF
S21400B4E0C4F2020420464FF0000102F049FA20465A
S21400B4F0294602F001F820464FF0010102F040FA1A
S21400B50038BD00BF38B50546C0F1FA7444F20000F5
S21400B510C4F202004FF0000101F02AFE04F1FA0323
S21400B520B3F5FA7F08D844F20000C4F202004FF0E8
S21400B530000101F01DFE28E0FA2C12DD44F20005A1
S21400B540C4F2020528464FF0FA71B1FBF4F14FF051
S21400B550000201F0D7FD28464FF0010101F008FE79
S21400B56013E044F20004C4F20204A5F1FA75204682
S21400B5704FF0FA71B1FBF5F14FF0010201F0C2FD98
S21400B58020464FF0010101F0F3FD38BD38B5054601
S21400B59044F20004C4F20204204602F04BFA4FF0D4
S21400B5A0100384F85C304FF0FA70FFF7ABFF2046CC
S21400B5B0294601F0A1FF20464FF0010102F0E0F914
S21400B5C038BD00BF08B510B14FF0040004E00846CF
S21400B5D0114600F041FCC0B208BD00BF08B510B16E
S21400B5E04FF0040004E0084611461A4600F0CEFA72
S21400B5F008BD00BF08B510B14FF0040004E00846CF
S21400B60011461A4600F024FB08BD00BF08B510B16D
S21400B6104FF0010001E000F05DF908BD08B510B17B
S21400B6204FF0010001E000F0BDFD08BD08B500F0D8
S21400B63057F908BD45F25843C1F200031878704721
S21400B64010B445F25843C1F200034FF032025A607C
S21400B65048F20003C4F208034FF0FF029A601A464D
S21400B660D36813F0100FFBD148F20003C4F20803AE
S21400B6709B6848F200031A46C4F208024FF0FF0423
S21400B68045F25841C1F200019460D36813F0100FE0
S21400B690FBD19068C0B2FF2802D04B68002BF3D1D4
S21400B6A010BC704770B445F25843C1F200034FF423
S21400B6B07A729A6048F20002C4F208024FF0FF065F
S21400B6C01C469660D36813F0100FFBD19368DBB26C
S21400B6D0FF2B06D1A36803F1FF35A560002BF0D140
S21400B6E061E0FE2B5FD14FEA510407295FD848F28C
S21400B6F00003C4F208031A6842F00F021A6014B17D
S21400B7002546214602E02546214609E048F2000388
S21400B710C4F208034FF6FF729A6011F1FF31FBD1B5
S21400B72048F20002C4F20802C5EB04054FF6FF76A5
S21400B730D36813F0040FFBD093688D4288BF9660E1
S21400B7404FEA132C80F800C0437001F101018C42CF
S21400B75002D900F10200EBE748F20003C4F2080346
S21400B7601A6822F00F0242F007021A604FF0FF023A
S21400B7709A601A46D36813F0100FFBD148F2000304
S21400B780C4F208039A684FF0FF029A601A46D3681C
S21400B79013F0100FFBD148F20003C4F208039B68B5
S21400B7A04FF0010001E04FF0000070BC704748F217
S21400B7B00003C4F208031A6842F00F021A604FF042
S21400B7C008052946A2E700BF38B504460D46FFF730
S21400B7D037FFFF2818BF00207BD148F20003C4F2D1
S21400B7E008039D601A46D36813F0100FFBD148F289
S21400B7F00003C4F208039B68FD2D08BF012068D033
S21400B80048F20003C4F208031A6842F00F021A60F6
S21400B81004F5FF701A46D36813F0020FFBD02178A8
S21400B820637843EA01239360844202D004F1020461
S21400B830F1E748F20002C4F20802D36813F0100FD2
S21400B840FBD148F20003C4F20803DB6813F0040FD0
S21400B85008D048F20003C4F208039A68DA6812F0C7
S21400B860040FFAD148F20003C4F208031A6822F063
S21400B8700F0242F007021A604FF0FF029A601A4663
S21400B880D36813F0100FFBD148F20003C4F208038C
S21400B8909A684FF0FF029A601A46D36813F0100FAA
S21400B8A0FBD148F20003C4F208039A684FF0FF0287
S21400B8B09A601A46D36813F0100FFBD148F20003C3
S21400B8C0C4F20803986800F01F00052814BF002083
S21400B8D0012038BD40F23403C1F2000318687047F7
S21400B8E045F25843C1F200039B68DBB23BB103F15B
S21400B8F0FF33DBB245F25842C1F20002936045F2D4
S21400B9005843C1F200035B68DBB23BB103F1FF337F
S21400B910DBB245F25842C1F20002536045F258438A
S21400B920C1F20003DA684FF00001D9603AB940F27C
S21400B9303403C1F200031A6802F0F9021A60704775
S21400B94008B54FF000004FF4001101F06BFA45F215
S21400B9505843C1F200034FF000021A7008BD00BF42
S21400B96038B504460D4610F0800F0AD04FF0770029
S21400B9704FF00001FFF7F4FF012800F29A8004F070
S21400B9807F044FF000004FF4803101F04BFA4FF087
S21400B99000004FF4803101F04DFAFFF751FEFF280A
S21400B9A018BFFF2040F0858048F20003C4F2080369
S21400B9B09C601A46D36813F0100FFBD148F20003C0
S21400B9C0C4F208039A684FEA15629A601A46D3686A
S21400B9D013F0100FFBD148F20003C4F208039A6874
S21400B9E0C5F307429A601A46D36813F0100FFBD1CE
S21400B9F048F20003C4F208039A68C5F307229A6067
S21400BA001A46D36813F0100FFBD148F20003C4F2B5
S21400BA1008039A68EDB29D601A46D36813F0100FBB
S21400BA20FBD148F20003C4F208039B68402C08BF11
S21400BA30952203D0482C14BF0122872248F2000327
S21400BA40C4F208039A601A46D36813F0100FFBD1AD
S21400BA5048F20003C4F208039B684C2C18BF0A2166
S21400BA6012D148F20003C4F208034FF0FF029A60B6
S21400BA701A46D36813F0100FFBD148F20003C4F245
S21400BA8008039B684FF00A0148F20002C4F208025D
S21400BA904FF0FF049460D36813F0100FFBD190684A
S21400BAA0C0B210F0800F04D001F1FF31C9B20029F6
S21400BAB0F0D138BD08B550B948F20000C4F208000D
S21400BAC041F68021C0F2060102F0C0FD09E048F20E
S21400BAD00000C4F2080047F64001C0F27D1102F0F3
S21400BAE0B5FD08BD10B582B048F20004C4F20804E3
S21400BAF020464FF0000102F041FD204602F070FDA6
S21400BB004FF000038DF802308DF804304FF003023A
S21400BB108DF803204FF010028DF8012002AC04F8D7
S21400BB20083D684602F0E4F84FF00F038DF8013048
S21400BB30684602F0DDF84FF011038DF801306846D4
S21400BB4002F0D6F84FF012038DF80130684602F086
S21400BB50CFF802B010BD00BF08B54FF000004FF49C
S21400BB60803101F05FF948F20003C4F208034FF099
S21400BB70FF029A601A46D36813F0100FFBD148F202
S21400BB800003C4F208039B6808BD00BF70B50546F5
S21400BB900E46144612B94FF0040057E040F2340344
S21400BBA0C1F200031B6813F0010F18BF03204DD12C
S21400BBB040F23403C1F200031B6813F0040F18BFF1
S21400BBC0022043D145F25843C1F200031B7C13F018
S21400BBD0080F08BF4E02012A0ED14FF0580031461A
S21400BBE0FFF7BEFE68BB28464FF0FE01FFF7ECFDF0
S21400BBF0002818BF002424E013F0060F04D04FF0EE
S21400BC00D7001146FFF7ACFE4FF059003146FFF75C
S21400BC10A7FEB0B94FF0FC0628463146FFF7D4FD24
S21400BC2030B104F1FF34E4B214B105F50075F3E762
S21400BC304FF000004FF0FD01FFF7C6FD002808BFDB
S21400BC400124FFF789FF201E18BF012070BD00BF2A
S21400BC5070B50546144612B94FF0040040E040F2B5
S21400BC603403C1F200031B6813F0010F18BF032052
S21400BC7036D145F25843C1F200031B7C13F0080F7F
S21400BC8008BF4902012A0DD14FF05100FFF768FEA8
S21400BC9008BB28464FF40071FFF704FD002818BFC4
S21400BCA0002418E04FF05200FFF75AFE98B94FF400
S21400BCB0007628463146FFF7F5FC30B104F1FF3434
S21400BCC0E4B214B105F50075F3E74FF04C004FF001
S21400BCD00001FFF745FEFFF73FFF201E18BF0120BB
S21400BCE070BD00BF08B540F23403C1F200031B6804
S21400BCF013F0010F09D14FF000004FF4803101F02E
S21400BD0099F8FFF79DFCFFF727FFFFF7EBFEFFF71D
S21400BD1017FE40F23403C1F200031A6842F0010233
S21400BD201A6008BDF0B58BB04FF000048DF81E40C9
S21400BD308DF820408DF81F404FF015038DF81D300C
S21400BD400AAD05F80C4D284601F0D2FFFFF7F8FDC6
S21400BD5045F25846C1F20006347020464FF40011F2
S21400BD604FF0010201F04CF820464FF4001101F0AC
S21400BD7061F84FF0010737704FF0FA00F6F76AFFE8
S21400BD808DF81E408DF820408DF81F404FF01003B0
S21400BD908DF81D308DF81C4020464FF4803101F0A0
S21400BDA041F820464FF480313A4601F029F82846FB
S21400BDB001F09EFF4FF002068DF81E604FF00F0355
S21400BDC08DF81D30284601F093FF4FF011038DF8D3
S21400BDD01D30284601F08CFF4FF012038DF81D3001
S21400BDE0284601F085FF01AD284601F0A5FF48F280
S21400BDF00004C4F208042046294602F081FC4FF0F5
S21400BE002A00314601F036FE2046394602F0B6FBDF
S21400BE102246D36813F0100FFBD148F20003C4F299
S21400BE200803DB6813F0040F0AD048F20003C4F2DC
S21400BE3008039A680992099ADA6812F0040FF8D192
S21400BE404FF00000FFF736FE4FF000004FF4803151
S21400BE5000F0E8FF0BB0F0BD30B585B00C460D46DF
S21400BE6004281FD10B78012B11D02BB1022B18BF41
S21400BE70042440F094810FE0FFF7DCFB10B94FF08C
S21400BE8000048CE1FFF72EFF4FF0000487E1FFF778
S21400BE9049FF4FF0000482E1FFF7CCFB68704FF0DB
S21400BEA000047CE140F23403C1F200031B6813F087
S21400BEB0010F18BF032040F073810E2810D8DFE86A
S21400BEC010F012001E006E0074000F000F000F002E
S21400BED00F000F000F0004010D011D012D01490187
S21400BEE04FF0040459E14FF000004FF4803100F0A9
S21400BEF0A1FFFFF7A5FBFF2840F04D8148E14FF07A
S21400BF0049004FF00001FFF72BFD002840F0438169
S21400BF1068464FF01001FFF7C5FB002800F03B8194
S21400BF209DF800304FEA9313012B0ED19DF809308F
S21400BF309DF8082003F1010303EB02239BB24FEAAE
S21400BF40832323604FF0000427E19DF808209DF826
S21400BF5007304FEA830303EB92139DF8062002F0A6
S21400BF60030203F1010303EB822292B29DF80A104A
S21400BF709DF8053003F00F0303EBD1139DF809106D
S21400BF8001F0030103F1020303EB4103DBB2A3F16B
S21400BF90090302FA03F323604FF00004FDE04FF4B8
S21400BFA000730B804FF00004F7E045F25843C1F2EF
S21400BFB000031B7C13F0040F40D04FF0CD004FF071
S21400BFC00001FFF7CDFC002840F0E58048F20003B2
S21400BFD0C4F208034FF0FF029A601A46D36813F0C3
S21400BFE0100FFBD148F20003C4F208039B686846B2
S21400BFF04FF01001FFF756FB002800F0CC804FF002
S21400C000300148F20002C4F208024FF0FF009060D0
S21400C010D36813F0100FFBD1936801F1FF31C9B25A
S21400C0200029F4D19DF80A304FEA13134FF010029E
S21400C03002FA03F323604FF00004AEE04FF049002D
S21400C0404FF00001FFF78CFC002840F0A480684603
S21400C0504FF01001FFF726FB002800F09C8045F209
S21400C0605843C1F200031B7C13F0020F17D09DF853
S21400C0700B304FEAD31303F101039DF80A2002F0B8
S21400C0803F0203EB42029DF80D304FEA931303F193
S21400C090FF3302FA03F323604FF000047DE09DF8BF
S21400C0A00B309DF80A20C2F3840202F101024FEA27
S21400C0B0531101F1010103F0030301EBC30303FB7A
S21400C0C002F323604FF0000467E045F25843C1F2E4
S21400C0D000031B7C0B704FF000045EE04FF049003D
S21400C0E04FF00001FFF73CFC002854D120464FF0EB
S21400C0F01001FFF7D7FA00284AD14CE04FF04A006B
S21400C1004FF00001FFF72CFC002844D120464FF0EA
S21400C1101001FFF7C7FA00283AD13CE04FF07A004A
S21400C1204FF00001FFF71CFC002834D14FF000014F
S21400C13048F20002C4F208024FF0FF009060D36895
S21400C14013F0100FFBD19368635401F10101042929
S21400C150F4D11DE04FF0CD004FF00001FFF700FCDA
S21400C160C8B948F20003C4F208034FF0FF029A6011
S21400C1701A46D36813F0100FFBD148F20003C4F23E
S21400C18008039B6828464FF04001FFF78BFA10B172
S21400C1904FF0000401E04FF00104FFF7DDFC2046FD
S21400C1A005B030BDF0B583B040F23403C1F20003F1
S21400C1B01B6813F0020F05D040F23403C1F20003EF
S21400C1C01868DFE0FFF7AEFD4FF00000FFF772FCE7
S21400C1D04FF00A0148F20002C4F208024FF0FF00D6
S21400C1E09060D36813F0100FFBD1936801F1FF3114
S21400C1F0C9B20029F4D14FF04000FFF7B1FB012887
S21400C20040F0C28045F25843C1F200034FF064028A
S21400C2109A604FF048004FF4D571FFF7A1FB012854
S21400C22067D14FF0000148F20002C4F208024FF056
S21400C230FF0401A89460D36813F0100FFBD1936835
S21400C240435401F101010429F4D19DF80630012B75
S21400C25040F09A809DF80730AA2B40F0958045F272
S21400C2605843C1F200034FF47A729A601C464FF0AE
S21400C270E9054FF08046A36803F1FF33A360A36887
S21400C2802BB128463146FFF76BFB0028F3D145F269
S21400C2905843C1F200039B68002B75D04FF07A001C
S21400C2A04FF00001FFF75CFB00286DD14FF0000354
S21400C2B048F20002C4F2080200F1FF0001A99060F3
S21400C2C0D46814F0100FFBD19468CC5403F101032A
S21400C2D0042BF4D19DF8043013F0400F14BF0C2249
S21400C2E0042245F25843C1F200031A74FFF734FCE7
S21400C2F034E04FF0E9004FF00001FFF731FB012872
S21400C30094BF02270127012894BFE925412545F25D
S21400C3105844C1F200044FF00006A36803F1FF334F
S21400C320A360A3682BB128463146FFF719FB002807
S21400C330F3D145F25843C1F200039B6823B34FF094
S21400C34050004FF40071FFF70BFBE8B945F2584375
S21400C350C1F200031F74FFF7FFFB67B140F234031E
S21400C360C1F200031A6822F001021A604FF00100C1
S21400C370FFF7A0FB01E0FFF7B5FC40F23403C1F283
S21400C3800003186803B0F0BD45F25843C1F200033D
S21400C3904FF000021A74FFF7DFFBECE700B589B038
S21400C3A06846FFF763F806984FEA4050039B40EA5A
S21400C3B00340029B40EAC320019B40EA4310009BD7
S21400C3C040EA5300079BA3F5F663A3F10C0340EA8B
S21400C3D0436009B000BD00BFFEE700BF45F26C43F6
S21400C3E0C1F200039A68DB6883EA020313F0FF0FCA
S21400C3F00CBF00200120704708B54CF20000C4F2C4
S21400C400000002F07BFA012814BF0020012008BDBE
S21400C4102DE9F04587B04FF001078DF80E704FF00C
S21400C42000068DF810608DF80F604FF0020A8DF848
S21400C4300DA006AC04F80C6D204601F059FC4FF038
S21400C44003088DF80D80204601F052FC01AD284609
S21400C45002F048FA4FF4164301934CF20004C4F27B
S21400C46000042046294603F08FF905AD284602F061
S21400C4704BFA2046294602F0C5FC204631464CF2CF
S21400C480ED62C0F2000202F059FA204639464CF23C
S21400C4907552C0F2000202F051FA204641464CF2B4
S21400C4A0D932C0F2000202F049FA2046394602F0BC
S21400C4B0BBFB204631463A4602F066FD2046514612
S21400C4C03A4602F061FD45F26C43C1F2000383F880
S21400C4D010629E60DE601E605E604EF20013CEF25A
S21400C4E000034FF0480283F805234FF020021A603D
S21400C4F007B0BDE8F08500BFF8B54CF20005C4F201
S21400C50000054FF0000645F26C44C1F200044FF0FF
S21400C510010728463146324602F036FDA368E26837
S21400C52082EA030313F0FF0F19D045F26C43C1F201
S21400C5300003DA681A4492F81041DA6802F1010240
S21400C54002F0FF02DA604CF20000C4F200004FF086
S21400C55000014FF0010202F017FD2046F8BD284604
S21400C56031463A4602F010FDD3E700BF08B5FFF7A4
S21400C570C3FF08BD2DE9F0414CF20000C4F20000F4
S21400C5804FF001014FF0000202F0FEFC4CF20004F6
S21400C590C4F20004204602F0B1F90128FAD045F2B0
S21400C5A06C43C1F200031A685B6883EA020313F067
S21400C5B0FF0F22D045F26C44C1F200044CF2000595
S21400C5C0C4F2000504F110064FF001074FF0000812
S21400C5D06168284631443A46434602F007FF60B198
S21400C5E0636803F1010303F0FF0363602368626876
S21400C5F082EA030313F0FF0FEAD145F26C43C1F25F
S21400C60000031A685B6883EA020313F0FF0F12D177
S21400C6104CF20000C4F200004FF001014FF000029F
S21400C62002F0B2FC45F26C43C1F200034FF0000288
S21400C63083F810220EE045F26C43C1F200034FF07F
S21400C640010283F810224CF20000C4F200001146EA
S21400C65002F09AFCBDE8F0812DE9F84582464CF2DE
S21400C6600006C4F200064FF001054FF0000845F240
S21400C6706C44C1F2000430462946424602F084FC6F
S21400C6806268236803F1010383EA020313F0FF0FD5
S21400C6900ED1474694F8103213B9FFF76BFF04E04B
S21400C6A0304629462A4602F06FFC002FE3D00BE006
S21400C6B02368234483F810A0236803F1010303F0E2
S21400C6C0FF0323602F46E5E7BDE8F88508B5FFF7CA
S21400C6D0C3FF08BD10B50446007828B1FFF7BCFFBD
S21400C6E014F8010F0028F9D110BD00BF2DE9F04164
S21400C6F082B04CF20005C4F200050DF107064FF0BB
S21400C70001074FF0000845F26C44C1F200042846C9
S21400C71031463A46434602F0EFFDA8B1E268A36808
S21400C72003F1010383EA020313F0FF0FEFD0A368BF
S21400C7309DF80720234483F81021A36803F1010322
S21400C74003F0FF03A360E2E702B0BDE8F08100BF9C
S21400C75008B502F025F908BD2DE9F04F91B0F4F7C1
S21400C760AFFBFFF755FE4AF64850C0F20100FFF750
S21400C770B1FF47F64833C1F200034CF2CD62C0F277
S21400C78000021A6047F64433C1F200034CF26D52C1
S21400C790C0F200021A604AF66C50C0F2010000F0C7
S21400C7A0A3F903F0BDF950B14AF68050C0F201007B
S21400C7B000F09AF94FF4605003F048FDFEE704F0ED
S21400C7C0CFFE4AF69450C0F20100FFF783FF03F055
S21400C7D013FC4AF6A850C0F20100FFF77BFF04F0F6
S21400C7E031FB4AF6BC50C0F20100FFF773FF4AF671
S21400C7F0D450C0F20100FFF76DFF4FF0010004F0C7
S21400C800E7F84AF6F850C0F20100FFF763FF47F674
S21400C8104833C1F2000341F23912C0F200021A6036
S21400C82047F64433C1F2000341F2E102C0F20002CF
S21400C8301A604AF60C60C0F2010000F055F94FF09D
S21400C840000440F2F806C1F2000625464BF22067C7
S21400C850C0F201074FF040094AF63468C0F20108FA
S21400C8604AF6106BC0F2010BF4F73AFC0A2814BF24
S21400C870002301230D2808BF43F001030BB93F2C0A
S21400C88013D110AA144404F8405C384600F02CF982
S21400C8906846494604F0E6FB10B1584600F024F915
S21400C8A0404600F021F92C46DEE77F2806D1002C12
S21400C8B0DAD004F1FF34F4F73FFCD5E71B28D3D0D9
S21400C8C0336803445B7813F0970F08BF3F203F2C74
S21400C8D0CAD810AA02EB040303F8400C04F10104C2
S21400C8E0F4F72AFCC0E700BF10B504460A2807D1B3
S21400C8F047F64833C1F200031B684FF00D00984717
S21400C90047F64833C1F200031B682046984710BD1F
S21400C91010B50446007828B1FFF7E6FF14F8010FBB
S21400C9200028F9D110BD00BF10B44FF000030B6013
S21400C93002681378202B05D102F1010202601378F9
S21400C940202BF9D02D2B11BF002401320260137862
S21400C95008BF0124302B24D1026802F101020260D4
S21400C9601378622B08D0782B0DD102F101020260F9
S21400C97013784FF0100C1BE002F1010202601378EE
S21400C9804FF0020C14E0202B98BF012037D9A3F1FA
S21400C9903002D2B2092A30D84FF0080C4FF000020D
S21400C9A00BE0A3F13002D2B2092A26D84FF00A0CC7
S21400C9B0202B98BF0022F1D818E0602B84BF203BC4
S21400C9C0DBB2A3F13003DBB2102B04D9A3F10703CB
S21400C9D0DBB2092B11D963450FD20CFB0232036878
S21400C9E003F1010303601B78202BE6D80CB1C2F1DB
S21400C9F000020A604FF0010001E04FF0000010BC9A
S21400CA00704700BF2DE9F84582464FF0000647F60E
S21400CA104435C1F2000501F1FF374FF020082B68BE
S21400CA209847044610B94FF000002AE00D281ED0A3
S21400CA30321E18BF0122082814BF002202F001028D
S21400CA4052B106F1FF36FFF74FFF4046FFF74CFFA7
S21400CA502046FFF749FFE2E71F28E0DDBE42DEDAA8
S21400CA600AF8060006F10106FFF73EFFD7E74FF08B
S21400CA7000030AF806304FF00A00FFF735FF4FF0C4
S21400CA800100BDE8F88500BF037833B14FF000031E
S21400CA9003F10103C25C002AFAD11846704700BFB2
S21400CAA04FF00003CA5CC25403F10103002AF9D117
S21400CAB0704700BF134632B14FF00002815402F1B6
S21400CAC001029342FAD1704703784BB1C9B28B4248
S21400CAD002D107E08B4205D010F8013F002BF9D1B8
S21400CAE04FF00000704700BF0FB42DE9F04F87B03D
S21400CAF010AB53F8047B05934FF0000A0DF10408C1
S21400CB004FF02D0B4FF00109CDE007F10107252866
S21400CB1002D0FFF7E9FEC6E017F8010B302812BF77
S21400CB20544617F8010B4C46A0F13003DBB2092B34
S21400CB3088BF56460DD8564606EB860600EB4606D8
S21400CB40A6F1300617F8010BA0F13003DBB2092B73
S21400CB50F2D94C2814BF002301236C2808BF43F0E9
S21400CB6001031BB144F0020417F8010B002800F083
S21400CB709E80602892BF0146A0F12001C9B2A1F1B3
S21400CB804203162B26D8DFE803F028171F25252595
S21400CB90252525252525250C2525250F251F252575
S21400CBA022004FF0080C1AE0059B03F104020592E0
S21400CBB01868FFF7ADFE76E0059B03F104020592C8
S21400CBC01878FFF791FE6EE04FF00A0C07E04FF082
S21400CBD0100C04E0FFF788FE65E04FF0020C14F03E
S21400CBE0020F05D0059B03F1040205921A680DE0BA
S21400CBF0442905D1059B03F1040205921A6805E055
S21400CC00059B03F1040205921A680BE04FEAD27303
S21400CC10442914BF002103F0010119B1C2F100023A
S21400CC2044F004045546B2FBFCF10CFB1123DBB2C6
S21400CC300A46092B06D903F10703DBB2782804BF9E
S21400CC402033DBB203F1300308F8053005F10105A7
S21400CC500F2D8CBF00230123002A0CBF002303F0F6
S21400CC600103002BDFD114F0040F1FBF06A94A19D9
S21400CC7002F814BC0135B5420BD204F00104002CB6
S21400CC8014BF30202020FFF72FFE06F1FF36B542F6
S21400CC90F5D308EB050405F1FF3514F8010DFFF791
S21400CCA023FE002DF7D1387800287FF42EAF07B08A
S21400CCB0BDE8F04F04B07047F8B5064615464AF68C
S21400CCC03860C0F20100FFF70FFF002D26DD4FF0A1
S21400CCD000044AF64067C0F201073846315DFFF7A8
S21400CCE003FF04F10104A542F7DC4FF02000FFF734
S21400CCF0FBFD4FF00004335DA3F12000C0B25E28B8
S21400CD0094BF18462E20FFF7EFFD04F10104A5425C
S21400CD10F1DC4FF00A00FFF7E7FDF8BD4FF020000A
S21400CD20FFF7E2FDF5E700BF042809D8DFE800F0CA
S21400CD30030B10151A004CF20000C2F2090015E0B1
S21400CD404FF0000012E04CF22000C2F209000DE0A5
S21400CD504CF24000C2F2090008E04CF26000C2F259
S21400CD60090003E04CF28000C2F20900704700BFE1
S21400CD70042809D8DFE800F0030B10151A004CF25F
S21400CD800000C2F2090015E04FF0000012E04CF27D
S21400CD902000C2F209000DE04CF24000C2F2090089
S21400CDA008E04CF26000C2F2090003E04CF280009A
S21400CDB0C2F20900704700BF042809D8DFE800F077
S21400CDC0030B10151A004CF20000C2F2090015E021
S21400CDD04FF0000012E04CF22000C2F209000DE015
S21400CDE04CF24000C2F2090008E04CF26000C2F2C9
S21400CDF0090003E04CF28000C2F20900704700BF51
S21400CE0038B50C461546FFF78FFF48B125B10268C6
S21400CE1044EA0204046003E0026822EA04040460B0
S21400CE2038BD00BF10B50C46FFF77EFF00B1846129
S21400CE3010BD00BF10B50C46FFF776FF00B1C46109
S21400CE4010BD00BF08B5FFF76FFF00B1406908BD11
S21400CE5008B5FFF7D5FF08BD08B5FFF7E3FF08BD27
S21400CE6008B5FFF7E7FF08BD08B5FFF7EBFF08BDFD
S21400CE7038B50C461546FFF757FF48B125B102698D
S21400CE8044EA0204046103E0026922EA040404613D
S21400CE9038BD00BF70B50C4616461D46FFF768FF46
S21400CEA0C8B165B12CB1428892B246EA0206468005
S21400CEB011E0028892B246EA020606800BE02CB128
S21400CEC0428822EA0606B6B2468004E0028822EAD3
S21400CED00606B6B2068070BD70B50C4616461D46F0
S21400CEE0FFF746FFC8B165B12CB1428A92B246EA56
S21400CEF00206468211E0028A92B246EA02060682DC
S21400CF000BE02CB1428A22EA0606B6B2468204E05C
S21400CF10028A22EA0606B6B2068270BD38B50D460B
S21400CF201446FFF725FF18B10DB1448300E00483D3
S21400CF3038BD00BF38B50D461446FFF719FF18B1C7
S21400CF400DB1C48300E0848338BD00BF10B50C4625
S21400CF50FFF70EFF28B114B1C08A80B201E0808AC4
S21400CF6080B210BD70B50C4616461D46FFF724FF6E
S21400CF7068B135B1032C0AD8025D42EA06060655AA
S21400CF8005E0032C9EBF025D22EA0606065570BD2C
S21400CF9070B50C4616461D46FFF70EFF034678B1E1
S21400CFA03DB1032C0CD80444237C43EA06062674C1
S21400CFB006E0032C9FBF2418237C23EA060626746B
S21400CFC070BD00BF38B50C461546FFF7F5FE18B124
S21400CFD0032C9CBF0419257638BD00BF38B50C4617
S21400CFE01546FFF7E9FE18B1032C9CBF04192577F8
S21400CFF038BD00BF10B50C46FFF7DEFE20B1032C8F
S21400D00002D80444207D01E04FF0000010BD00BFB0
S21400D010072905D8DFE801F0070C11161B20272C7E
S21400D0204FF000002AE090F8600000F03F0025E096
S21400D03090F8640000F03F0020E090F8680000F0F0
S21400D0401F001BE090F8700000F0070016E090F854
S21400D0506C0000F01F0011E0B0F874004FEAC050FA
S21400D0604FEAD0500AE090F8780000F00F0005E094
S21400D070B0F87C004FEA00504FEA1050704700BFEF
S21400D08038B505460C4644F20003C4F20203984243
S21400D09007D04AF64860C0F2010040F2033100F0C3
S21400D0A0ADFD042C07D94AF64860C0F201004FF4E3
S21400D0B0417100F0A3FD05F1440555F8240038BD84
S21400D0C070B505460C46164644F20003C4F2020349
S21400D0D0984207D04AF64860C0F2010040F2EB21C1
S21400D0E000F08CFD042C07D94AF64860C0F2010017
S21400D0F04FF43B7100F082FD05F1440545F82460CD
S21400D10070BD00BF70B506460C46154644F20003D7
S21400D110C4F20203984207D04AF64860C0F2010003
S21400D12040F2D32100F06AFD012D07D94AF6486087
S21400D130C0F201004FF4357100F060FDB4F5003F19
S21400D14007D84AF64860C0F2010040F2D52100F048
S21400D15055FD012D0CBF4FF40035002504F1FF34BA
S21400D16024F07F4424F47E0445EA0404346470BD4D
S21400D17038B504460D4644F20003C4F20203984252
S21400D18007D04AF64860C0F2010040F2B92100F02C
S21400D19035FD012D07D94AF64860C0F2010040F27D
S21400D1A0BA2100F02BFD012D03BF237A03F0030301
S21400D1B02372237A1CBF43F01003237238BD00BFCE
S21400D1C038B504460D4644F20003C4F20203984202
S21400D1D007D04AF64860C0F2010040F2A92100F0EC
S21400D1E00DFD05F1FF33012B07D94AF64860C0F262
S21400D1F0010040F2AA2100F001FDEDB2257038BD15
S21400D20038B505460C4644F20003C4F202039842C1
S21400D21007D04AF64860C0F2010040F2962100F0BE
S21400D220EDFC04F1FF33012B07D94AF64860C0F243
S21400D230010040F2972100F0E1FC2B781C420CBF65
S21400D2400020012038BD00BF38B504460D4644F224
S21400D2500003C4F20203984207D04AF64860C0F2C0
S21400D260010040F27B2100F0C9FC94F86C3003F01A
S21400D2701F03EB6094F8703003F007032B61B4F8DB
S21400D28074304FEAC3534FEAD3536B6194F8683057
S21400D29003F01F03AB6094F8643003F03F036B6049
S21400D2A094F8603003F03F032B6094F8783003F076
S21400D2B00F03AB61B4F87C304FEA03534FEA1353C5
S21400D2C0EB6138BD38B504460D4644F20003C4F29F
S21400D2D00203984207D04AF64860C0F2010040F2C6
S21400D2E0652100F08BFC2B7B03F01F0384F86C3069
S21400D2F02B7C03F0070384F87030AB8A4FEAC353E5
S21400D3004FEAD353A4F874302B7A03F01F0384F843
S21400D31068302B7903F03F0384F864302B7803F0F1
S21400D3203F0384F860302B7E03F00F0384F87830D8
S21400D330AB8B4FEA03534FEA1353A4F87C3038BD47
S21400D34070B504460E46154644F20003C4F20203C6
S21400D350984207D04AF64860C0F2010040F2EF114A
S21400D36000F04CFC072E00F28A80DFE806F004137B
S21400D3702231405165763A2D07D94AF64860C0F208
S21400D38001004FF4FA7100F039FC05F03F0584F80F
S21400D390605074E03A2D07D94AF64860C0F20100A2
S21400D3A04FF4FD7100F02AFC05F03F0584F8645048
S21400D3B065E0162D07D94AF64860C0F201004FF422
S21400D3C0007100F01BFC05F01F0584F8685056E05D
S21400D3D0052D07D94AF64860C0F2010040F2062142
S21400D3E000F00CFC05F0070584F8705047E0A5F146
S21400D3F002031C2B07D94AF64860C0F2010040F22F
S21400D4000D2100F0FBFB05F01F0584F86C5036E09C
S21400D410A5F10203B3F5B67F07D34AF64860C0F21B
S21400D42001004FF4057100F0E9FB4FEAC5554FEADD
S21400D430D555A4F8745022E0A5F10203092B07D9AC
S21400D4404AF64860C0F2010040F21B2100F0D6FB0D
S21400D45005F00F0584F8785011E040F6FE739D4203
S21400D46007D94AF64860C0F2010040F2212100F0D8
S21400D470C5FB4FEA05554FEA1555A4F87C5070BD1C
S21400D48038B504460D4644F20003C4F2020398423F
S21400D49007D04AF64860C0F2010040F2D11100F011
S21400D4A0ADFB94F82C3003F01F03EB6094F830309B
S21400D4B003F007032B61A38E4FEAC3534FEAD353FF
S21400D4C06B6194F8283003F01F03AB6094F82430A7
S21400D4D003F03F036B6094F8203003F03F032B60AB
S21400D4E094F8383003F00F03AB61A38F4FEA035371
S21400D4F04FEA1353EB6138BD38B504460D4644F287
S21400D5000003C4F20203984207D04AF64860C0F20D
S21400D510010040F2BB1100F071FB2B7B03F01F03F0
S21400D52084F82C302B7C03F0070384F83030AB8A69
S21400D5304FEAC3534FEAD353A3862B7A03F01F0355
S21400D54084F828302B7903F03F0384F824302B78B6
S21400D55003F03F0384F820302B7E03F00F0384F89B
S21400D5603830AB8B4FEA03534FEA1353A38738BDCB
S21400D57038B505460C4644F20003C4F2020398424E
S21400D58007D04AF64860C0F2010040F28D1100F064
S21400D59035FB072C07D94AF64860C0F201004FF465
S21400D5A0C77100F02BFB072C05D8DFE804F0070C4A
S21400D5B011161B20262B4FF0000028E095F82000BF
S21400D5C000F03F0023E095F8240000F03F001EE046
S21400D5D095F8280000F01F0019E095F8300000F0DC
S21400D5E0070014E095F82C0000F01F000FE0A88E4E
S21400D5F04FEAC0504FEAD05009E095F8380000F0E6
S21400D6000F0004E0A88F4FEA00504FEA105038BDD4
S21400D61070B505460C46164644F20003C4F20203F3
S21400D620984207D04AF64860C0F2010040F2431123
S21400D63000F0E4FA072C07D94AF64860C0F2010069
S21400D6404FF4A27100F0DAFA072C00F28880DFE8C7
S21400D65004F004132231405164753A2E07D94AF675
S21400D6604860C0F2010040F2491100F0C7FA06F027
S21400D6703F0685F8206072E03A2E07D94AF64860E1
S21400D680C0F2010040F24F1100F0B8FA06F03F0673
S21400D69085F8246063E0162E07D94AF64860C0F283
S21400D6A0010040F2551100F0A9FA06F01F0685F8B1
S21400D6B0286054E0052E07D94AF64860C0F20100FB
S21400D6C040F25B1100F09AFA06F0070685F8306023
S21400D6D045E0A6F102031C2B07D94AF64860C0F2C3
S21400D6E001004FF4B17100F089FA06F01F0685F8C4
S21400D6F02C6034E0A6F10203B3F5B67F07D34AF6F2
S21400D7004860C0F2010040F2691100F077FA4FEA73
S21400D710C6564FEAD656AE8621E0A6F10203092B7E
S21400D72007D94AF64860C0F201004FF4B87100F01D
S21400D73065FA06F00F0685F8386010E040F6FE73CE
S21400D7409E4207D94AF64860C0F201004FF4BB710A
S21400D75000F054FA4FEA06564FEA1656AE8770BDEA
S21400D76070B504460E46154644F20003C4F20203A2
S21400D770984207D04AF64860C0F201004FF0EF0129
S21400D78000F03CFA012D07D94AF64860C0F20100C5
S21400D7904FF0F00100F032FA072E07D94AF648603B
S21400D7A0C0F201004FF0F10100F028FA012D2FD150
S21400D7B0072E5CD8DFE806F004090E13181D222792
S21400D7C0237C03F0FE03237451E0237C03F0FD0367
S21400D7D023744CE0237C03F0FB03237447E0237C94
S21400D7E003F0EF03237442E0237C03F0F703237473
S21400D7F03DE0237C03F0DF03237438E0237C03F052
S21400D800BF03237433E0237C03F07F0323742EE0EE
S21400D810072E2CD8DFE806F004090E13181D222761
S21400D820237C43F00103237421E0237C43F00203AE
S21400D83023741CE0237C43F00403237417E0237C4A
S21400D84043F01003237412E0237C43F00803237490
S21400D8500DE0237C43F02003237408E0237C43F090
S21400D8604003237403E0237C43F08003237470BDDD
S21400D87070B504460E46154644F20003C4F2020391
S21400D880984207D04AF64860C0F201004FF0930174
S21400D89000F0B4F9012D07D94AF64860C0F201003D
S21400D8A04FF0940100F0AAF9072E07D94AF648600F
S21400D8B0C0F201004FF0950100F0A0F9012D2FD124
S21400D8C0072E5CD8DFE806F004090E13181D222781
S21400D8D0237B43F00103237351E0237B43F00203D1
S21400D8E023734CE0237B43F00403237347E0237B3E
S21400D8F043F01003237342E0237B43F008032373B3
S21400D9003DE0237B43F02003237338E0237B43F082
S21400D9104003237333E0237B43F0800323732EE01E
S21400D920072E2CD8DFE806F004090E13181D222750
S21400D930237B03F0FE03237321E0237B03F0FD0328
S21400D94023731CE0237B03F0FB03237317E0237B86
S21400D95003F0EF03237312E0237B03F0F703237334
S21400D9600DE0237B03F0DF03237308E0237B03F043
S21400D970BF03237303E0237B03F07F03237370BD91
S21400D98038B504460D4644F20003C4F2020398423A
S21400D99007D04AF64860C0F201004FF06C0100F074
S21400D9A02DF9012D07D94AF64860C0F201004FF064
S21400D9B06D0100F023F9012D03BF237A43F0010324
S21400D9C02372237A1CBF03F01203237238BD00BFF4
S21400D9D010B5044644F20003C4F20203984207D08E
S21400D9E04AF64860C0F201004FF05C0100F006F90C
S21400D9F0237A43F002032372237A03F0110323727F
S21400DA0010BD00BF10B5044644F20003C4F2020382
S21400DA10984207D04AF64860C0F201004FF04E0127
S21400DA2000F0ECF84FF0000121724FF4007000F0A7
S21400DA307FF810BD10B5044644F20003C4F202039A
S21400DA40984207D04AF64860C0F201004FF038010D
S21400DA5000F0D4F84FF400704FF0010100F068F8C1
S21400DA604FF000032370237223734FF0FF322274AB
S21400DA70236410BD10B41F2818D94CF20003C4F25A
S21400DA800F03D3F8AC41A0F120004FF0030202FAD6
S21400DA9000F224EA0202C3F8AC21D3F8AC2101FA62
S21400DAA000F040EA0200C3F8AC0115E04CF20003B7
S21400DAB0C4F20F03D3F8A8414FF0030202FA00F2B3
S21400DAC024EA0202C3F8A821D3F8A82101FA00F13B
S21400DAD041EA0201C3F8A81110BC70471F289DBF79
S21400DAE04CF20003C4F20F03D3F8A831203882BFEB
S21400DAF04CF20003C4F20F03D3F8AC3123FA00F063
S21400DB0000F00300704700BF10B540F20803C1F2F2
S21400DB1000031C68FFF7E2FF034618B1032808BF9E
S21400DB20082301E04FF00403B4FBF3F010BD00BF80
S21400DB30012910D14CF20003C4F20F03D3F8C4102D
S21400DB404FF2DE72CEF6EF7200EA020242EA0102FD
S21400DB50C3F8C42010E079B94CF20003C4F20F03F6
S21400DB60D3F8C4104FF2DE72CEF6EF7201EA02026C
S21400DB7022EA0000C3F8C400704700BF4CF200035E
S21400DB80C4F20F034FF00002C3F8C02030BF704746
S21400DB904EF60053CEF200034FF004021A614CF228
S21400DBA00003C4F20F034FF00002C3F8C02030BFDA
S21400DBB0704700BF4EF60053CEF200034FF004024B
S21400DBC01A614CF20003C4F20F034FF00102C3F8CF
S21400DBD0C02030BF704700BF4EF60053CEF20003A1
S21400DBE04FF004021A614CF20003C4F20F034FF028
S21400DBF00302C3F8C02030BF704700BFFEE700BF77
S21400DC004FEA40000F2984BF103901304CF2000360
S21400DC10C4F2020303EB80034FEA41014FF0030C0A
S21400DC200CFA01FC186820EA0C0002FA01F140EA3E
S21400DC3001011960704700BF012808D14CF20003AB
S21400DC40C4F202039A6A42F008029A6208E038B9FF
S21400DC504CF20003C4F202039A6A22F008029A62A7
S21400DC60704700BF4FEA40000F2984BF10390130CB
S21400DC704CF24003C4F2020303EB80034FEA410177
S21400DC804FF0030C0CFA01FC186820EA0C0002FAAC
S21400DC9001F140EA01011960704700BF012A0ED168
S21400DCA04CF26803C4F2020303EB80004FF001035A
S21400DCB003FA01F1036843EA010101600DE04CF24A
S21400DCC06803C4F2020303EB80004FF0010303FA7B
S21400DCD001F1036823EA010101607047002914BFBF
S21400DCE005210A214CF20003C4F20203D9677047EB
S21400DCF010B5044600786178A278FFF781FF207897
S21400DD006178E278FFF7AEFF207861782279FFF736
S21400DD10C5FF10BD48F20003C4F20803984208BFCE
S21400DD20002008D040F20003C4F2030398420CBF60
S21400DD3001204FF0FF3070474FF0000343608360D0
S21400DD4044F24022C0F20F0242614FF00702026026
S21400DD50C3600361704700BF08B545F28063C1F237
S21400DD6000039B6848F20000C4F20800984708BD0C
S21400DD7008B545F28063C1F200035B6940F200001B
S21400DD80C4F20300984708BD70B504460E46154613
S21400DD9048F20003C4F2080340F20002C4F2030291
S21400DDA0821A18BF012298420CBF002302F001031A
S21400DDB03BB14AF68C60C0F201004FF44471FFF7A5
S21400DDC01DFF06F1FF33012B07D94AF68C60C0F21F
S21400DDD0010040F21131FFF711FF012D07D94AF675
S21400DDE08C60C0F2010040F21231FFF707FF012DF0
S21400DDF003BF636A1E436662636A1EBF03F00303C3
S21400DE0023EA0606666270BD38B504460D4648F23B
S21400DE100003C4F2080340F20002C4F20302821AAE
S21400DE2018BF012298420CBF002302F001033BB149
S21400DE304AF68C60C0F201004FF43F71FFF7DEFE39
S21400DE4005F1FF33012B07D94AF68C60C0F20100BA
S21400DE5040F2FD21FFF7D2FE256238BD38B50546F3
S21400DE600C4648F20003C4F2080340F20002C4F273
S21400DE700302821A18BF012298420CBF002302F048
S21400DE8001033BB14AF68C60C0F201004FF43A71D0
S21400DE90FFF7B4FE04F1FF32231F18BF0123012A47
S21400DEA094BF002303F001034BB1082C07D04AF6B9
S21400DEB08C60C0F2010040F2E921FFF79FFEEB699B
S21400DEC01C420CBF0020012038BD00BF38B50546F7
S21400DED00C4648F20003C4F2080340F20002C4F203
S21400DEE00302821A18BF012298420CBF002302F0D8
S21400DEF001033BB14AF68C60C0F2010040F2D22129
S21400DF00FFF77CFE04F1FF32231F18BF0123012A0E
S21400DF1094BF002303F001034BB1082C07D04AF648
S21400DF208C60C0F2010040F2D321FFF767FEAB69B8
S21400DF301C420CBF0020012038BD00BF70B504464F
S21400DF400D46164648F20003C4F2080340F20002EB
S21400DF50C4F20302821A18BF012298420CBF0023A3
S21400DF6002F001033BB14AF68C60C0F2010040F2B9
S21400DF70B521FFF743FE05F1FF322B1F18BF012323
S21400DF80012A94BF002303F001034BB1082D07D0EC
S21400DF904AF68C60C0F2010040F2B621FFF72EFE72
S21400DFA0012E03BF63691D43656163691EBF03F0ED
S21400DFB00F0323EA0505656170BD00BF38B5054649
S21400DFC00C4648F20003C4F2080340F20002C4F212
S21400DFD00302821A18BF012298420CBF002302F0E7
S21400DFE001033BB14AF68C60C0F2010040F29E216C
S21400DFF0FFF704FE04F1FF32231F18BF0123012A96
S21400E00094BF002303F001038BB1B4F1100318BFD3
S21400E0100123082C0CBF002303F001033BB14AF692
S21400E0208C60C0F2010040F29F21FFF7E7FDEB682D
S21400E0301C420CBF0020012038BD00BF10B50446AE
S21400E04048F20003C4F2080340F20002C4F20302DE
S21400E050821A18BF012298420CBF002302F0010367
S21400E0603BB14AF68C60C0F2010040F2CF11FFF7D8
S21400E070C5FDA06880B210BD38B504460D4648F20E
S21400E0800003C4F2080340F20002C4F20302821A3C
S21400E09018BF012298420CBF002302F001033BB1D7
S21400E0A04AF68C60C0F2010040F2C111FFF7A6FDEF
S21400E0B0A56038BD2DE9F84F05460C4693464FF04F
S21400E0C00003CB604B604B61C36813F0040F06D0AF
S21400E0D02846FFF7B3FFEB6813F0040FF8D14FF0B4
S21400E0E003032B622846FFF715FE45F28063C1F254
S21400E0F0000300EB400253F82260BBF1000F79D119
S21400E1001EB9A768D4F800A05DE0D4F80880D4F85B
S21400E110009058E0E96811F0020F2BD0934229D006
S21400E12023689BB94EB928464FF0FF01FFF7A4FFBE
S21400E130636803F1010363601CE028465946FFF755
S21400E1409BFF636803F10203636013E04EB9284641
S21400E1501AF8011BFFF790FF636803F10103636081
S21400E16008E0284639F8021BFFF786FF636803F1CC
S21400E17002036360AB6913F0010F1BD043F4007316
S21400E18063614FF0FF30C2E02846FFF757FFA368F1
S21400E19033B116B907F8010B03E028F8020B05E0C7
S21400E1A026B9E36803F10103E36003E0E36803F1E3
S21400E1B00203E360EB6813F0040F06D0E2682369FD
S21400E1C09A42E1D101E04FF6FF7B636822699342F1
S21400E1D0A0D1E1688B429DD14FF4807363612368C0
S21400E1E00BB1606893E0A36813B94FF000008EE0AF
S21400E1F0E0688CE0BBF1010F18BF4FF0FF3040F035
S21400E200868045F28063C1F200034FF00C0202FBE9
S21400E21000324EF21533C0F200039360546045F2AC
S21400E2208063C1F2000300EB400703EB8707164646
S21400E23054E02268AAB933684BB928464FF0FF016C
S21400E240FFF71AFF636803F1010363601CE02846CA
S21400E2504FF6FF71FFF710FF636803F10203636078
S21400E26012E0396841B92846D15CFFF705FF6368BC
S21400E27003F10103636007E02846D15AFFF7FCFE6E
S21400E280636803F102036360AB6913F0010F1DD0EE
S21400E29043F4007363614FF0FF3038E02846FFF721
S21400E2A0CDFEA3683BB1326812B9E268985404E028
S21400E2B0E268985206E0336823B9E36803F1010385
S21400E2C0E36003E0E36803F10203E360EB6813F046
S21400E2D0040F03D0E26823699A42DFD1EB6813F09B
S21400E2E0020F03D0636822699342A2D1E3682269D1
S21400E2F0934207D16268934202BF4FF48073636112
S21400E300002004D04FF00F036B614FF00000BDE813
S21400E310F88F00BFF8B505464FF000034361FFF7DE
S21400E320F9FC074645F28063C1F2000300EB4002A9
S21400E33003EB82035C68AB699BB2636113F0010F69
S21400E3400CD04FF001032B62636943F400736361E2
S21400E350A369002B00F0AD809847AAE063682269A5
S21400E36093421BD1E268934218D19CE02846FFF7FF
S21400E37065FEA36833B1326812B9E268985401E0CA
S21400E380E2689852336823B9E36803F10103E36057
S21400E3900CE0E36803F10203E36007E045F2806304
S21400E3A0C1F2000307EB470603EB8606EB6813F0A3
S21400E3B0040F5CD0E26823699A42D7D157E02268FE
S21400E3C0AAB933684BB928464FF0FF01FFF754FE51
S21400E3D0636803F1010363601CE028464FF6FF7193
S21400E3E0FFF74AFE636803F10203636012E03168D8
S21400E3F041B92846D15CFFF73FFE636803F101038D
S21400E400636007E02846D15AFFF736FE636803F1DB
S21400E41002036360AB6913F0010F1FD0636943F416
S21400E42000736361A369002B43D0984741E02846F8
S21400E430FFF704FEA36833B1326812B9E268985455
S21400E44001E0E2689852336823B9E36803F10103F8
S21400E450E36003E0E36803F10203E360EB6813F0B4
S21400E460040F0DD0E26823699A4209D0DFE745F22F
S21400E4708063C1F200034FEA47063E4403EB86067C
S21400E480EB6813F0020F03D063682269934296D1BB
S21400E490E3682269934202D16268934203D04FF048
S21400E4A00F036B6105E04FF480736361A36903B1EA
S21400E4B09847F8BD38B504460D4648F20003C4F246
S21400E4C0080340F20002C4F20302821A18BF0122B7
S21400E4D098420CBF002302F001033BB14AF68C6061
S21400E4E0C0F2010040F2A911FFF788FB012D07D901
S21400E4F04AF68C60C0F201004FF4D571FFF77EFB40
S21400E500012D03BF636803F00703636063681CBFE5
S21400E51043F00803636038BD38B504460D4648F23C
S21400E5200003C4F2080340F20002C4F20302821A97
S21400E53018BF012298420CBF002302F001033BB132
S21400E5404AF68C60C0F2010040F28D11FFF756FBD0
S21400E550012D07D94AF68C60C0F201004FF4C7714E
S21400E560FFF74CFB012D03BF636843F001036360B4
S21400E57063681CBF03F00E03636038BD38B50446FD
S21400E5800D4648F20003C4F2080340F20002C4F24B
S21400E5900302821A18BF012298420CBF002302F021
S21400E5A001033BB14AF68C60C0F201004FF4BA7129
S21400E5B0FFF724FB012D07D94AF68C60C0F2010054
S21400E5C040F27511FFF71AFB012D03BF636843F095
S21400E5D00203636063681CBF03F00D03636038BD0D
S21400E5E010B5044648F20003C4F2080340F20002E5
S21400E5F0C4F20302821A18BF012298420CBF0023FD
S21400E60002F001033BB14AF68C60C0F201004FF401
S21400E6108B71FFF7F3FA48F20003C4F208039C423A
S21400E62006D14FF400104FF00001FFF781FA0BE01F
S21400E63040F20003C4F203039C4205D14FF480600D
S21400E6404FF00001FFF774FA10BD00BF70B5044626
S21400E6500D4648F20003C4F2080340F20002C4F27A
S21400E6600302821A18BF012298420CBF002302F050
S21400E67001033BB14AF68C60C0F201004FF0E7019F
S21400E680FFF7BCFA48F20003C4F208039C4204D128
S21400E6904FF02A00FFF738FA09E040F20003C4F210
S21400E6A003039C422BD14FF01400FFF72DFAB5F16F
S21400E6B0FF3F04BF00214FF0020C13D04FF00001C3
S21400E6C04FF0020C0E4601F101030CFB03F2B0FB07
S21400E6D0F2F2954206D2FF2B84BF0CF1020C3346B1
S21400E6E01946F0E7236803F0FF03236023684FEA28
S21400E6F0016143EA114121600CF0FF03236170BD04
S21400E70038B504460D4648F20003C4F2080340F24A
S21400E7100002C4F20302821A18BF012298420CBFFC
S21400E720002302F001033BB14AF68C60C0F2010000
S21400E7304FF49871FFF762FA48F20003C4F2080338
S21400E7409C4206D14FF400104FF00101FFF7F0F99C
S21400E7500BE040F20003C4F203039C4235D14FF4B1
S21400E76080604FF00101FFF7E3F9AA686B6842EAA0
S21400E77003032A6943EA02032A6843EA02039BB2B8
S21400E78023602046FFF7C6FA2B68072B0AD945F206
S21400E7908063C1F2000300EB40004FF0010243F833
S21400E7A020200AE045F28063C1F2000300EB40003F
S21400E7B003EB80034FF000021A60EB6803F00F03D0
S21400E7C0636020466969FFF741FF38BD4CF20003DD
S21400E7D0C4F20003984208BF00200FD040F20003A6
S21400E7E0C4F20103984208BF012007D048F2000394
S21400E7F0C4F2090398420CBF02200320704700BFF2
S21400E800F8B50546FFF7E2FF0646AF6807F00E04C8
S21400E810012815D1A4B940F20003C4F20103187E02
S21400E82045F29863C1F200031B680BB1984732E0CB
S21400E83040F20003C4F201035A6822F088025A60CC
S21400E840062C11D1287D10F09E000DD045F298635D
S21400E850C1F2000303EB06131B690BB198472AE0CD
S21400E8606B6823F004036B600C2C14BF0023012399
S21400E870042C08BF43F001036BB145F29863C1F264
S21400E880000303EB06139B680BB1984703E06B6825
S21400E89023F001036B60022C0DD145F29863C1F2A0
S21400E8A0000303EB06135B680BB1984703E06B6845
S21400E8B023F002036B6017F4407011D02B6A40EA15
S21400E8C003032B6245F29863C1F2000303EB0616BE
S21400E8D0F3680BB1984703E06B6823F440736B60F2
S21400E8E0F8BD00BF4FF4165303604FF003034371A7
S21400E8F04FF0000303718371704700BF007D80F006
S21400E9004000C0F3801070474FF000038370C37060
S21400E9104FF0010303704370704700BF012903BF27
S21400E92090F84C3003F0FD0380F84C3090F84C30F3
S21400E9301CBF43F0020380F84C30704738B50C46D5
S21400E9401546FFF743FF042C29D8DFE804F0030B35
S21400E950131B230045F29863C1F2000303EB00107B
S21400E96085601CE045F29863C1F2000303EB0010DB
S21400E970456014E045F29863C1F2000303EB001013
S21400E980C5600CE045F29863C1F2000303EB00108B
S21400E990056104E045F29863C1F200031D6038BDCE
S21400E9A008B54CF20000C4F20000FFF729FF08BDCE
S21400E9B008B540F20000C4F20100FFF721FF08BDD1
S21400E9C008B548F20000C4F20900FFF719FF08BDB9
S21400E9D008B54CF20000C4F20900FFF711FF08BDAD
S21400E9E038B505460C4640F20003C4F201039842CF
S21400E9F007D04AF6D060C0F2010040F2AA41FFF705
S21400EA00FDF8A378012B07D94AF6D060C0F20100C2
S21400EA1040F2AB41FFF7F2F8E378012B07D94AF64C
S21400EA20D060C0F2010040F2AC41FFF7E7F8E379AE
S21400EA30FF2B07D14AF6D060C0F2010040F2AD418C
S21400EA40FFF7DCF86379012B07D94AF6D060C0F2ED
S21400EA50010040F2AE41FFF7D1F82379012B07D928
S21400EA604AF6D060C0F2010040F2AF41FFF7C6F8A8
S21400EA70A379FF2B07D14AF6D060C0F201004FF40D
S21400EA809661FFF7BBF82378012B07D94AF6D060CA
S21400EA90C0F2010040F2B141FFF7B0F86378012BF5
S21400EAA007D94AF6D060C0F2010040F2B241FFF743
S21400EAB0A5F8E378012B18BF00230CD16379012B4E
S21400EAC014BF102330232279012A08BF43F008031D
S21400EAD0E27985F854202278012A08BF43F0010322
S21400EAE0A278012A02BF43F00403A27985F85020D9
S21400EAF062780AB943F0020303F03F0385F84C300E
S21400EB002B7B43F038032B7338BD00BF10B504468B
S21400EB1040F20003C4F20103984207D04AF6D060E0
S21400EB20C0F201004FF49361FFF768F8207E10BD35
S21400EB3070B505460C46164640F20003C4F20103C3
S21400EB40984207D04AF6D060C0F2010040F26D410C
S21400EB50FFF754F8022C07D94AF6D060C0F201003D
S21400EB6040F26E41FFF74AF8012E07D94AF6D06008
S21400EB70C0F2010040F26F41FFF740F8012C08BFD9
S21400EB80402407D024B1022C0CBF8024002401E0CE
S21400EB904FF01004012E03BF2B7C1C432C742B7CDF
S21400EBA01FBF03F0F30323EA0404E4B22C7470BD21
S21400EBB070B504460D46164640F20003C4F2010343
S21400EBC0984207D04AF6D060C0F2010040F24541B4
S21400EBD0FFF714F8012D07D94AF6D060C0F20100FD
S21400EBE040F24641FFF70AF8012E07D94AF6D060F0
S21400EBF0C0F2010040F24741FFF700F825B1012DB1
S21400EC000CBF0225002501E04FF00105012E03BFD1
S21400EC10237C1D432574237C1FBF03F0F30323EAE4
S21400EC200505EDB2257470BD38B504460D464CF2A8
S21400EC300003C4F2000340F20002C4F20102821A8A
S21400EC4018BF012298420CBF002302F00103C3B193
S21400EC5048F20003C4F209034CF20002C4F20902AF
S21400EC60821A18BF012298420CBF002302F001034B
S21400EC703BB14AF6D060C0F201004FF48361FEF764
S21400EC80BDFF012D07D94AF6D060C0F2010040F260
S21400EC901941FEF7B3FF012D17D140F20003C4F26D
S21400ECA001039C4201BF40F20003C4F2010393F843
S21400ECB0302042F080020FBF83F8302094F83030C6
S21400ECC043F0800384F8303014E040F20003C4F2CE
S21400ECD001039C4201BF40F20003C4F2010393F813
S21400ECE0302000220FBF83F8302094F83030002305
S21400ECF084F8303038BD00BF70B504460E46154661
S21400ED004CF20003C4F2000340F20002C4F2010217
S21400ED10821A18BF012298420CBF002302F001039A
S21400ED20C3B148F20003C4F209034CF20002C4F275
S21400ED300902821A18BF012298420CBF002302F073
S21400ED4001033BB14AF6D060C0F2010040F2D9316F
S21400ED50FEF754FF012D07D94AF6D060C0F2010035
S21400ED6040F2DA31FEF74AFF012D18BF002209D122
S21400ED703278012A0CBF022200227378012B08BFCA
S21400ED8042F0040240F20003C4F201039C4220D188
S21400ED90012D16D140F20003C4F20103197B41F0A5
S21400EDA0800119734FF0000119701971197B01F079
S21400EDB07F0119734FF01001996242F001021A6246
S21400EDC01FE040F20003C4F201034FF000021A6293
S21400EDD017E0012D1CBF0023236212D1237B43F0D2
S21400EDE0800323734FF0000323702371237B03F00B
S21400EDF07F0323734FF0100384F8283042F001029B
S21400EE00226270BD38B505460C464CF20003C4F2CB
S21400EE10000340F20002C4F20102821A18BF012267
S21400EE2098420CBF002302F00103C3B148F200036E
S21400EE30C4F209034CF20002C4F20902821A18BF97
S21400EE40012298420CBF002302F001033BB14AF6B0
S21400EE50D060C0F2010040F27F31FEF7CFFEE378CB
S21400EE60032B07D94AF6D060C0F201004FF4607158
S21400EE70FEF7C4FEA378012B07D94AF6D060C0F28D
S21400EE80010040F28131FEF7B9FE2378012B07D945
S21400EE904AF6D060C0F2010040F28231FEF7AEFEC4
S21400EEA06378012B07D94AF6D060C0F2010040F221
S21400EEB08331FEF7A3FEE278012A08BF412207D07D
S21400EEC022B1022A0CBF8122C12201E04FF00102CA
S21400EED06378012B08BF42F004022378012B08BF99
S21400EEE042F00202A378012B08BF42F0080240F26B
S21400EEF00003C4F201039D4201BF02F0CF0240F2BC
S21400EF000003C4F201031A721CBF02F0CF022A7279
S21400EF1038BD00BF10B504464CF20003C4F200032F
S21400EF2040F20002C4F20102821A18BF012298427F
S21400EF300CBF002302F00103C3B148F20003C4F281
S21400EF4009034CF20002C4F20902821A18BF012219
S21400EF5098420CBF002302F001033BB14AF6D06092
S21400EF60C0F2010040F25731FEF748FE40F20003BF
S21400EF70C4F201039C4203BF40F20003C4F2010343
S21400EF80187D207D10BD00BF2DE9F04104460D46DA
S21400EF9016464CF20003C4F2000340F20002C4F22C
S21400EFA00102821A18BF012298420CBF002302F009
S21400EFB00103C3B148F20003C4F209034CF2000295
S21400EFC0C4F20902821A18BF012298420CBF00231D
S21400EFD002F001033BB14AF6D060C0F2010040F2F5
S21400EFE00B31FEF70BFE012E07D94AF6D060C0F2B1
S21400EFF001004FF44371FEF701FE062D19D8DFE835
S21400F00005F004070A0D101316004FF0010810E073
S21400F0104FF002080DE04FF004080AE04FF0080831
S21400F02007E04FF0800804E04FF4807801E04FF4EA
S21400F0300078274640F20003C4F201039C4218D130
S21400F0406B1F18BF0123022D94BF002303F001039A
S21400F05013B3062D20D0A5F10305EDB2012D1BD963
S21400F0604AF6D060C0F201004FF44A71FEF7C6FDC2
S21400F07012E06B1F18BF0123022D94BF002303F07C
S21400F08001034BB1062D07D04AF6D060C0F201004E
S21400F0904FF44B71FEF7B2FD012E13D140F2000380
S21400F0A0C4F201039F4201BF40F20003C4F2010311
S21400F0B05A6848EA02020FBF5A60636848EA0303C8
S21400F0C063601BE040F20003C4F201039F420BD1D1
S21400F0D01A46596840F28F33C0F2000301EA030370
S21400F0E023EA0803536009E0626840F20733C0F27F
S21400F0F0000302EA030323EA08036360BDE8F08125
S21400F10038B504460D464CF20003C4F20903984293
S21400F11007D04AF6D060C0F201004FF43A71FEF70D
S21400F1206DFD072D07D94AF6D060C0F2010040F207
S21400F130E921FEF763FD94F8243003F0C70343F09B
S21400F140040305F0070543EAC50505F03F0584F806
S21400F150245038BD38B504460D464CF20003C4F2C0
S21400F1600903984207D04AF6D060C0F2010040F288
S21400F170C721FEF743FD012D07D94AF6D060C0F23D
S21400F18001004FF43271FEF739FD012D03BF94F8EC
S21400F190243043F0010384F8243094F824301CBF54
S21400F1A003F03E0384F8243038BD00BF38B505466A
S21400F1B00C464CF20003C4F20903984207D04AF604
S21400F1C0D060C0F2010040F2AF21FEF717FD012C1F
S21400F1D007D94AF6D060C0F201004FF42C71FEF752
S21400F1E00DFD012C06D195F8243043F0020385F876
S21400F1F0243006E02CB995F8243003F03D0385F85A
S21400F200243038BD10B504464CF20003C4F20003A7
S21400F21040F20002C4F20102821A18BF012298428C
S21400F2200CBF002302F00103C3B148F20003C4F28E
S21400F23009034CF20002C4F20902821A18BF012226
S21400F24098420CBF002302F001033BB14AF6D0609F
S21400F250C0F2010040F29521FEF7D0FC40F2000318
S21400F260C4F201039C4201BF40F20003C4F2010352
S21400F2701A7B42F040020FBF1A73237B43F0400311
S21400F280237310BD10B504464CF20003C4F200030D
S21400F29040F20002C4F20102821A18BF012298420C
S21400F2A00CBF002302F00103C3B148F20003C4F20E
S21400F2B009034CF20002C4F20902821A18BF0122A6
S21400F2C098420CBF002302F001033BB14AF6D0601F
S21400F2D0C0F2010040F27F21FEF790FC40F20003EE
S21400F2E0C4F201039C4203BF40F20003C4F20103D0
S21400F2F01878207810BD00BF2DE9F04104460F466F
S21400F3001646012B08D0002A30D0037D13F0010FDB
S21400F31018BF002521D129E042B34FF000054FF079
S21400F320FF380FE023B303F1FF33227D12F0010F05
S21400F330F8D0EBB12046FFF7A5FF785505F101059B
S21400F340AE4215D0237D13F0010F08BF4346EAD026
S21400F350F0E7237D13F0010F0AD02046FFF792FF57
S21400F360785505F10105AE42F3D101E04FF00005F6
S21400F3702846BDE8F08100BF38B504460D464CF27D
S21400F3800003C4F2000340F20002C4F20102821A33
S21400F39018BF012298420CBF002302F00103C3B13C
S21400F3A048F20003C4F209034CF20002C4F2090258
S21400F3B0821A18BF012298420CBF002302F00103F4
S21400F3C03BB14AF6D060C0F2010040F26921FEF778
S21400F3D015FC40F20003C4F201039C4203BF40F256
S21400F3E00003C4F201031D70257038BD2DE9F047F7
S21400F3F004468A46012B4FD122E0002B5AD003F157
S21400F400FF33227D12F0200FF7D0002B52D0002DB4
S21400F41050D0C84620461AF8011BFFF7ADFF07F18B
S21400F420010718F1FF380CBF0023012315F1FF3543
S21400F4300CBF002303F00103002BEBD14DB939E0DC
S21400F440002A35D015464FF000074FF0FF364FF034
S21400F4501009237D13F0200F08BF3346CFD0D6E720
S21400F460237D13F0200F25D0354620461AF80710C6
S21400F470FFF782FF07F1010718F1FF380CBF0023E2
S21400F480012315F1FF350CBF002203F00102002A0C
S21400F490EBD1002BE4D10DE052B1037D13F0200F29
S21400F4A006D090464FF010054FF000072E46DCE7DA
S21400F4B04FF000073846BDE8F08700BF38B5044671
S21400F4C06BB1057B05F0EF0303734FF00103FFF705
S21400F4D08DFF237D13F0400FFBD0257307E04FF020
S21400F4E00103FFF783FF237D13F0400FFBD038BDE9
S21400F4F008B54FF00003FFF7E1FF08BD00B583B085
S21400F50002AB03F8011D19464FF001021346FFF740
S21400F510D5FF03B000BD00BF10B504464CF2000393
S21400F520C4F2000340F20002C4F20102821A18BFBD
S21400F530012298420CBF002302F00103C3B148F237
S21400F5400003C4F209034CF20002C4F20902821A54
S21400F55018BF012298420CBF002302F001033BB102
S21400F5604AF6D060C0F2010040F25911FEF746FBA1
S21400F57020464FF00001FFF757FB4CF20003C4F2A1
S21400F58000039C4206D14FF008004FF00001FEF742
S21400F590CFFA18E040F20003C4F201039C4205D102
S21400F5A04FF010004FF00001FEF7C2FA48F20003D9
S21400F5B0C4F209039C4206D14FF080704FF0000160
S21400F5C0FEF7B6FA0BE04CF20003C4F209039C42C5
S21400F5D005D14FF000704FF00001FEF7A9FA10BDFC
S21400F5E02DE9F04F85B003900C464CF20002C4F2B1
S21400F5F00002904205D14FF00600FEF785FA03465A
S21400F60025E040F20002C4F201020398904205D1C0
S21400F6104FF00800FEF778FA034618E048F20002BA
S21400F620C4F209020399914205D14FF03000FEF76B
S21400F6306BFA03460BE04CF20002C4F20902039890
S21400F640904204D14FF03200FEF75EFA03464FEACE
S21400F650131102914FEA54080E464FF0010C48F27F
S21400F660A06AC0F2010A4FF00005AB460095CDF83F
S21400F67004C04FF6FC772AE002EB0C01B6FBF1F172
S21400F680B1FBF4F304FB1310404588BF0133A3F12C
S21400F6900300B8420FD8B1FBF3F18C422CBFC1EB8C
S21400F6A00405C4EB0105554505D2A5B1AA469B46FF
S21400F6B00092CDF8049002F10102102ADCD17DB14F
S21400F6C00CF1010C029A1644BCF1100F08D04FF052
S21400F6D00002E146D0E7AA469B460092CDF804C059
S21400F6E004EB440448F21F53C5F2EB13A3FB0403D8
S21400F6F0BAEB531F28BF002042D240F20003C4F2E8
S21400F70001030399994220D140F20003C4F2010399
S21400F7101A7B42F080021A73CBF307221A715FFA43
S21400F7208BFB83F800B01A7B02F07F021A73019AF3
S21400F7304FEA021101F0FF01009800F00F0241EAC3
S21400F74002029A624FF001001AE003990B7B43F025
S21400F75080030B73CBF307230B715FFA8BFB81F8E7
S21400F76000B00B7B03F07F030B73009A02F00F03CD
S21400F770019843EA0013DBB281F828304FF001000D
S21400F78005B0BDE8F08F00BF70B504460D464CF2DC
S21400F7900003C4F2000340F20002C4F20102821A1F
S21400F7A018BF012298420CBF002302F00103C3B128
S21400F7B048F20003C4F209034CF20002C4F2090244
S21400F7C0821A18BF012298420CBF002302F00103E0
S21400F7D03BB14AF6D060C0F2010040F28D11FEF750
S21400F7E00DFA6B79032B07D94AF6D060C0F20100F8
S21400F7F04FF4C771FEF702FAAB79012B07D94AF628
S21400F800D060C0F2010040F28F11FEF7F7F92B79B5
S21400F810042B07D94AF6D060C0F201004FF4C87135
S21400F820FEF7ECF94CF20003C4F200039C420AD146
S21400F8304FF008004FF00101FEF77AF94CF200068F
S21400F840C4F2000619E0264640F20003C4F20103A3
S21400F8509C4205D14FF010004FF00101FEF768F909
S21400F86048F20003C4F209039C4206D14FF08070B0
S21400F8704FF00101FEF75CF90BE04CF20003C4F216
S21400F88009039C4205D14FF000704FF00101FEF7CE
S21400F8904FF940F20003C4F201039E4234D140F215
S21400F8A00003C4F201034FF007021A724FF0000281
S21400F8B01A721B7D13F0010F04D03378337D13F0DA
S21400F8C0010FFAD140F20003C4F201036FF07F0289
S21400F8D083F830201A46137D13F0200FFBD040F239
S21400F8E00003C4F201034FF0000283F830205A6090
S21400F8F01A731A621A7483F84C2083F8542083F81B
S21400F90050201A7E1B7D1EE04FF0070323724FF037
S21400F91000032372237D13F0010F04D02378237D88
S21400F92013F0010FFAD16FF07F0384F83030237D97
S21400F93013F0200FFBD04FF0000384F830306360E4
S21400F94023732362237D4CF20003C4F209039C4216
S21400F95001BF4CF20003C4F20903002283F82420FE
S21400F96020462968FFF73CFE40F20003C4F201037C
S21400F9709E4201BF40F20003C4F201031B7B03F06A
S21400F980C0031CBF237B03F0C0036A79012A08BFAB
S21400F99043F0010307D032B1022A18BF43F0030335
S21400F9A001D143F002032A797AB143F00803032A0F
S21400F9B008BF43F0200308D0042A08BF43F03003F2
S21400F9C003D0022A08BF43F01003AA79012A08BF11
S21400F9D043F0040340F20002C4F20102964201BF63
S21400F9E0DBB240F20002C4F2010213731CBFDBB2AA
S21400F9F0237370BD10B44EF20013CEF200034FF026
S21400FA00FF31C3F880104FF00102C3F88420C3F81A
S21400FA108011C3F884214FF000034EF2001C6146AB
S21400FA20CEF200011A4603EB010080F8002303F132
S21400FA300103202BF7D110BC704700BF4EF60052D2
S21400FA40CEF200024FF0206353604FF00003936045
S21400FA5040F20001C0F2FA51D160136153611046C2
S21400FA60194603EB0002117603F10103202BF8D1AF
S21400FA704EF60053CEF200034FF000025A624FF0EB
S21400FA80FF329A62DA621A63704700BF20F0404085
S21400FA9020F07F004EF60053CEF2000398607047C9
S21400FAA045F2DC60C1F20000704700BF10B582B0BE
S21400FAB045F2DC64C1F2000460694FF000014FF0CB
S21400FAC0FF320B46F2F7D0F804F118004AF614712C
S21400FAD0C0F201014FF00A02FBF7D6FB60B92146DF
S21400FAE004F1180420464FF0140201ABFAF7C2FEE8
S21400FAF02046FBF7B1FB05E04AF62470C0F2010091
S21400FB00FCF7F2FF45F2DC63C1F2000358694FF0E0
S21400FB1000010A460B46F2F7B3F902B010BD00BF6B
S21400FB2010B582B0F3F784FBF2F73CFA45F2DC63DB
S21400FB30C1F2000358614FF000014FF0FF320B4650
S21400FB40F2F792F8F3F782FB4FF00000FBF766FD42
S21400FB5084B2002C39D14FF0000047F64C31C1F288
S21400FB600001F8F7F9FF044678BB1F484AF61471FF
S21400FB70C0F201014FF00102FBF786FB78B945F2AF
S21400FB80DC61C1F2000101F1180420464FF01402B6
S21400FB9001ABFBF75DFA2046FBF75EFB05E04AF695
S21400FBA02470C0F20100FCF79FFF45F2DC63C1F24F
S21400FBB0000358694FF000010A460B46F2F760F959
S21400FBC0FFF774FF4FF000000BE045F2DC63C1F274
S21400FBD0000358694FF000010A460B46F2F750F949
S21400FBE0204602B010BD00BFF456001070B588B0B5
S21400FBF005466846FBF73AFC45F21874C1F2000465
S21400FC0023680099C3EB01016368019AC3EB020302
S21400FC10C3EB031301EB8303A2680299C2EB010155
S21400FC204FF4616606FB01312369049EC3EB0603AD
S21400FC3044F62512C2F29242A2FB0302C2EB030074
S21400FC4002EB50024FEA9202C2EBC202C2EB03067C
S21400FC5045F28013C0F2010303FB0616F3F7E8FA39
S21400FC60236A2B60636A6B602046FBF7FFFB4FF04E
S21400FC70000323626362F3F7E9FA304608B070BD0A
S21400FC802DE9F84506460C4690469A4645F2187504
S21400FC90C1F20005A86A02F0D3FC40F20001C4F2EB
S21400FCA0253102F017FC42F6B861C3F6CF0102F028
S21400FCB01BFD3060E86AA0F5AC50A0F1250002F00C
S21400FCC0BFFC4BF67231C3F6F80102F00DFD206062
S21400FCD0356828464FF0000102F0A4FE38B92846E1
S21400FCE040F20001C4F2964102F0BAFE10B14FF0A5
S21400FCF000033360256828464FF0000102F092FEAC
S21400FD0038B9284640F20001C4F2964102F0A8FE37
S21400FD1010B14FF00003236037682568384629463F
S21400FD2002F09EFE00B93D4635602168084602F0A6
S21400FD30DBFC07462846294602F0D6FC0146384634
S21400FD4002F0C8FB01F0D8FE0746C8F80000256898
S21400FD50294602F085FE00B93D46C8F800503068D6
S21400FD60216802F075FDCAF800004FF00003089AFB
S21400FD701360099A1360BDE8F88500BF2DE9F041CD
S21400FD8006468846174645F21873C1F20003186BFC
S21400FD9040B94FF0C8051C462846F2F75BFF206BBB
S21400FDA00028F9D04FF000014FF0FF320B46F1F774
S21400FDB05BFF46F0800640F20003C4F203039E6039
S21400FDC01A46D36813F0100FFBD140F20003C4F2BA
S21400FDD003039B684FF01400F2F73CFFBFB14FF0EF
S21400FDE0000540F200031C46C4F203044FF014065C
S21400FDF018F80530A360E36813F0100FFBD1A36872
S21400FE003046F2F727FF05F10105AF42F0D845F27C
S21400FE101873C1F20003186B4FF000010A460B4638
S21400FE20F2F72EF8BDE8F08170B5064645F2187375
S21400FE30C1F20003186B40B94FF0C8051C462846AF
S21400FE40F2F708FF206B0028F9D04FF000014FF0C2
S21400FE50FF320B46F1F708FF40F20003C4F203033B
S21400FE609E601A46D36813F0100FFBD140F20003D1
S21400FE70C4F203039C684FF01400F2F7EBFE45F261
S21400FE801873C1F20003186B4FF000010A460B46C8
S21400FE90F1F7F6FFE0B270BD2DE9F0470646894659
S21400FEA0924645F21873C1F20003186B40B94FF042
S21400FEB0C8051C462846F2F7CDFE206B0028F9D070
S21400FEC04FF000014FF0FF320B46F1F7CDFE40F247
S21400FED00003C4F203039E601A46D36813F0100FA3
S21400FEE0FBD140F20003C4F203039B684FF01400FA
S21400FEF0F2F7B0FEBAF1000F18D04FF0000540F24E
S21400FF0000031C46C4F203042F464FF01408A760F3
S21400FF10E36813F0100FFBD1A6684046F2F79AFE8E
S21400FF2009F8056005F10105AA45F0D845F21873F1
S21400FF30C1F20003186B4FF000010A460B46F1F7BA
S21400FF409FFFBDE8F08700BF2DE9F04F83B045F274
S21400FF501874C1F200044FF064054FF400594FF4D2
S21400FF607A7B0DF104084FF0030A02E02846F2F708
S21400FF7071FE236B002BF9D0484600F07BF95846FB
S21400FF80F2F768FE504641465246FFF785FF9DF859
S21400FF9005309DF806704FEA072747EA03479DF8A5
S21400FFA0073047EA03074FF0060041465246FFF780
S21400FFB073FF9DF805309DF806604FEA062646EA70
S21400FFC003469DF8073046EA030617F4000F18BFED
S21400FFD047F07F4716F4000F18BF46F07F46F3F74A
S21400FFE027F9A762E662236A1F442762636A1E44F3
S21400FFF06662F3F72BF9BCE7F0B58BB0F3F718F9A8
S214010000F1F7D0FF45F21873C1F2000318634FF001
S21401001000014FF0FF320B46F1F726FE4FF00004C9
S2140100208DF81E408DF820404FF002068DF81F60B7
S2140100304FF006078DF81D700AAD05F80C4D2046E9
S2140100404FF040014FF00102FCF7DAFE2846FDF7BB
S2140100504FFE8DF81E604FF007038DF81D302846C1
S214010060FDF746FE4FF003038DF81F304FF00803EF
S2140100708DF81D302846FDF73BFE4FF009038DF83D
S2140100801D302846FDF734FE01AE3046FDF754FE1E
S2140100904FF0800302930394019740F20005C4F2E7
S2140100A0030528463146FEF72BFB4FF01400214688
S2140100B0FDF7E0FC28464FF00101FEF75FFA2A46FD
S2140100C0D36813F0100FFBD140F20004C4F203040E
S2140100D020464FF4C871FEF7B9FAE36813F0040F2F
S2140100E007D023469A680992099ADA6812F0040F33
S2140100F0F8D140F20003C4F203034FF001029A6004
S2140101001A46D36813F0100FFBD140F20004C4F274
S2140101100304A3684FF01400F2F79CFD20464FF04D
S2140101200001FEF72BFA0AA94FF0070341F8243D18
S2140101302046FEF7E5FA20464FF00101FEF71EFACB
S2140101402246D36813F0100FFBD140F20004C4F22C
S214010150030420464FF4C871FEF778FAE36813F0FB
S214010160040F07D023469A680992099ADA6812F0B2
S214010170040FF8D140F20003C4F203034FF000026B
S2140101809A601A46D36813F0100FFBD140F20004B0
S214010190C4F20304A3684FF01400F2F75BFD4FF0BE
S2140101A00003A3602246D36813F0100FFBD140F280
S2140101B00004C4F20304A3684FF01400F2F74AFDEA
S2140101C04FF00003A3602246D36813F0100FFBD153
S2140101D040F20004C4F20304A3684FF01400F2F7DF
S2140101E039FD45F21875C1F200052846FBF73EF9C0
S2140101F0286B4FF000010A460B46F1F741FE4FF01F
S2140102008F03A3602246D36813F0100FFBD140F290
S2140102100004C4F20304A3684FF01400F2F71AFDB9
S2140102204FF00B03A3602246D36813F0100FFBD1E7
S21401023040F20003C4F203039B684FF01400F2F788
S21401024009FDF3F703F80BB0F0BD00BF4CF2400315
S214010250C2F209035A6922EA00025A61704700BFD6
S2140102604CF24003C2F209035A6940EA02025A619B
S214010270704700BF08B54CF24003C2F209035B6940
S214010280184202D0FFF7E2FF01E0FFF7E9FF08BDE1
S21401029010B54CF20003C4F202031A6922F07C6224
S2140102A01A614CF24004C2F20904236843F4605315
S2140102B023604FF000004FF400614FF00102FCF79D
S2140102C09FFD636943F46053636110BD45F24C734F
S2140102D0C1F20003036003F154030B60704700BFD3
S2140102E010B445F24C73C1F2000303F1E404046058
S2140102F003F1F000086003F1FC03136010BC7047C3
S2140103002DE9F84F4AF63470C0F20100FCF7ECFB19
S21401031045F24C74C1F200044FF0000504F58476F2
S2140103204AF64C77C0F201074AF66078C0F2010837
S214010330A06802F081F90146206802F089FA314688
S21401034001F0F0FB384629463246FCF7CDFBA068A3
S21401035002F072F90146606802F07AFA314601F05D
S214010360E1FB40463146FCF7BFFB05F1010504F110
S2140103700C04072DDCD14AF67870C0F20100FCF7B8
S214010380B3FB1F4E4FF000052C4645F24C7AC1F2E6
S214010390000A0AF584774AF68479C0F201094AF61A
S2140103A0607BC0F2010BB06802F046F90146144BBF
S2140103B0185902F04DFA394601F0B4FB294605F109
S2140103C0020548462A463B46FCF78EFB0AEB040824
S2140103D0B06802F031F90146D8F8040002F038FAA4
S2140103E0394601F09FFB58463946FCF77DFB06F17E
S2140103F00C0604F10C04902CD5D1BDE8F88F00BF93
S214010400A057001008B545F24C73C1F20003D3F8AB
S21401041048014FF000010A460B46F1F731FD08BDD1
S21401042008B545F24C73C1F20003D3F84831E3B97D
S214010430F2F7FEFEF1F7B6FD45F24C73C1F200038A
S214010440C3F848014FF00000FBF7E8F880B248B95E
S21401045047F64C31C1F20001F8F77EFB10B9F2F70E
S214010460F5FE02E0F2F7F2FE0CE045F24C73C1F243
S2140104700003D3F848014FF000014FF0FF320B465E
S214010480F1F7F2FB08BD00BF08B5FFF7C9FF4AF652
S2140104909C70C0F20100FAF77BF9FFF7B3FF08BDC5
S2140104A02DE9F04182B0FFF7BBFF4FF00003019347
S2140104B04AF69C70C0F201003949F9F79BFF30B942
S2140104C045F24C73C1F20003D3F84C310193354821
S2140104D04AF6AC71C0F201014FF00A02FAF7D4FEF7
S2140104E0002858D145F24C74C1F2000404F5B270EC
S2140104F001A94FF004026B46FAF7BCF904F1540562
S21401050004F5B2764FF00C083046214642466B465B
S214010510FAF7B0F904F10C04AC42F5D145F24C758A
S214010520C1F2000505F1540405F1E40545F24C76E7
S214010530C1F2000606F5B2766F464FF00C0830465B
S214010540214642466B46FAF795F904F10C04AC4293
S214010550F5D145F24C74C1F2000404F5B2766D464D
S214010560304604F1E4014FF00C026B46FAF782F9CB
S214010570304604F1F0014FF00C026B46FAF77AF9B7
S214010580304604F1FC014FF00C026B46FAF772F9A3
S2140105903046FAF761FEFFF735FF02B0BDE8F0819D
S2140105A098580010B05800102DE9F04F8FB0FFF7A3
S2140105B037FF42484AF69C71C0F201014FF0120221
S2140105C0FAF762FE002840F0F78145F24C73C1F25B
S2140105D00003D3F8701151B11C4603F5B270F9F758
S2140105E0C7FBD4F87031B3F1A06F80F0E2813448D4
S2140105F0FFF7FCFA0446272840F2DB8145F24C75EA
S214010600C1F20005D5F88801A0F54E60A0F10400FE
S21401061002F016F843F67C01C3F60A1102F064F8FC
S2140106200746204602F008F806463846314602F0EC
S2140106300FF98046D5F88C5140F20001C4F296417C
S21401064002F00EFA002840F0B48143F61070CFF69F
S214010650FC70284401F0F4FF40F29331C3F62611F2
S21401066002F042F80546314602F0F2F8824640F2C0
S2140106700001C4F2964102F0F3F9002840F0998196
S21401068040464FF0000102F0CDF918B14FF0000BD3
S214010690D84607E0384640F20001C4F2702102F065
S2140106A0D7F8834650464FF0000102F0BBF948B137
S2140106B04FF00002099292460CE000BFB0580010BD
S2140106C0D4580010284640F20001C4F2702102F00E
S2140106D0BFF809904046514602F0C2F910B1CDF874
S2140106E024B0C24645F24C75C1F20005B548FAF78A
S2140106F0BDFE05F58477D5F8A021D5F8AC31D5F83F
S214010700A8110091D5F89C110191D5F89811029184
S214010710D5F89411039138464AF6B871C0F2010132
S214010720F0F73AF9384602F011FD0246A648394676
S2140107300DABFAF79FF8404602F09CF90A90404646
S21401074040F20001C4F2C82101F0CEFF02F092F996
S21401075048F21F56C5F2EB1686FB00324FEAE073ED
S214010760C3EB62134FF0640909FB13030B93504666
S21401077002F080F90090504640F20001C4F2C82110
S21401078001F0B2FF02F076F986FB00324FEAE07321
S214010790C3EB621309FB130301930294584602F05C
S2140107A069F90390584640F20001C4F2C82101F0ED
S2140107B09BFF02F05FF986FB00324FEAE073C3EB62
S2140107C0621309FB13030493099802F053F9059089
S2140107D0099840F20001C4F2C82101F085FF02F039
S2140107E049F986FB00264FEAE073C3EB661609FB60
S2140107F01600069038464AF6CC71C0F201010A9AF4
S2140108000B9BF0F7C9F8384602F0A0FC02466E488A
S21401081039460DABFAF72EF8F2F70AFD6948FAF7F2
S21401082025FED5F8A04104EB440405EB84042068BA
S214010830414601F051FE2060D5F8A04104EB440486
S21401084005EB840454F8040F514601F045FE206080
S214010850D5F8A03103EB430305EB830353F8082FC8
S21401086002F101021A60D5F898414FEA540404EBEC
S214010870440405EB840454F8540F414601F02CFE61
S2140108802060D5F898414FEA540404EB440405EB84
S214010890840454F8580F514601F01EFE2060D5F826
S2140108A098314FEA530303EB430305EB830353F8F5
S2140108B05C2F02F101021A60B5F8AC4195F8A86107
S2140108C05846D5F8FC1001F007FEC5F8FC0009985B
S2140108D0D5F8001101F000FEC5F8000195F8FA20E0
S2140108E0964213D1B5F8F830A3420FD12C4658469C
S2140108F0D5F8F01001F0F0FDC5F8F0000998D5F82C
S214010900F41001F0E9FDC5F8F40041E045F24C733E
S214010910C1F20003B3F8F8309C4202D816D19642D1
S21401092014D945F24C73C1F2000303F1E40C03F150
S214010930F00207CA8CE80700A3F8F84083F8FA60CB
S214010940C3F8F0B0099AC3F8F42021E045F24C73DD
S214010950C1F2000393F8EE30B34219D145F24C735D
S214010960C1F20003B3F8EC30A34211D145F24C7446
S214010970C1F200045846D4F8E41001F0ADFDC4F805
S214010980E4000998D4F8E81001F0A6FDC4F8E800E0
S214010990F2F75CFC4AF6F470C0F20100FBF79AFE2F
S2140109A00A48FBF797FE46F60820C0F20100FBF75F
S2140109B091FE0548FAF750FCFFF724FD0FB0BDE89D
S2140109C0F08F00BFDC580010B058001054580010CB
S2140109D02DE9F04F97B00646FFF722FD45F24C741D
S2140109E0C1F2000404F1080304F15C004FF00002B8
S2140109F04FF0000143F8042C43F8082C43F80C1B75
S214010A008342F7D145F24C70C1F2000000F15C035D
S214010A1000F1540500F1EC004FF000024FF0000128
S214010A2043F8042C43F8082C43F80C1B8342F7D1F7
S214010A3045F24C73C1F200034FF00001C3F8F01009
S214010A40C3F8F4104FF00002A3F8F82083F8FA2058
S214010A50C3F8E410C3F8E810A3F8EC2083F8EE20FE
S214010A60C3F8FC10C3F80011A3F8042183F806218B
S214010A700D920EAB43F8042B43F8042B43F8042BDA
S214010A8043F8042B43F8042B43F8042B1A600EB9E1
S214010A90144692E04FF000030C93A6484AF6AC7158
S214010AA0C0F201014FF00102FAF7EEFB00286AD10D
S214010AB0A0480CA94FF004020BABFAF7C9FA0028BC
S214010AC070D10B9B002B6DD004F15406994F0DF19C
S214010AD02C084FF00C0A3846214652464346FAF790
S214010AE0B7FA00285ED10B9B002B5BD004F10C04F7
S214010AF0B442F0D105F190048E4E0BAF4FF00C08C6
S214010B003046294642463B46FAF7A2FA002849D122
S214010B100B9B002B46D005F10C05A542F0D145F202
S214010B204C71C1F2000101F5B27001F1E4014FF020
S214010B300C020BABFAF78CFAA0BB0B9B93B345F2F6
S214010B404C71C1F2000101F5B27001F1F0014FF0F4
S214010B500C020BABFAF77CFA20BB0B9B13B345F2E6
S214010B604C71C1F2000101F5B27001F1FC014FF0C8
S214010B700C020BABFAF76CFAA0B90B9B93B16D485C
S214010B80FAF76AFB05E04BF20000C0F20100FBF742
S214010B90ABFF4BF21800C0F201000C99FBF7A4FF63
S214010BA00C9C0AE06348FAF757FB4BF22400C0F2AC
S214010BB00100FBF799FF4FF000045E484AF69C716E
S214010BC0C0F201014FF00102FAF75EFB002840F087
S214010BD025811CB157482146F9F7CAF84FF00001A4
S214010BE006910F460791089189464FF0000303933B
S214010BF09B4601930D4645F24C76C1F200060291E2
S214010C0006F1E4010591099706F5B27006F58471BF
S214010C104FF0400215ABFAF71BFA30B14BF2340035
S214010C20C0F20100FBF760FFF4E0159B002B00F01B
S214010C30F1804FF0000406F5847806F1F001049186
S214010C402B4625461C4618F805300D2B00F0DA8099
S214010C503B2B03D00A2B40F0CE8038E016AB1F4466
S214010C604FF0000107F8241C24B90DA801F034FF49
S214010C7081460DE0012C04D10DA801F02DFF07904F
S214010C800DE0022C04D10DA801F026FF08901AE011
S214010C90042C04D10DA801F01FFF069013E0062CCA
S214010CA004D10DA801F00CFF83460CE0072C04D1FB
S214010CB00DA801F005FF019005E0092C03D10DA850
S214010CC001F0FEFE039004F10104029F9AE016ABC8
S214010CD01F444FF0000107F8241C0DA801F0F0FE98
S214010CE08246079B9CB20899CFB20398D6F8FC10AF
S214010CF001F0F2FBC6F8FC005046D6F8001101F0F0
S214010D00EBFBC6F8000196F8FA20974214D1B6F824
S214010D10F830A34210D10398D6F8F01001F0DCFBAE
S214010D20C6F8F0005046D6F8F41001F0D5FBC6F828
S214010D30F4002EE0B0580010B6F8F8309C4202D805
S214010D4011D197420FD9049B93E80700059B83E8CE
S214010D500700A6F8F84086F8FA700399C6F8F0106E
S214010D60C6F8F4A015E096F8EE30BB4211D1B6F8FD
S214010D70EC30A3420DD10398D6F8E41001F0ACFB99
S214010D80C6F8E4005046D6F8E81001F0A5FBC6F810
S214010D90E80009EB490706EB87073868594601F072
S214010DA09BFB38603C4654F8040F019901F094FB14
S214010DB0206057F8083F03F101033B60069B4FEAAA
S214010DC0630707EB470706EB87073C4654F8540FC3
S214010DD0594601F081FB20603C4654F8580F0199B2
S214010DE001F07AFB206057F85C3F03F101033B609A
S214010DF0029F099C06E016A901EB070202F8243CB3
S214010E0007F1010705F10105159BAB423FF61BAF44
S214010E102546F9E60A48FAF71FFA05E04BF24000C4
S214010E20C0F20100FBF760FE4BF24C00C0F201007D
S214010E30FBF750FCFFF7E6FA17B0BDE8F08F00BFEE
S214010E40B058001008B5FEF72BFE47F61C33C1F26A
S214010E50000302881A8042885A8047F61833C1F286
S214010E60000382881A80C2885A8047F6E823C1F2B6
S214010E70000302891A804089588008BD2DE9F04F89
S214010E8083B00746894602F061F9B0F100083BDB02
S214010E9007F1010538464FF00004A24640F2F80675
S214010EA0C1F20006A34609F1020201923A5D3368D7
S214010EB013445B7813F0040F20D107F804B001F057
S214010EC00BFEC0B2BAF1030F15D8DFE80AF002052F
S214010ED00C0FA9F800000EE0B9F8003043EA002034
S214010EE0A9F8000007E0A9F8020004E0019A1388B7
S214010EF043EA002010800AF1010A284604F10104A1
S214010F0005F10105A045D1DA03B0BDE8F08F00BFB9
S214010F1000B583B00B884A8802F0FF0100914FEAC2
S214010F20122201924BF25401C0F20101DAB24FEAE9
S214010F301323EFF731FD03B000BD00BF2DE9F04FDD
S214010F4089B04FF000074FF00208BA464FF0080983
S214010F504FF0050B4FF47A70F1F77CFE6846FAF70E
S214010F6085FA4FF48050FFF785F940F23803C1F255
S214010F7000035B68002BEDD040F23804C1F2000498
S214010F804FF01E054FF00A062278062A25D8DFE81C
S214010F9002F0370406080F161D00324631E02A46D5
S214010FA02FE0009A3B2A14BF00220122394616E0A0
S214010FB0009A292A14BF0022012241460FE0009A16
S214010FC0202A14BF00220122594608E0009A292A45
S214010FD014BF00220122494601E03946524639B182
S214010FE042B1019AB2FBF1F001FB10220AB101E015
S214010FF002B19847236904F10C04002BAAD0C3E779
S21401100042460099B1FBF2F002FB1012D2F1010246
S21401101038BF0022ECE700BF037813B94FF0000099
S2140110201EE001464FF000008446A3F13002D2B222
S214011030092A0FD9A3F16102D2B2052A9CBF573BF8
S214011040DAB207D9A3F14102D2B2052A8EBF6246AF
S214011050373BDAB242EA001011F8013F002BE4D127
S214011060704700BF2DE9F04790B011F1FF3744D02B
S2140110704FF000031C461D4640F2F801C1F2000184
S21401108098469A464FF0010903EB0006C25CD1F878
S21401109000C094449CF801C01CF0080F00D13AB976
S2140110A024B100F8038005F1010554463AB90AE077
S2140110B02CB910AC04EB850242F8406C4C4603F1A7
S2140110C00103BB42E0D3C5B140F26803C1F200039D
S2140110D01B6993B140F26804C1F2000400982146EE
S2140110E001F0E8FE20B9236928466946984706E0DC
S2140110F004F114042369002BF0D14FF0010010B065
S214011100BDE8F087F8B50E46071E0FDD4FF0000468
S2140111104BF26005C0F201052846214656F8242008
S214011120FBF7E2FC04F10104A742F5DC4BF2740084
S214011130C0F20100FBF7D8FC4FF00000F8BD00BF7D
S21401114008B54BF28C00C0F20100FBF7CDFC4FF066
S214011150000008BD2DE9F0418CB004460D4602287A
S21401116030D148684BF29C11C0F2010101F0A2FE99
S21401117040BB4BF2A010C0F20100FBF7B5FC4FF0EC
S21401118000054FF0010402AF4FF003084BF2A4161E
S214011190C0F20106204639464246FEF77DFE05F1BD
S2140111A001059DF808209DF809309DF80A10009168
S2140111B030462946FBF798FC04F10104E4B2092CF9
S2140111C0E8D1D0E0042C33D168684BF2C011C0F2EC
S2140111D0010101F06FFE58BBE868FFF71DFFC4B2BE
S2140111E0A868FFF719FFC0B2032834BF06460326D6
S2140111F04BF2C810C0F2010021463246FBF774FCE0
S214011200204602A93246FEF747FE002E00F0AB80CC
S2140112104FF000044BF2EC17C0F2010702AD38465E
S214011220295DFBF761FC04F10104A642F7DC9AE0B4
S214011230052C2ED168684BF2F411C0F2010101F0C1
S21401124039FE30BB2869FFF7E7FE0B90E868FFF729
S214011250E3FE0446A868FFF7DFFEC2B2032A28BFF2
S214011260032212F1FF3F0FD40DF12C0E0EEB0201FB
S2140112704FF000030DF1080C11F8010D0CF80300F6
S21401128003F101037145F7D1E0B202A9FEF776FD3D
S21401129069E0032C1ED168684BF2FC11C0F2010113
S2140112A001F008FE002858D1A868FFF7B5FEC4B2C1
S2140112B04BF20020C0F201002146FBF715FC204648
S2140112C0FEF7B2FD01464BF21420C0F20100FBF717
S2140112D00BFC48E0022C40D168684BF21C21C0F29E
S2140112E0010101F0E7FD002837D107AB009306ABFB
S2140112F001930BA80AA909AA08ABFEF7C1FC02AC28
S2140113000B98214600F00EFC4BF22420C0F201009F
S2140113102146FBF7E9FB0A98214600F003FC4BF255
S2140113203420C0F201002146FBF7DEFB0998214676
S21401133000F0F8FB4BF24820C0F201002146FBF713
S214011340D3FB0898214600F0EDFB4BF25C20C0F27F
S21401135001002146FBF7C8FB05E04BF27020C0F206
S2140113600100FBF7C1FB4FF000000CB0BDE8F081B7
S21401137030B58BB0022848D148684BF21C21C0F228
S214011380010101F097FD00283FD1FEF789FB0446D5
S21401139005AD28462146FFF7BBFD4BF2C830C0F22B
S2140113A001002946FBF7A0FB284604F10401FFF7DC
S2140113B0AFFD4BF2D030C0F201002946FBF794FB9B
S2140113C0284604F10801FFF7A3FD4BF2DC30C0F21A
S2140113D001002946FBF788FB4BF2A831C0F2010158
S2140113E094F80CC00CF0070CE289237C607C00901A
S2140113F0A07C0190E07C02904BF2E430C0F2010048
S21401140001EB8C01FBF770FB05E04BF20440C0F2E8
S2140114100100FBF769FB4FF000000BB030BD00BFC9
S21401142030B587B047F61C33C1F200031A88ADF811
S21401143000205B88ADF8023001AC6D462046694657
S214011440FFF766FD4BF2C830C0F201002146FBF7FC
S2140114504BFB47F61833C1F200031A88ADF800209B
S2140114605B88ADF8023020466946FFF751FD4BF226
S2140114704840C0F201002146FBF736FB47F6E82359
S214011480C1F200031A88ADF800205B88ADF802307F
S21401149020466946FFF73CFD4BF25440C0F201007E
S2140114A02146FBF721FB07B030BD00BF38B50C461F
S2140114B005281FD148684BF26441C0F2010101F0D2
S2140114C0F9FC20BBFEF7ECFA0546A0682946FFF7B3
S2140114D0D5FCE06805F10401FFF7D0FC206905F1B1
S2140114E00801FFF7CBFCFEF7E1FAFFF7ABFCFFF7CD
S2140114F097FF12E002280AD148684BF21C21C0F27D
S214011500010101F0D7FC10B9FFF78AFF05E04BF2A5
S2140115106840C0F20100FBF7E7FA4FF0000038BD63
S21401152000B58DB004A8F9F7A1FF4BF2E443C0F271
S2140115300103089901F00701079A0092069A0192A1
S214011540059A0292049A03924BF20450C0F20100EB
S21401155003EB81010B9A0A9BFBF7C6FA0DB000BD9F
S21401156000B589B0FEF79CFA037B0493437C039392
S214011570C3890793037C0693837C0293C37C019300
S2140115806846F9F7A9FF09B000BD00BF00B589B0EC
S2140115906846F9F76BFFFEF783FA049B0373039B18
S2140115A04374BDF81C30C381069B0374029B83748D
